{
  "_format": "hh-sol-artifact-1",
  "contractName": "TransferManagerERC721",
  "sourceName": "src/utils/TransferManagerERC721.sol",
  "abi": [
    {
      "inputs": [
        {
          "internalType": "address",
          "name": "_netexExchange",
          "type": "address"
        }
      ],
      "stateMutability": "nonpayable",
      "type": "constructor"
    },
    {
      "inputs": [],
      "name": "NETEX_EXCHANGE",
      "outputs": [
        {
          "internalType": "address",
          "name": "",
          "type": "address"
        }
      ],
      "stateMutability": "view",
      "type": "function"
    },
    {
      "inputs": [
        {
          "internalType": "address",
          "name": "collection",
          "type": "address"
        },
        {
          "internalType": "address",
          "name": "from",
          "type": "address"
        },
        {
          "internalType": "address",
          "name": "to",
          "type": "address"
        },
        {
          "internalType": "uint256",
          "name": "tokenId",
          "type": "uint256"
        },
        {
          "internalType": "uint256",
          "name": "",
          "type": "uint256"
        }
      ],
      "name": "transferNonFungibleToken",
      "outputs": [],
      "stateMutability": "nonpayable",
      "type": "function"
    },
    {
      "inputs": [
        {
          "internalType": "address",
          "name": "collection",
          "type": "address"
        },
        {
          "internalType": "address",
          "name": "from",
          "type": "address"
        },
        {
          "internalType": "address",
          "name": "to",
          "type": "address"
        },
        {
          "internalType": "uint256",
          "name": "tokenId",
          "type": "uint256"
        },
        {
          "internalType": "uint256",
          "name": "",
          "type": "uint256"
        },
        {
          "internalType": "bytes",
          "name": "data",
          "type": "bytes"
        }
      ],
      "name": "transferNonFungibleToken",
      "outputs": [],
      "stateMutability": "nonpayable",
      "type": "function"
    }
  ],
  "bytecode": "0x60a060405234801561001057600080fd5b5060405161082038038061082083398101604081905261002f91610040565b6001600160a01b0316608052610070565b60006020828403121561005257600080fd5b81516001600160a01b038116811461006957600080fd5b9392505050565b60805161078961009760003960008181604b0152818160bc01526101aa01526107896000f3fe608060405234801561001057600080fd5b50600436106100415760003560e01c8063168aba701461004657806333f2fa9f14610089578063849b95a71461009e575b600080fd5b61006d7f000000000000000000000000000000000000000000000000000000000000000081565b6040516001600160a01b03909116815260200160405180910390f35b61009c61009736600461038f565b6100b1565b005b61009c6100ac3660046103e4565b61019f565b336001600160a01b037f0000000000000000000000000000000000000000000000000000000000000000161461012e5760405162461bcd60e51b815260206004820152601d60248201527f5472616e736665723a204f6e6c79204e657465782045786368616e676500000060448201526064015b60405180910390fd5b604051632142170760e11b81526001600160a01b0385811660048301528481166024830152604482018490528616906342842e0e90606401600060405180830381600087803b15801561018057600080fd5b505af1158015610194573d6000803e3d6000fd5b505050505050505050565b336001600160a01b037f000000000000000000000000000000000000000000000000000000000000000016146102175760405162461bcd60e51b815260206004820152601d60248201527f5472616e736665723a204f6e6c79204e657465782045786368616e67650000006044820152606401610125565b80156102ff57600061022b828401846105ad565b8051909150851461027e5760405162461bcd60e51b815260206004820152601860248201527f5472616e736665723a2057726f6e6720746f6b656e20696400000000000000006044820152606401610125565b6040517f1adbe0960000000000000000000000000000000000000000000000000000000081526001600160a01b03891690631adbe096906102c79084908b908b906004016106c4565b600060405180830381600087803b1580156102e157600080fd5b505af11580156102f5573d6000803e3d6000fd5b505050505061036a565b604051632142170760e11b81526001600160a01b0387811660048301528681166024830152604482018690528816906342842e0e90606401600060405180830381600087803b15801561035157600080fd5b505af1158015610365573d6000803e3d6000fd5b505050505b50505050505050565b80356001600160a01b038116811461038a57600080fd5b919050565b600080600080600060a086880312156103a757600080fd5b6103b086610373565b94506103be60208701610373565b93506103cc60408701610373565b94979396509394606081013594506080013592915050565b600080600080600080600060c0888a0312156103ff57600080fd5b61040888610373565b965061041660208901610373565b955061042460408901610373565b9450606088013593506080880135925060a088013567ffffffffffffffff8082111561044f57600080fd5b818a0191508a601f83011261046357600080fd5b81358181111561047257600080fd5b8b602082850101111561048457600080fd5b60208301945080935050505092959891949750929550565b7f4e487b7100000000000000000000000000000000000000000000000000000000600052604160045260246000fd5b60405160a0810167ffffffffffffffff811182821017156104ee576104ee61049c565b60405290565b600067ffffffffffffffff8084111561050f5761050f61049c565b604051601f8501601f19908116603f011681019082821181831017156105375761053761049c565b8160405280935085815286868601111561055057600080fd5b858560208301376000602087830101525050509392505050565b80356bffffffffffffffffffffffff8116811461038a57600080fd5b600082601f83011261059757600080fd5b6105a6838335602085016104f4565b9392505050565b6000602082840312156105bf57600080fd5b813567ffffffffffffffff808211156105d757600080fd5b9083019060a082860312156105eb57600080fd5b6105f36104cb565b8235815260208301358281111561060957600080fd5b8301601f8101871361061a57600080fd5b610629878235602084016104f4565b60208301525061063b60408401610373565b604082015261064c6060840161056a565b606082015260808301358281111561066357600080fd5b61066f87828601610586565b60808301525095945050505050565b6000815180845260005b818110156106a457602081850181015186830182015201610688565b506000602082860101526020601f19601f83011685010191505092915050565b60608152835160608201526000602085015160a060808401526106eb61010084018261067e565b60408701516001600160a01b0390811660a086015260608801516bffffffffffffffffffffffff1660c08601526080880151858303605f190160e0870152919250610736838361067e565b93508087166020860152808616604086015250505094935050505056fea264697066735822122067f71e96192315405224270fdc94863f63336775470790e11a51918c5cf4493a64736f6c63430008110033",
  "linkReferences": {},
  "deployedLinkReferences": {}
}