{
  "_format": "hh-sol-artifact-1",
  "contractName": "TokenDistributor",
  "sourceName": "src/fee/TokenDistributor.sol",
  "abi": [
    {
      "inputs": [
        {
          "internalType": "address",
          "name": "_looksRareToken",
          "type": "address"
        },
        {
          "internalType": "address",
          "name": "_tokenSplitter",
          "type": "address"
        },
        {
          "internalType": "uint256",
          "name": "_startBlock",
          "type": "uint256"
        },
        {
          "internalType": "uint256[]",
          "name": "_rewardsPerBlockForStaking",
          "type": "uint256[]"
        },
        {
          "internalType": "uint256[]",
          "name": "_rewardsPerBlockForOthers",
          "type": "uint256[]"
        },
        {
          "internalType": "uint256[]",
          "name": "_periodLengthesInBlocks",
          "type": "uint256[]"
        },
        {
          "internalType": "uint256",
          "name": "_numberPeriods",
          "type": "uint256"
        }
      ],
      "stateMutability": "nonpayable",
      "type": "constructor"
    },
    {
      "anonymous": false,
      "inputs": [
        {
          "indexed": true,
          "internalType": "address",
          "name": "user",
          "type": "address"
        },
        {
          "indexed": false,
          "internalType": "uint256",
          "name": "harvestedAmount",
          "type": "uint256"
        }
      ],
      "name": "Compound",
      "type": "event"
    },
    {
      "anonymous": false,
      "inputs": [
        {
          "indexed": true,
          "internalType": "address",
          "name": "user",
          "type": "address"
        },
        {
          "indexed": false,
          "internalType": "uint256",
          "name": "amount",
          "type": "uint256"
        },
        {
          "indexed": false,
          "internalType": "uint256",
          "name": "harvestedAmount",
          "type": "uint256"
        }
      ],
      "name": "Deposit",
      "type": "event"
    },
    {
      "anonymous": false,
      "inputs": [
        {
          "indexed": true,
          "internalType": "uint256",
          "name": "currentPhase",
          "type": "uint256"
        },
        {
          "indexed": false,
          "internalType": "uint256",
          "name": "startBlock",
          "type": "uint256"
        },
        {
          "indexed": false,
          "internalType": "uint256",
          "name": "rewardPerBlockForStaking",
          "type": "uint256"
        },
        {
          "indexed": false,
          "internalType": "uint256",
          "name": "rewardPerBlockForOthers",
          "type": "uint256"
        }
      ],
      "name": "NewRewardsPerBlock",
      "type": "event"
    },
    {
      "anonymous": false,
      "inputs": [
        {
          "indexed": true,
          "internalType": "address",
          "name": "user",
          "type": "address"
        },
        {
          "indexed": false,
          "internalType": "uint256",
          "name": "amount",
          "type": "uint256"
        },
        {
          "indexed": false,
          "internalType": "uint256",
          "name": "harvestedAmount",
          "type": "uint256"
        }
      ],
      "name": "Withdraw",
      "type": "event"
    },
    {
      "inputs": [],
      "name": "NUMBER_PERIODS",
      "outputs": [
        {
          "internalType": "uint256",
          "name": "",
          "type": "uint256"
        }
      ],
      "stateMutability": "view",
      "type": "function"
    },
    {
      "inputs": [],
      "name": "PRECISION_FACTOR",
      "outputs": [
        {
          "internalType": "uint256",
          "name": "",
          "type": "uint256"
        }
      ],
      "stateMutability": "view",
      "type": "function"
    },
    {
      "inputs": [],
      "name": "START_BLOCK",
      "outputs": [
        {
          "internalType": "uint256",
          "name": "",
          "type": "uint256"
        }
      ],
      "stateMutability": "view",
      "type": "function"
    },
    {
      "inputs": [],
      "name": "accTokenPerShare",
      "outputs": [
        {
          "internalType": "uint256",
          "name": "",
          "type": "uint256"
        }
      ],
      "stateMutability": "view",
      "type": "function"
    },
    {
      "inputs": [
        {
          "internalType": "address",
          "name": "user",
          "type": "address"
        }
      ],
      "name": "calculatePendingRewards",
      "outputs": [
        {
          "internalType": "uint256",
          "name": "",
          "type": "uint256"
        }
      ],
      "stateMutability": "view",
      "type": "function"
    },
    {
      "inputs": [],
      "name": "currentPhase",
      "outputs": [
        {
          "internalType": "uint256",
          "name": "",
          "type": "uint256"
        }
      ],
      "stateMutability": "view",
      "type": "function"
    },
    {
      "inputs": [
        {
          "internalType": "uint256",
          "name": "amount",
          "type": "uint256"
        }
      ],
      "name": "deposit",
      "outputs": [],
      "stateMutability": "nonpayable",
      "type": "function"
    },
    {
      "inputs": [],
      "name": "endBlock",
      "outputs": [
        {
          "internalType": "uint256",
          "name": "",
          "type": "uint256"
        }
      ],
      "stateMutability": "view",
      "type": "function"
    },
    {
      "inputs": [],
      "name": "harvestAndCompound",
      "outputs": [],
      "stateMutability": "nonpayable",
      "type": "function"
    },
    {
      "inputs": [],
      "name": "lastRewardBlock",
      "outputs": [
        {
          "internalType": "uint256",
          "name": "",
          "type": "uint256"
        }
      ],
      "stateMutability": "view",
      "type": "function"
    },
    {
      "inputs": [],
      "name": "looksRareToken",
      "outputs": [
        {
          "internalType": "contract ILooksRareToken",
          "name": "",
          "type": "address"
        }
      ],
      "stateMutability": "view",
      "type": "function"
    },
    {
      "inputs": [],
      "name": "rewardPerBlockForOthers",
      "outputs": [
        {
          "internalType": "uint256",
          "name": "",
          "type": "uint256"
        }
      ],
      "stateMutability": "view",
      "type": "function"
    },
    {
      "inputs": [],
      "name": "rewardPerBlockForStaking",
      "outputs": [
        {
          "internalType": "uint256",
          "name": "",
          "type": "uint256"
        }
      ],
      "stateMutability": "view",
      "type": "function"
    },
    {
      "inputs": [
        {
          "internalType": "uint256",
          "name": "",
          "type": "uint256"
        }
      ],
      "name": "stakingPeriod",
      "outputs": [
        {
          "internalType": "uint256",
          "name": "rewardPerBlockForStaking",
          "type": "uint256"
        },
        {
          "internalType": "uint256",
          "name": "rewardPerBlockForOthers",
          "type": "uint256"
        },
        {
          "internalType": "uint256",
          "name": "periodLengthInBlock",
          "type": "uint256"
        }
      ],
      "stateMutability": "view",
      "type": "function"
    },
    {
      "inputs": [],
      "name": "tokenSplitter",
      "outputs": [
        {
          "internalType": "address",
          "name": "",
          "type": "address"
        }
      ],
      "stateMutability": "view",
      "type": "function"
    },
    {
      "inputs": [],
      "name": "totalAmountStaked",
      "outputs": [
        {
          "internalType": "uint256",
          "name": "",
          "type": "uint256"
        }
      ],
      "stateMutability": "view",
      "type": "function"
    },
    {
      "inputs": [],
      "name": "updatePool",
      "outputs": [],
      "stateMutability": "nonpayable",
      "type": "function"
    },
    {
      "inputs": [
        {
          "internalType": "address",
          "name": "",
          "type": "address"
        }
      ],
      "name": "userInfo",
      "outputs": [
        {
          "internalType": "uint256",
          "name": "amount",
          "type": "uint256"
        },
        {
          "internalType": "uint256",
          "name": "rewardDebt",
          "type": "uint256"
        }
      ],
      "stateMutability": "view",
      "type": "function"
    },
    {
      "inputs": [
        {
          "internalType": "uint256",
          "name": "amount",
          "type": "uint256"
        }
      ],
      "name": "withdraw",
      "outputs": [],
      "stateMutability": "nonpayable",
      "type": "function"
    },
    {
      "inputs": [],
      "name": "withdrawAll",
      "outputs": [],
      "stateMutability": "nonpayable",
      "type": "function"
    }
  ],
  "bytecode": "0x6101006040523480156200001257600080fd5b5060405162001b1e38038062001b1e8339810160408190526200003591620004d7565b60016000558151811480156200004b5750808451145b8015620000585750808451145b620000c15760405162461bcd60e51b815260206004820152602e60248201527f4469737472696275746f723a204c656e6774686573206d757374206d6174636860448201526d206e756d626572506572696f647360901b60648201526084015b60405180910390fd5b6000876001600160a01b03166318160ddd6040518163ffffffff1660e01b8152600401602060405180830381865afa15801562000102573d6000803e3d6000fd5b505050506040513d601f19601f82011682018060405250810190620001289190620005a2565b886001600160a01b0316630cfccc836040518163ffffffff1660e01b8152600401602060405180830381865afa15801562000167573d6000803e3d6000fd5b505050506040513d601f19601f820116820180604052508101906200018d9190620005a2565b620001999190620005d2565b90506000805b83811015620002fd57848181518110620001bd57620001bd620005ee565b6020026020010151868281518110620001da57620001da620005ee565b6020026020010151620001ee919062000604565b858281518110620002035762000203620005ee565b6020026020010151888381518110620002205762000220620005ee565b602002602001015162000234919062000604565b6200024091906200061e565b6200024c90836200061e565b915060405180606001604052808883815181106200026e576200026e620005ee565b60200260200101518152602001878381518110620002905762000290620005ee565b60200260200101518152602001868381518110620002b257620002b2620005ee565b60209081029190910181015190915260008381526008825260409081902083518155918301516001830155919091015160029091015580620002f48162000634565b9150506200019f565b508181146200035b5760405162461bcd60e51b8152602060048201526024808201527f4469737472696275746f723a2057726f6e672072657761726420706172616d656044820152637465727360e01b6064820152608401620000b8565b6001600160a01b03808a16608052881660a05285518690600090620003845762000384620005ee565b602002602001015160068190555084600081518110620003a857620003a8620005ee565b60200260200101516005819055508660e0818152505083600081518110620003d457620003d4620005ee565b602002602001015187620003e991906200061e565b600355505060c05250505060045550620006509050565b80516001600160a01b03811681146200041857600080fd5b919050565b634e487b7160e01b600052604160045260246000fd5b600082601f8301126200044557600080fd5b815160206001600160401b03808311156200046457620004646200041d565b8260051b604051601f19603f830116810181811084821117156200048c576200048c6200041d565b604052938452858101830193838101925087851115620004ab57600080fd5b83870191505b84821015620004cc57815183529183019190830190620004b1565b979650505050505050565b600080600080600080600060e0888a031215620004f357600080fd5b620004fe8862000400565b96506200050e6020890162000400565b604089015160608a015191975095506001600160401b03808211156200053357600080fd5b620005418b838c0162000433565b955060808a01519150808211156200055857600080fd5b620005668b838c0162000433565b945060a08a01519150808211156200057d57600080fd5b506200058c8a828b0162000433565b92505060c0880151905092959891949750929550565b600060208284031215620005b557600080fd5b5051919050565b634e487b7160e01b600052601160045260246000fd5b81810381811115620005e857620005e8620005bc565b92915050565b634e487b7160e01b600052603260045260246000fd5b8082028115828204841417620005e857620005e8620005bc565b80820180821115620005e857620005e8620005bc565b600060018201620006495762000649620005bc565b5060010190565b60805160a05160c05160e05161145c620006c2600039600061024601526000818161026d015281816103b10152610c7a0152600081816102ae0152610e0f015260008181610207015281816107d00152818161094a01528181610a2d01528181610d4e0152610e3e015261145c6000f3fe608060405234801561001057600080fd5b506004361061016c5760003560e01c8063853828b6116100cd578063c1027c9811610081578063e3161ddd11610066578063e3161ddd14610342578063e683d96f1461034a578063fe961f611461035357600080fd5b8063c1027c98146102ec578063ccd34cd51461033657600080fd5b8063a46074c3116100b2578063a46074c3146102a9578063a9f8d181146102d0578063b6b55f25146102d957600080fd5b8063853828b6146102985780638f662915146102a057600080fd5b80632e1a7d4d1161012457806339b3e8261161010957806339b3e8261461024157806352bf348c146102685780635a9477e91461028f57600080fd5b80632e1a7d4d146101ef57806336db9fb21461020257600080fd5b8063097aad1011610155578063097aad10146101965780631959a002146101a95780632a4e051b146101e557600080fd5b8063055ad42e14610171578063083c63231461018d575b600080fd5b61017a60025481565b6040519081526020015b60405180910390f35b61017a60035481565b61017a6101a43660046112ba565b61035c565b6101d06101b73660046112ba565b6009602052600090815260409020805460019091015482565b60408051928352602083019190915201610184565b6101ed61052a565b005b6101ed6101fd3660046112ea565b610653565b6102297f000000000000000000000000000000000000000000000000000000000000000081565b6040516001600160a01b039091168152602001610184565b61017a7f000000000000000000000000000000000000000000000000000000000000000081565b61017a7f000000000000000000000000000000000000000000000000000000000000000081565b61017a60065481565b6101ed610841565b61017a60015481565b6102297f000000000000000000000000000000000000000000000000000000000000000081565b61017a60045481565b6101ed6102e73660046112ea565b6109c0565b61031b6102fa3660046112ea565b60086020526000908152604090208054600182015460029092015490919083565b60408051938452602084019290925290820152606001610184565b61017a64e8d4a5100081565b6101ed610b73565b61017a60055481565b61017a60075481565b600060045443118015610370575060075415155b156104db57600061038360045443610b83565b90506000600654826103959190611319565b600354600254919250905b81431180156103d857506103d560017f0000000000000000000000000000000000000000000000000000000000000000611330565b81105b1561045b57806103e781611343565b600081815260086020526040902080546002909101549193509150839061040e908261135c565b93506000844311156104315760008481526008602052604090206002015461043b565b61043b8243611330565b90506104478382611319565b610451908761135c565b95505050506103a0565b60075460009061047064e8d4a5100086611319565b61047a919061136f565b600154610487919061135c565b6001600160a01b0388166000908152600960205260409020600181015490549192509064e8d4a51000906104bc908490611319565b6104c6919061136f565b6104d09190611330565b979650505050505050565b6001600160a01b038216600090815260096020526040902060018082015490549154909164e8d4a51000916105109190611319565b61051a919061136f565b6105249190611330565b92915050565b610532610bbe565b61053a610c17565b33600090815260096020526040812060018082015490549154909164e8d4a51000916105669190611319565b610570919061136f565b61057a9190611330565b90508060000361058a5750610647565b33600090815260096020526040812080548392906105a990849061135c565b9250508190555080600760008282546105c2919061135c565b90915550506001543360009081526009602052604090205464e8d4a51000916105ea91611319565b6105f4919061136f565b33600081815260096020526040908190206001019290925590517f169f1815ebdea059aac3bb00ec9a9594c7a5ffcb64a17e8392b5d84909a145569061063d9084815260200190565b60405180910390a2505b6106516001600055565b565b61065b610bbe565b33600090815260096020526040902054811180159061067a5750600081115b6106f15760405162461bcd60e51b815260206004820152603760248201527f57697468647261773a20416d6f756e74206d757374206265203e2030206f722060448201527f6c6f776572207468616e20757365722062616c616e636500000000000000000060648201526084015b60405180910390fd5b6106f9610c17565b33600090815260096020526040812060018082015490549154909164e8d4a51000916107259190611319565b61072f919061136f565b6107399190611330565b33600090815260096020526040902054909150829061075990839061135c565b6107639190611330565b33600090815260096020526040902081905560015464e8d4a51000916107899190611319565b610793919061136f565b3360009081526009602052604090206001015560075482906107b690839061135c565b6107c09190611330565b6007556107f76001600160a01b037f0000000000000000000000000000000000000000000000000000000000000000163384610ec3565b604080518381526020810183905233917ff279e6a1f5e320cca91135676d9cb6e44ca8a08c0b88342bcdb1144f6511b56891015b60405180910390a25061083e6001600055565b50565b610849610bbe565b336000908152600960205260409020546108a55760405162461bcd60e51b815260206004820152601c60248201527f57697468647261773a20416d6f756e74206d757374206265203e20300000000060448201526064016106e8565b6108ad610c17565b33600090815260096020526040812060018082015490549154909164e8d4a51000916108d99190611319565b6108e3919061136f565b6108ed9190611330565b336000908152600960205260408120549192509061090c90839061135c565b3360009081526009602052604090205460075491925061092b91611330565b60075533600081815260096020526040812081815560010155610979907f00000000000000000000000000000000000000000000000000000000000000006001600160a01b03169083610ec3565b604080518281526020810184905233917ff279e6a1f5e320cca91135676d9cb6e44ca8a08c0b88342bcdb1144f6511b568910160405180910390a250506106516001600055565b6109c8610bbe565b60008111610a185760405162461bcd60e51b815260206004820152601b60248201527f4465706f7369743a20416d6f756e74206d757374206265203e2030000000000060448201526064016106e8565b610a20610c17565b610a556001600160a01b037f000000000000000000000000000000000000000000000000000000000000000016333084610f6c565b3360009081526009602052604081205415610aad5733600090815260096020526040902060018082015490549154909164e8d4a5100091610a969190611319565b610aa0919061136f565b610aaa9190611330565b90505b610ab7818361135c565b3360009081526009602052604081208054909190610ad690849061135c565b90915550506001543360009081526009602052604090205464e8d4a5100091610afe91611319565b610b08919061136f565b33600090815260096020526040902060010155610b25818361135c565b60076000828254610b36919061135c565b9091555050604080518381526020810183905233917f90890809c654f11d6e72a28fa60149770a0d11ec6c92319d6ceb2bb0a4ea1a15910161082b565b610b7b610bbe565b610647610c17565b60006003548211610b9f57610b988383611330565b9050610524565b6003548310610bb057506000610524565b82600354610b989190611330565b600260005403610c105760405162461bcd60e51b815260206004820152601f60248201527f5265656e7472616e637947756172643a207265656e7472616e742063616c6c0060448201526064016106e8565b6002600055565b6004544311610c2257565b600754600003610c325743600455565b6000610c4060045443610b83565b9050600060065482610c529190611319565b9050600060055483610c649190611319565b90505b60035443118015610ca35750610c9e60017f0000000000000000000000000000000000000000000000000000000000000000611330565b600254105b15610d2957610cb3600354610fc3565b6003805460028054600090815260086020526040812090910154919290610cda838561135c565b9091555060009050610cec8243610b83565b905060065481610cfc9190611319565b610d06908561135c565b935060055481610d169190611319565b610d20908461135c565b92505050610c67565b8115610eae576040516340c10f1960e01b8152306004820152602481018390526000907f00000000000000000000000000000000000000000000000000000000000000006001600160a01b0316906340c10f19906044016020604051808303816000875af1158015610d9f573d6000803e3d6000fd5b505050506040513d601f19601f82011682018060405250810190610dc39190611391565b90508015610df857600754610ddd64e8d4a5100085611319565b610de7919061136f565b600154610df4919061135c565b6001555b6040516340c10f1960e01b81526001600160a01b037f000000000000000000000000000000000000000000000000000000000000000081166004830152602482018490527f000000000000000000000000000000000000000000000000000000000000000016906340c10f19906044016020604051808303816000875af1158015610e87573d6000803e3d6000fd5b505050506040513d601f19601f82011682018060405250810190610eab9190611391565b50505b60035460045411610ebe57436004555b505050565b6040516001600160a01b038316602482015260448101829052610ebe9084907fa9059cbb00000000000000000000000000000000000000000000000000000000906064015b60408051601f198184030181529190526020810180517bffffffffffffffffffffffffffffffffffffffffffffffffffffffff167fffffffff000000000000000000000000000000000000000000000000000000009093169290921790915261103e565b6040516001600160a01b0380851660248301528316604482015260648101829052610fbd9085907f23b872dd0000000000000000000000000000000000000000000000000000000090608401610f08565b50505050565b60028054906000610fd383611343565b90915550506002546000818152600860209081526040918290208054600681905560019091015460058190558351868152928301919091528183015290517f40181eb77bccfdef1a73b669bb4290d98e2fbec678c7cf4578ae256210420e179181900360600190a250565b6000611093826040518060400160405280602081526020017f5361666545524332303a206c6f772d6c6576656c2063616c6c206661696c6564815250856001600160a01b03166111239092919063ffffffff16565b805190915015610ebe57808060200190518101906110b19190611391565b610ebe5760405162461bcd60e51b815260206004820152602a60248201527f5361666545524332303a204552433230206f7065726174696f6e20646964206e60448201527f6f7420737563636565640000000000000000000000000000000000000000000060648201526084016106e8565b6060611132848460008561113a565b949350505050565b6060824710156111b25760405162461bcd60e51b815260206004820152602660248201527f416464726573733a20696e73756666696369656e742062616c616e636520666f60448201527f722063616c6c000000000000000000000000000000000000000000000000000060648201526084016106e8565b600080866001600160a01b031685876040516111ce91906113d7565b60006040518083038185875af1925050503d806000811461120b576040519150601f19603f3d011682016040523d82523d6000602084013e611210565b606091505b50915091506104d0878383876060831561128b578251600003611284576001600160a01b0385163b6112845760405162461bcd60e51b815260206004820152601d60248201527f416464726573733a2063616c6c20746f206e6f6e2d636f6e747261637400000060448201526064016106e8565b5081611132565b61113283838151156112a05781518083602001fd5b8060405162461bcd60e51b81526004016106e891906113f3565b6000602082840312156112cc57600080fd5b81356001600160a01b03811681146112e357600080fd5b9392505050565b6000602082840312156112fc57600080fd5b5035919050565b634e487b7160e01b600052601160045260246000fd5b808202811582820484141761052457610524611303565b8181038181111561052457610524611303565b60006001820161135557611355611303565b5060010190565b8082018082111561052457610524611303565b60008261138c57634e487b7160e01b600052601260045260246000fd5b500490565b6000602082840312156113a357600080fd5b815180151581146112e357600080fd5b60005b838110156113ce5781810151838201526020016113b6565b50506000910152565b600082516113e98184602087016113b3565b9190910192915050565b60208152600082518060208401526114128160408501602087016113b3565b601f01601f1916919091016040019291505056fea2646970667358221220e645cf68c386faab42641b2449c14c479a39a2a95ecb706ad19130d560cfaee064736f6c63430008110033",
  "linkReferences": {},
  "deployedLinkReferences": {}
}