{
  "_format": "hh-sol-artifact-1",
  "contractName": "MultiRewardsDistributor",
  "sourceName": "src/MultiRewardsDistributor.sol",
  "abi": [
    {
      "inputs": [
        {
          "internalType": "address",
          "name": "_looksRareToken",
          "type": "address"
        }
      ],
      "stateMutability": "nonpayable",
      "type": "constructor"
    },
    {
      "anonymous": false,
      "inputs": [
        {
          "indexed": false,
          "internalType": "address",
          "name": "user",
          "type": "address"
        },
        {
          "indexed": false,
          "internalType": "uint256",
          "name": "rewardRound",
          "type": "uint256"
        },
        {
          "indexed": false,
          "internalType": "uint256",
          "name": "totalAmount",
          "type": "uint256"
        },
        {
          "indexed": false,
          "internalType": "uint8[]",
          "name": "treeIds",
          "type": "uint8[]"
        },
        {
          "indexed": false,
          "internalType": "uint256[]",
          "name": "amounts",
          "type": "uint256[]"
        }
      ],
      "name": "Claim",
      "type": "event"
    },
    {
      "anonymous": false,
      "inputs": [
        {
          "indexed": false,
          "internalType": "uint8",
          "name": "treeId",
          "type": "uint8"
        }
      ],
      "name": "NewTree",
      "type": "event"
    },
    {
      "anonymous": false,
      "inputs": [
        {
          "indexed": true,
          "internalType": "address",
          "name": "previousOwner",
          "type": "address"
        },
        {
          "indexed": true,
          "internalType": "address",
          "name": "newOwner",
          "type": "address"
        }
      ],
      "name": "OwnershipTransferred",
      "type": "event"
    },
    {
      "anonymous": false,
      "inputs": [
        {
          "indexed": false,
          "internalType": "address",
          "name": "account",
          "type": "address"
        }
      ],
      "name": "Paused",
      "type": "event"
    },
    {
      "anonymous": false,
      "inputs": [
        {
          "indexed": false,
          "internalType": "uint256",
          "name": "amount",
          "type": "uint256"
        }
      ],
      "name": "TokenWithdrawnOwner",
      "type": "event"
    },
    {
      "anonymous": false,
      "inputs": [
        {
          "indexed": false,
          "internalType": "address",
          "name": "account",
          "type": "address"
        }
      ],
      "name": "Unpaused",
      "type": "event"
    },
    {
      "anonymous": false,
      "inputs": [
        {
          "indexed": true,
          "internalType": "uint256",
          "name": "rewardRound",
          "type": "uint256"
        }
      ],
      "name": "UpdateTradingRewards",
      "type": "event"
    },
    {
      "inputs": [],
      "name": "BUFFER_ADMIN_WITHDRAW",
      "outputs": [
        {
          "internalType": "uint256",
          "name": "",
          "type": "uint256"
        }
      ],
      "stateMutability": "view",
      "type": "function"
    },
    {
      "inputs": [],
      "name": "SAFE_GUARD_AMOUNT",
      "outputs": [
        {
          "internalType": "uint256",
          "name": "",
          "type": "uint256"
        }
      ],
      "stateMutability": "view",
      "type": "function"
    },
    {
      "inputs": [
        {
          "internalType": "address",
          "name": "safeGuard",
          "type": "address"
        }
      ],
      "name": "addNewTree",
      "outputs": [],
      "stateMutability": "nonpayable",
      "type": "function"
    },
    {
      "inputs": [
        {
          "internalType": "address",
          "name": "",
          "type": "address"
        },
        {
          "internalType": "uint8",
          "name": "",
          "type": "uint8"
        }
      ],
      "name": "amountClaimedByUserPerTreeId",
      "outputs": [
        {
          "internalType": "uint256",
          "name": "",
          "type": "uint256"
        }
      ],
      "stateMutability": "view",
      "type": "function"
    },
    {
      "inputs": [
        {
          "internalType": "address",
          "name": "user",
          "type": "address"
        },
        {
          "internalType": "uint8[]",
          "name": "treeIds",
          "type": "uint8[]"
        },
        {
          "internalType": "uint256[]",
          "name": "amounts",
          "type": "uint256[]"
        },
        {
          "internalType": "bytes32[][]",
          "name": "merkleProofs",
          "type": "bytes32[][]"
        }
      ],
      "name": "canClaim",
      "outputs": [
        {
          "internalType": "bool[]",
          "name": "",
          "type": "bool[]"
        },
        {
          "internalType": "uint256[]",
          "name": "",
          "type": "uint256[]"
        }
      ],
      "stateMutability": "view",
      "type": "function"
    },
    {
      "inputs": [
        {
          "internalType": "uint8[]",
          "name": "treeIds",
          "type": "uint8[]"
        },
        {
          "internalType": "uint256[]",
          "name": "amounts",
          "type": "uint256[]"
        },
        {
          "internalType": "bytes32[][]",
          "name": "merkleProofs",
          "type": "bytes32[][]"
        }
      ],
      "name": "claim",
      "outputs": [],
      "stateMutability": "nonpayable",
      "type": "function"
    },
    {
      "inputs": [],
      "name": "currentRewardRound",
      "outputs": [
        {
          "internalType": "uint256",
          "name": "",
          "type": "uint256"
        }
      ],
      "stateMutability": "view",
      "type": "function"
    },
    {
      "inputs": [],
      "name": "lastPausedTimestamp",
      "outputs": [
        {
          "internalType": "uint256",
          "name": "",
          "type": "uint256"
        }
      ],
      "stateMutability": "view",
      "type": "function"
    },
    {
      "inputs": [],
      "name": "looksRareToken",
      "outputs": [
        {
          "internalType": "contract IERC20",
          "name": "",
          "type": "address"
        }
      ],
      "stateMutability": "view",
      "type": "function"
    },
    {
      "inputs": [
        {
          "internalType": "bytes32",
          "name": "",
          "type": "bytes32"
        }
      ],
      "name": "merkleRootUsed",
      "outputs": [
        {
          "internalType": "bool",
          "name": "",
          "type": "bool"
        }
      ],
      "stateMutability": "view",
      "type": "function"
    },
    {
      "inputs": [],
      "name": "numberTrees",
      "outputs": [
        {
          "internalType": "uint8",
          "name": "",
          "type": "uint8"
        }
      ],
      "stateMutability": "view",
      "type": "function"
    },
    {
      "inputs": [],
      "name": "owner",
      "outputs": [
        {
          "internalType": "address",
          "name": "",
          "type": "address"
        }
      ],
      "stateMutability": "view",
      "type": "function"
    },
    {
      "inputs": [],
      "name": "pauseDistribution",
      "outputs": [],
      "stateMutability": "nonpayable",
      "type": "function"
    },
    {
      "inputs": [],
      "name": "paused",
      "outputs": [
        {
          "internalType": "bool",
          "name": "",
          "type": "bool"
        }
      ],
      "stateMutability": "view",
      "type": "function"
    },
    {
      "inputs": [],
      "name": "renounceOwnership",
      "outputs": [],
      "stateMutability": "nonpayable",
      "type": "function"
    },
    {
      "inputs": [
        {
          "internalType": "address",
          "name": "",
          "type": "address"
        }
      ],
      "name": "safeGuardUsed",
      "outputs": [
        {
          "internalType": "bool",
          "name": "",
          "type": "bool"
        }
      ],
      "stateMutability": "view",
      "type": "function"
    },
    {
      "inputs": [
        {
          "internalType": "address",
          "name": "newOwner",
          "type": "address"
        }
      ],
      "name": "transferOwnership",
      "outputs": [],
      "stateMutability": "nonpayable",
      "type": "function"
    },
    {
      "inputs": [
        {
          "internalType": "uint8",
          "name": "",
          "type": "uint8"
        }
      ],
      "name": "treeParameters",
      "outputs": [
        {
          "internalType": "address",
          "name": "safeGuard",
          "type": "address"
        },
        {
          "internalType": "bytes32",
          "name": "merkleRoot",
          "type": "bytes32"
        },
        {
          "internalType": "uint256",
          "name": "maxAmountPerUserInCurrentTree",
          "type": "uint256"
        }
      ],
      "stateMutability": "view",
      "type": "function"
    },
    {
      "inputs": [],
      "name": "unpauseDistribution",
      "outputs": [],
      "stateMutability": "nonpayable",
      "type": "function"
    },
    {
      "inputs": [
        {
          "internalType": "uint8[]",
          "name": "treeIds",
          "type": "uint8[]"
        },
        {
          "internalType": "bytes32[]",
          "name": "merkleRoots",
          "type": "bytes32[]"
        },
        {
          "internalType": "uint256[]",
          "name": "maxAmountsPerUser",
          "type": "uint256[]"
        },
        {
          "internalType": "bytes32[][]",
          "name": "merkleProofsSafeGuards",
          "type": "bytes32[][]"
        }
      ],
      "name": "updateTradingRewards",
      "outputs": [],
      "stateMutability": "nonpayable",
      "type": "function"
    },
    {
      "inputs": [
        {
          "internalType": "uint256",
          "name": "amount",
          "type": "uint256"
        }
      ],
      "name": "withdrawTokenRewards",
      "outputs": [],
      "stateMutability": "nonpayable",
      "type": "function"
    }
  ],
  "bytecode": "0x60a06040523480156200001157600080fd5b5060405162001ec538038062001ec5833981016040819052620000349162000167565b6000805460ff19169055600180556200004d336200006b565b6001600160a01b03811660805262000064620000bd565b5062000199565b600280546001600160a01b038381166001600160a01b0319831681179093556040519116919082907f8be0079c531659141344cd1fd0a4f28419497f9722a3daafe3b4186f6b6457e090600090a35050565b620000c76200011a565b6000805460ff191660011790557f62e78cea01bee320cd4e420270b5ea74000d11b0c9f74754ebdbfc544b05a258620000fd3390565b6040516001600160a01b03909116815260200160405180910390a1565b60005460ff1615620001655760405162461bcd60e51b815260206004820152601060248201526f14185d5cd8589b194e881c185d5cd95960821b604482015260640160405180910390fd5b565b6000602082840312156200017a57600080fd5b81516001600160a01b03811681146200019257600080fd5b9392505050565b608051611d02620001c360003960008181610236015281816107710152610b820152611d026000f3fe608060405234801561001057600080fd5b50600436106101775760003560e01c80637663d437116100d8578063ba42590d1161008c578063da0195ec11610066578063da0195ec14610381578063f2fde38b14610394578063fa461974146103a757600080fd5b8063ba42590d1461033c578063c6760f6b1461035f578063d0e1f97f1461037257600080fd5b80638da5cb5b116100bd5780638da5cb5b14610300578063a95c56f514610311578063b94ec9d01461033457600080fd5b80637663d4371461028f5780638923e2f7146102ed57600080fd5b806331cec7a31161012f57806336db9fb21161011457806336db9fb2146102315780635c975abb14610270578063715018a61461028757600080fd5b806331cec7a3146102145780633488fca21461021e57600080fd5b80631040faf9116101605780631040faf9146101db578063141fd8c8146101e4578063249c8f5e146101ee57600080fd5b80630401ff481461017c578063070e44ce146101ba575b600080fd5b6101a761018a366004611764565b600660209081526000928352604080842090915290825290205481565b6040519081526020015b60405180910390f35b6101cd6101c83660046117e3565b6103b0565b6040516101b19291906118c9565b6101a760035481565b6101a76203f48081565b60025461020290600160a01b900460ff1681565b60405160ff90911681526020016101b1565b61021c610581565b005b61021c61022c366004611922565b61059f565b6102587f000000000000000000000000000000000000000000000000000000000000000081565b6040516001600160a01b0390911681526020016101b1565b60005460ff165b60405190151581526020016101b1565b61021c6106e3565b6102c861029d36600461193d565b6005602052600090815260409020805460018201546002909201546001600160a01b03909116919083565b604080516001600160a01b0390941684526020840192909252908201526060016101b1565b61021c6102fb366004611958565b6106f5565b6002546001600160a01b0316610258565b61027761031f366004611922565b60076020526000908152604090205460ff1681565b61021c6107c8565b61027761034a366004611958565b60086020526000908152604090205460ff1681565b61021c61036d366004611971565b6107e0565b6101a7670de0b6b3a764000081565b61021c61038f366004611a0b565b610bff565b61021c6103a2366004611922565b610fbe565b6101a760045481565b60608060008567ffffffffffffffff8111156103ce576103ce611acf565b6040519080825280602002602001820160405280156103f7578160200160208202803683370190505b50905060008667ffffffffffffffff81111561041557610415611acf565b60405190808252806020026020018201604052801561043e578160200160208202803683370190505b50905088871415806104505750888514155b80610459575088155b15610468579092509050610575565b60005b8981101561056e57600254600160a01b900460ff168b8b8381811061049257610492611ae5565b90506020020160208101906104a7919061193d565b60ff16101561055c5761051d8c8c8c848181106104c6576104c6611ae5565b90506020020160208101906104db919061193d565b8b8b858181106104ed576104ed611ae5565b905060200201358a8a8681811061050657610506611ae5565b90506020028101906105189190611afb565b61104e565b84838151811061052f5761052f611ae5565b6020026020010184848151811061054857610548611ae5565b602090810291909101019190915290151590525b8061056681611b5b565b91505061046b565b5090925090505b97509795505050505050565b610589611145565b61059161119f565b4260045561059d6111f2565b565b6105a7611145565b6001600160a01b03811660009081526007602052604090205460ff16156106155760405162461bcd60e51b815260206004820152601e60248201527f4f776e65723a205361666520677561726420616c72656164792075736564000060448201526064015b60405180910390fd5b6001600160a01b0381166000818152600760209081526040808320805460ff1916600117905560028054600160a01b9081900460ff9081168652600590945291909320805473ffffffffffffffffffffffffffffffffffffffff191690941790935581547f0cc7daa76db4972d6a17fb9d6aab3dc31eacbe5c2d577977f4cbe162f077c0b1939004169060146106aa83611b74565b91906101000a81548160ff021916908360ff1602179055506040516106d8919060ff91909116815260200190565b60405180910390a150565b6106eb611145565b61059d600061124c565b6106fd611145565b6107056112ab565b6203f4806004546107169190611b93565b42116107645760405162461bcd60e51b815260206004820152601c60248201527f4f776e65723a20546f6f206561726c7920746f20776974686472617700000000604482015260640161060c565b6107986001600160a01b037f00000000000000000000000000000000000000000000000000000000000000001633836112fd565b6040518181527fb4cd5c4a08bbed33abfe773ece179d156730e39629e065b7dcd8263027387c1d906020016106d8565b6107d0611145565b6107d86112ab565b61059d611382565b6107e861119f565b6107f06113bb565b84158015906107fe57508483145b801561080957508085145b6108555760405162461bcd60e51b815260206004820152601660248201527f526577617264733a2057726f6e67206c656e6774687300000000000000000000604482015260640161060c565b6000808467ffffffffffffffff81111561087157610871611acf565b60405190808252806020026020018201604052801561089a578160200160208202803683370190505b50905060005b87811015610b7457600254600160a01b900460ff168989838181106108c7576108c7611ae5565b90506020020160208101906108dc919061193d565b60ff161061092c5760405162461bcd60e51b815260206004820152601960248201527f526577617264733a2054726565206e6f6e6578697374656e7400000000000000604482015260640161060c565b600080610985338c8c8681811061094557610945611ae5565b905060200201602081019061095a919061193d565b8b8b8781811061096c5761096c611ae5565b905060200201358a8a8881811061050657610506611ae5565b91509150816109d65760405162461bcd60e51b815260206004820152601660248201527f526577617264733a20496e76616c69642070726f6f6600000000000000000000604482015260640161060c565b60008111610a265760405162461bcd60e51b815260206004820152601860248201527f526577617264733a20416c726561647920636c61696d65640000000000000000604482015260640161060c565b600560008c8c86818110610a3c57610a3c611ae5565b9050602002016020810190610a51919061193d565b60ff1660ff16815260200190815260200160002060020154898985818110610a7b57610a7b611ae5565b905060200201351115610ad05760405162461bcd60e51b815260206004820152601f60248201527f526577617264733a20416d6f756e7420686967686572207468616e206d617800604482015260640161060c565b610ada8186611b93565b3360009081526006602052604081209196508291908d8d87818110610b0157610b01611ae5565b9050602002016020810190610b16919061193d565b60ff1660ff1681526020019081526020016000206000828254610b399190611b93565b9250508190555080848481518110610b5357610b53611ae5565b60200260200101818152505050508080610b6c90611b5b565b9150506108a0565b50610ba96001600160a01b037f00000000000000000000000000000000000000000000000000000000000000001633846112fd565b7f1bb61a7c0e8fe6922242f2a1fb97851dd40ebfa837ab768260708c3cbc1f860133600354848b8b86604051610be496959493929190611ba6565b60405180910390a15050610bf760018055565b505050505050565b610c07611145565b8615801590610c1557508685145b8015610c2057508683145b8015610c2b57508681145b610c775760405162461bcd60e51b815260206004820152601460248201527f4f776e65723a2057726f6e67206c656e67746873000000000000000000000000604482015260640161060c565b60005b85811015610f7657600254600160a01b900460ff16898983818110610ca157610ca1611ae5565b9050602002016020810190610cb6919061193d565b60ff1610610d065760405162461bcd60e51b815260206004820152601760248201527f4f776e65723a2054726565206e6f6e6578697374656e74000000000000000000604482015260640161060c565b60086000888884818110610d1c57610d1c611ae5565b602090810292909201358352508101919091526040016000205460ff1615610d865760405162461bcd60e51b815260206004820152601f60248201527f4f776e65723a204d65726b6c6520726f6f7420616c7265616479207573656400604482015260640161060c565b868682818110610d9857610d98611ae5565b90506020020135600560008b8b85818110610db557610db5611ae5565b9050602002016020810190610dca919061193d565b60ff168152602081019190915260400160002060010155848482818110610df357610df3611ae5565b90506020020135600560008b8b85818110610e1057610e10611ae5565b9050602002016020810190610e25919061193d565b60ff1660ff16815260200190815260200160002060020181905550600160086000898985818110610e5857610e58611ae5565b90506020020135815260200190815260200160002060006101000a81548160ff0219169083151502179055506000610f13600560008c8c86818110610e9f57610e9f611ae5565b9050602002016020810190610eb4919061193d565b60ff1681526020810191909152604001600020546001600160a01b03168b8b85818110610ee357610ee3611ae5565b9050602002016020810190610ef8919061193d565b670de0b6b3a764000087878781811061050657610506611ae5565b50905080610f635760405162461bcd60e51b815260206004820152601e60248201527f4f776e65723a2057726f6e6720736166652067756172642070726f6f66730000604482015260640161060c565b5080610f6e81611b5b565b915050610c7a565b50600360008154610f8690611b5b565b91829055506040517f0b1d6b49e69d133866d064a73f0181e1e35aa94fde3ef0095587d7ebd0423caa90600090a25050505050505050565b610fc6611145565b6001600160a01b0381166110425760405162461bcd60e51b815260206004820152602660248201527f4f776e61626c653a206e6577206f776e657220697320746865207a65726f206160448201527f6464726573730000000000000000000000000000000000000000000000000000606482015260840161060c565b61104b8161124c565b50565b6040516bffffffffffffffffffffffff19606087901b166020820152603481018490526000908190819060540160405160208183030381529060405280519060200120905060006110e6868680806020026020016040519081016040528093929190818152602001838360200280828437600092018290525060ff8e1681526005602052604090206001015492508691506114149050565b9050806110fb5760008093509350505061113b565b6001600160a01b038916600090815260066020908152604080832060ff8c16845290915281205461112c9089611c24565b60019550935061113b92505050565b9550959350505050565b6002546001600160a01b0316331461059d5760405162461bcd60e51b815260206004820181905260248201527f4f776e61626c653a2063616c6c6572206973206e6f7420746865206f776e6572604482015260640161060c565b60005460ff161561059d5760405162461bcd60e51b815260206004820152601060248201527f5061757361626c653a2070617573656400000000000000000000000000000000604482015260640161060c565b6111fa61119f565b6000805460ff191660011790557f62e78cea01bee320cd4e420270b5ea74000d11b0c9f74754ebdbfc544b05a25861122f3390565b6040516001600160a01b03909116815260200160405180910390a1565b600280546001600160a01b0383811673ffffffffffffffffffffffffffffffffffffffff19831681179093556040519116919082907f8be0079c531659141344cd1fd0a4f28419497f9722a3daafe3b4186f6b6457e090600090a35050565b60005460ff1661059d5760405162461bcd60e51b815260206004820152601460248201527f5061757361626c653a206e6f7420706175736564000000000000000000000000604482015260640161060c565b604080516001600160a01b038416602482015260448082018490528251808303909101815260649091019091526020810180517bffffffffffffffffffffffffffffffffffffffffffffffffffffffff167fa9059cbb0000000000000000000000000000000000000000000000000000000017905261137d90849061142a565b505050565b61138a6112ab565b6000805460ff191690557f5db9ee0a495bf2e6ff9c91a7834c1ba4fdd244a5e8aa4e537bd38aeae4b073aa3361122f565b60026001540361140d5760405162461bcd60e51b815260206004820152601f60248201527f5265656e7472616e637947756172643a207265656e7472616e742063616c6c00604482015260640161060c565b6002600155565b600082611421858461150f565b14949350505050565b600061147f826040518060400160405280602081526020017f5361666545524332303a206c6f772d6c6576656c2063616c6c206661696c6564815250856001600160a01b031661155e9092919063ffffffff16565b80519091501561137d578080602001905181019061149d9190611c37565b61137d5760405162461bcd60e51b815260206004820152602a60248201527f5361666545524332303a204552433230206f7065726174696f6e20646964206e60448201527f6f74207375636365656400000000000000000000000000000000000000000000606482015260840161060c565b600081815b8451811015611554576115408286838151811061153357611533611ae5565b6020026020010151611575565b91508061154c81611b5b565b915050611514565b5090505b92915050565b606061156d84846000856115a7565b949350505050565b60008183106115915760008281526020849052604090206115a0565b60008381526020839052604090205b9392505050565b60608247101561161f5760405162461bcd60e51b815260206004820152602660248201527f416464726573733a20696e73756666696369656e742062616c616e636520666f60448201527f722063616c6c0000000000000000000000000000000000000000000000000000606482015260840161060c565b600080866001600160a01b0316858760405161163b9190611c7d565b60006040518083038185875af1925050503d8060008114611678576040519150601f19603f3d011682016040523d82523d6000602084013e61167d565b606091505b509150915061168e87838387611699565b979650505050505050565b60608315611708578251600003611701576001600160a01b0385163b6117015760405162461bcd60e51b815260206004820152601d60248201527f416464726573733a2063616c6c20746f206e6f6e2d636f6e7472616374000000604482015260640161060c565b508161156d565b61156d838381511561171d5781518083602001fd5b8060405162461bcd60e51b815260040161060c9190611c99565b80356001600160a01b038116811461174e57600080fd5b919050565b803560ff8116811461174e57600080fd5b6000806040838503121561177757600080fd5b61178083611737565b915061178e60208401611753565b90509250929050565b60008083601f8401126117a957600080fd5b50813567ffffffffffffffff8111156117c157600080fd5b6020830191508360208260051b85010111156117dc57600080fd5b9250929050565b60008060008060008060006080888a0312156117fe57600080fd5b61180788611737565b9650602088013567ffffffffffffffff8082111561182457600080fd5b6118308b838c01611797565b909850965060408a013591508082111561184957600080fd5b6118558b838c01611797565b909650945060608a013591508082111561186e57600080fd5b5061187b8a828b01611797565b989b979a50959850939692959293505050565b600081518084526020808501945080840160005b838110156118be578151875295820195908201906001016118a2565b509495945050505050565b604080825283519082018190526000906020906060840190828701845b828110156119045781511515845292840192908401906001016118e6565b50505083810382850152611918818661188e565b9695505050505050565b60006020828403121561193457600080fd5b6115a082611737565b60006020828403121561194f57600080fd5b6115a082611753565b60006020828403121561196a57600080fd5b5035919050565b6000806000806000806060878903121561198a57600080fd5b863567ffffffffffffffff808211156119a257600080fd5b6119ae8a838b01611797565b909850965060208901359150808211156119c757600080fd5b6119d38a838b01611797565b909650945060408901359150808211156119ec57600080fd5b506119f989828a01611797565b979a9699509497509295939492505050565b6000806000806000806000806080898b031215611a2757600080fd5b883567ffffffffffffffff80821115611a3f57600080fd5b611a4b8c838d01611797565b909a50985060208b0135915080821115611a6457600080fd5b611a708c838d01611797565b909850965060408b0135915080821115611a8957600080fd5b611a958c838d01611797565b909650945060608b0135915080821115611aae57600080fd5b50611abb8b828c01611797565b999c989b5096995094979396929594505050565b634e487b7160e01b600052604160045260246000fd5b634e487b7160e01b600052603260045260246000fd5b6000808335601e19843603018112611b1257600080fd5b83018035915067ffffffffffffffff821115611b2d57600080fd5b6020019150600581901b36038213156117dc57600080fd5b634e487b7160e01b600052601160045260246000fd5b600060018201611b6d57611b6d611b45565b5060010190565b600060ff821660ff8103611b8a57611b8a611b45565b60010192915050565b8082018082111561155857611558611b45565b600060a082016001600160a01b03891683526020888185015287604085015260a060608501528186835260c08501905087925060005b87811015611c025760ff611bef85611753565b1682529282019290820190600101611bdc565b508481036080860152611c15818761188e565b9b9a5050505050505050505050565b8181038181111561155857611558611b45565b600060208284031215611c4957600080fd5b815180151581146115a057600080fd5b60005b83811015611c74578181015183820152602001611c5c565b50506000910152565b60008251611c8f818460208701611c59565b9190910192915050565b6020815260008251806020840152611cb8816040850160208701611c59565b601f01601f1916919091016040019291505056fea26469706673582212206b9af04d2e767946e723050d48c6ac1150737e2a68508f7ad5a0e3e60d241bca64736f6c63430008110033",
  "linkReferences": {},
  "deployedLinkReferences": {}
}