{
  "_format": "hh-sol-artifact-1",
  "contractName": "RoyaltyFeeSetter",
  "sourceName": "src/fee/RoyaltyFeeSetter.sol",
  "abi": [
    {
      "inputs": [
        {
          "internalType": "address",
          "name": "_royaltyFeeRegistry",
          "type": "address"
        }
      ],
      "stateMutability": "nonpayable",
      "type": "constructor"
    },
    {
      "anonymous": false,
      "inputs": [
        {
          "indexed": true,
          "internalType": "address",
          "name": "previousOwner",
          "type": "address"
        },
        {
          "indexed": true,
          "internalType": "address",
          "name": "newOwner",
          "type": "address"
        }
      ],
      "name": "OwnershipTransferred",
      "type": "event"
    },
    {
      "inputs": [],
      "name": "INTERFACE_ID_ERC1155",
      "outputs": [
        {
          "internalType": "bytes4",
          "name": "",
          "type": "bytes4"
        }
      ],
      "stateMutability": "view",
      "type": "function"
    },
    {
      "inputs": [],
      "name": "INTERFACE_ID_ERC2981",
      "outputs": [
        {
          "internalType": "bytes4",
          "name": "",
          "type": "bytes4"
        }
      ],
      "stateMutability": "view",
      "type": "function"
    },
    {
      "inputs": [],
      "name": "INTERFACE_ID_ERC721",
      "outputs": [
        {
          "internalType": "bytes4",
          "name": "",
          "type": "bytes4"
        }
      ],
      "stateMutability": "view",
      "type": "function"
    },
    {
      "inputs": [
        {
          "internalType": "address",
          "name": "collection",
          "type": "address"
        }
      ],
      "name": "checkForCollectionSetter",
      "outputs": [
        {
          "internalType": "address",
          "name": "",
          "type": "address"
        },
        {
          "internalType": "uint8",
          "name": "",
          "type": "uint8"
        }
      ],
      "stateMutability": "view",
      "type": "function"
    },
    {
      "inputs": [],
      "name": "owner",
      "outputs": [
        {
          "internalType": "address",
          "name": "",
          "type": "address"
        }
      ],
      "stateMutability": "view",
      "type": "function"
    },
    {
      "inputs": [],
      "name": "renounceOwnership",
      "outputs": [],
      "stateMutability": "nonpayable",
      "type": "function"
    },
    {
      "inputs": [],
      "name": "royaltyFeeRegistry",
      "outputs": [
        {
          "internalType": "address",
          "name": "",
          "type": "address"
        }
      ],
      "stateMutability": "view",
      "type": "function"
    },
    {
      "inputs": [
        {
          "internalType": "address",
          "name": "newOwner",
          "type": "address"
        }
      ],
      "name": "transferOwnership",
      "outputs": [],
      "stateMutability": "nonpayable",
      "type": "function"
    },
    {
      "inputs": [
        {
          "internalType": "address",
          "name": "_owner",
          "type": "address"
        }
      ],
      "name": "updateOwnerOfRoyaltyFeeRegistry",
      "outputs": [],
      "stateMutability": "nonpayable",
      "type": "function"
    },
    {
      "inputs": [
        {
          "internalType": "uint256",
          "name": "_royaltyFeeLimit",
          "type": "uint256"
        }
      ],
      "name": "updateRoyaltyFeeLimit",
      "outputs": [],
      "stateMutability": "nonpayable",
      "type": "function"
    },
    {
      "inputs": [
        {
          "internalType": "address",
          "name": "collection",
          "type": "address"
        },
        {
          "internalType": "address",
          "name": "setter",
          "type": "address"
        },
        {
          "internalType": "address",
          "name": "receiver",
          "type": "address"
        },
        {
          "internalType": "uint256",
          "name": "fee",
          "type": "uint256"
        }
      ],
      "name": "updateRoyaltyInfoForCollection",
      "outputs": [],
      "stateMutability": "nonpayable",
      "type": "function"
    },
    {
      "inputs": [
        {
          "internalType": "address",
          "name": "collection",
          "type": "address"
        },
        {
          "internalType": "address",
          "name": "setter",
          "type": "address"
        },
        {
          "internalType": "address",
          "name": "receiver",
          "type": "address"
        },
        {
          "internalType": "uint256",
          "name": "fee",
          "type": "uint256"
        }
      ],
      "name": "updateRoyaltyInfoForCollectionIfAdmin",
      "outputs": [],
      "stateMutability": "nonpayable",
      "type": "function"
    },
    {
      "inputs": [
        {
          "internalType": "address",
          "name": "collection",
          "type": "address"
        },
        {
          "internalType": "address",
          "name": "setter",
          "type": "address"
        },
        {
          "internalType": "address",
          "name": "receiver",
          "type": "address"
        },
        {
          "internalType": "uint256",
          "name": "fee",
          "type": "uint256"
        }
      ],
      "name": "updateRoyaltyInfoForCollectionIfOwner",
      "outputs": [],
      "stateMutability": "nonpayable",
      "type": "function"
    },
    {
      "inputs": [
        {
          "internalType": "address",
          "name": "collection",
          "type": "address"
        },
        {
          "internalType": "address",
          "name": "setter",
          "type": "address"
        },
        {
          "internalType": "address",
          "name": "receiver",
          "type": "address"
        },
        {
          "internalType": "uint256",
          "name": "fee",
          "type": "uint256"
        }
      ],
      "name": "updateRoyaltyInfoForCollectionIfSetter",
      "outputs": [],
      "stateMutability": "nonpayable",
      "type": "function"
    }
  ],
  "bytecode": "0x60a060405234801561001057600080fd5b506040516110a73803806110a783398101604081905261002f91610099565b61003833610049565b6001600160a01b03166080526100c9565b600080546001600160a01b038381166001600160a01b0319831681178455604051919092169283917f8be0079c531659141344cd1fd0a4f28419497f9722a3daafe3b4186f6b6457e09190a35050565b6000602082840312156100ab57600080fd5b81516001600160a01b03811681146100c257600080fd5b9392505050565b608051610f92610115600039600081816101e2015281816102800152818161038501528181610741015281816107e70152818161086f01528181610a9b0152610b7c0152610f926000f3fe608060405234801561001057600080fd5b50600436106100ea5760003560e01c8063b9223c9d1161008c578063c16f515611610066578063c16f5156146101dd578063c54e549714610204578063e72ba45614610238578063f2fde38b1461024b57600080fd5b8063b9223c9d146101a9578063bbdf9b68146101bc578063bc6bc0cd146101cf57600080fd5b8063715018a6116100c8578063715018a61461015b5780638da5cb5b14610163578063ab01667014610188578063b060dd861461019b57600080fd5b8063275da5ef146100ef57806333bf6156146101045780633755fa8014610148575b600080fd5b6101026100fd366004610e4c565b61025e565b005b610112636cdb3d1360e11b81565b6040517fffffffff0000000000000000000000000000000000000000000000000000000090911681526020015b60405180910390f35b610102610156366004610e4c565b6103e8565b610102610578565b6000546001600160a01b03165b6040516001600160a01b03909116815260200161013f565b610102610196366004610e4c565b61058c565b61011263152a902d60e11b81565b6101026101b7366004610e9d565b61070a565b6101026101ca366004610e4c565b6107a9565b6101126380ac58cd60e01b81565b6101707f000000000000000000000000000000000000000000000000000000000000000081565b610217610212366004610eb6565b610849565b604080516001600160a01b03909316835260ff90911660208301520161013f565b610102610246366004610eb6565b610a5b565b610102610259366004610eb6565b610aca565b6040516338c7be4760e21b81526001600160a01b0385811660048301526000917f00000000000000000000000000000000000000000000000000000000000000009091169063e31ef91c90602401606060405180830381865afa1580156102c9573d6000803e3d6000fd5b505050506040513d601f19601f820116820180604052508101906102ed9190610eda565b5090915050336001600160a01b0382161461034f5760405162461bcd60e51b815260206004820152601660248201527f5365747465723a204e6f7420746865207365747465720000000000000000000060448201526064015b60405180910390fd5b60405163177bf36d60e31b81526001600160a01b03868116600483015285811660248301528481166044830152606482018490527f0000000000000000000000000000000000000000000000000000000000000000169063bbdf9b6890608401600060405180830381600087803b1580156103c957600080fd5b505af11580156103dd573d6000803e3d6000fd5b505050505050505050565b6040516301ffc9a760e01b815263152a902d60e11b60048201526001600160a01b038516906301ffc9a790602401602060405180830381865afa158015610433573d6000803e3d6000fd5b505050506040513d601f19601f820116820180604052508101906104579190610f1d565b156104a45760405162461bcd60e51b815260206004820152601a60248201527f4f776e65723a204d757374206e6f7420626520455243323938310000000000006044820152606401610346565b836001600160a01b0316638da5cb5b6040518163ffffffff1660e01b8152600401602060405180830381865afa1580156104e2573d6000803e3d6000fd5b505050506040513d601f19601f820116820180604052508101906105069190610f3f565b6001600160a01b0316336001600160a01b0316146105665760405162461bcd60e51b815260206004820152601460248201527f4f776e65723a204e6f7420746865206f776e65720000000000000000000000006044820152606401610346565b61057284848484610b5a565b50505050565b610580610d75565b61058a6000610dcf565b565b6040516301ffc9a760e01b815263152a902d60e11b60048201526001600160a01b038516906301ffc9a790602401602060405180830381865afa1580156105d7573d6000803e3d6000fd5b505050506040513d601f19601f820116820180604052508101906105fb9190610f1d565b156106485760405162461bcd60e51b815260206004820152601a60248201527f41646d696e3a204d757374206e6f7420626520455243323938310000000000006044820152606401610346565b836001600160a01b031663f851a4406040518163ffffffff1660e01b8152600401602060405180830381865afa158015610686573d6000803e3d6000fd5b505050506040513d601f19601f820116820180604052508101906106aa9190610f3f565b6001600160a01b0316336001600160a01b0316146105665760405162461bcd60e51b815260206004820152601460248201527f41646d696e3a204e6f74207468652061646d696e0000000000000000000000006044820152606401610346565b610712610d75565b6040517fb9223c9d000000000000000000000000000000000000000000000000000000008152600481018290527f00000000000000000000000000000000000000000000000000000000000000006001600160a01b03169063b9223c9d906024015b600060405180830381600087803b15801561078e57600080fd5b505af11580156107a2573d6000803e3d6000fd5b5050505050565b6107b1610d75565b60405163177bf36d60e31b81526001600160a01b03858116600483015284811660248301528381166044830152606482018390527f0000000000000000000000000000000000000000000000000000000000000000169063bbdf9b6890608401600060405180830381600087803b15801561082b57600080fd5b505af115801561083f573d6000803e3d6000fd5b5050505050505050565b6040516338c7be4760e21b81526001600160a01b038281166004830152600091829182917f00000000000000000000000000000000000000000000000000000000000000009091169063e31ef91c90602401606060405180830381865afa1580156108b8573d6000803e3d6000fd5b505050506040513d601f19601f820116820180604052508101906108dc9190610eda565b50909150506001600160a01b038116156108fa579360009350915050565b6040516301ffc9a760e01b815263152a902d60e11b60048201526001600160a01b038516906301ffc9a790602401602060405180830381865afa925050508015610961575060408051601f3d908101601f1916820190925261095e91810190610f1d565b60015b1561097c57801561097a57506000946001945092505050565b505b836001600160a01b0316638da5cb5b6040518163ffffffff1660e01b8152600401602060405180830381865afa9250505080156109d6575060408051601f3d908101601f191682019092526109d391810190610f3f565b60015b610a5057836001600160a01b031663f851a4406040518163ffffffff1660e01b8152600401602060405180830381865afa925050508015610a34575060408051601f3d908101601f19168201909252610a3191810190610f3f565b60015b610a45575060009360049350915050565b946003945092505050565b946002945092505050565b610a63610d75565b6040517ff2fde38b0000000000000000000000000000000000000000000000000000000081526001600160a01b0382811660048301527f0000000000000000000000000000000000000000000000000000000000000000169063f2fde38b90602401610774565b610ad2610d75565b6001600160a01b038116610b4e5760405162461bcd60e51b815260206004820152602660248201527f4f776e61626c653a206e6577206f776e657220697320746865207a65726f206160448201527f64647265737300000000000000000000000000000000000000000000000000006064820152608401610346565b610b5781610dcf565b50565b6040516338c7be4760e21b81526001600160a01b0385811660048301526000917f00000000000000000000000000000000000000000000000000000000000000009091169063e31ef91c90602401606060405180830381865afa158015610bc5573d6000803e3d6000fd5b505050506040513d601f19601f82011682018060405250810190610be99190610eda565b50909150506001600160a01b03811615610c455760405162461bcd60e51b815260206004820152601360248201527f5365747465723a20416c726561647920736574000000000000000000000000006044820152606401610346565b6040516301ffc9a760e01b81526380ac58cd60e01b60048201526001600160a01b038616906301ffc9a790602401602060405180830381865afa158015610c90573d6000803e3d6000fd5b505050506040513d601f19601f82011682018060405250810190610cb49190610f1d565b80610d2957506040516301ffc9a760e01b8152636cdb3d1360e11b60048201526001600160a01b038616906301ffc9a790602401602060405180830381865afa158015610d05573d6000803e3d6000fd5b505050506040513d601f19601f82011682018060405250810190610d299190610f1d565b61034f5760405162461bcd60e51b815260206004820152601a60248201527f5365747465723a204e6f74204552433732312f455243313135350000000000006044820152606401610346565b6000546001600160a01b0316331461058a5760405162461bcd60e51b815260206004820181905260248201527f4f776e61626c653a2063616c6c6572206973206e6f7420746865206f776e65726044820152606401610346565b600080546001600160a01b038381167fffffffffffffffffffffffff0000000000000000000000000000000000000000831681178455604051919092169283917f8be0079c531659141344cd1fd0a4f28419497f9722a3daafe3b4186f6b6457e09190a35050565b6001600160a01b0381168114610b5757600080fd5b60008060008060808587031215610e6257600080fd5b8435610e6d81610e37565b93506020850135610e7d81610e37565b92506040850135610e8d81610e37565b9396929550929360600135925050565b600060208284031215610eaf57600080fd5b5035919050565b600060208284031215610ec857600080fd5b8135610ed381610e37565b9392505050565b600080600060608486031215610eef57600080fd5b8351610efa81610e37565b6020850151909350610f0b81610e37565b80925050604084015190509250925092565b600060208284031215610f2f57600080fd5b81518015158114610ed357600080fd5b600060208284031215610f5157600080fd5b8151610ed381610e3756fea264697066735822122080a89366e72fd7b50b5dba4825c30e6a23347c9c8825faeff7fd8d6c11b069e664736f6c63430008110033",
  "linkReferences": {},
  "deployedLinkReferences": {}
}