{
  "_format": "hh-sol-artifact-1",
  "contractName": "TransferManagerNonCompliantERC721",
  "sourceName": "src/utils/TransferManagerNonCompliantERC721.sol",
  "abi": [
    {
      "inputs": [
        {
          "internalType": "address",
          "name": "_looksRareExchange",
          "type": "address"
        }
      ],
      "stateMutability": "nonpayable",
      "type": "constructor"
    },
    {
      "inputs": [],
      "name": "LOOKS_RARE_EXCHANGE",
      "outputs": [
        {
          "internalType": "address",
          "name": "",
          "type": "address"
        }
      ],
      "stateMutability": "view",
      "type": "function"
    },
    {
      "inputs": [
        {
          "internalType": "address",
          "name": "collection",
          "type": "address"
        },
        {
          "internalType": "address",
          "name": "from",
          "type": "address"
        },
        {
          "internalType": "address",
          "name": "to",
          "type": "address"
        },
        {
          "internalType": "uint256",
          "name": "tokenId",
          "type": "uint256"
        },
        {
          "internalType": "uint256",
          "name": "",
          "type": "uint256"
        }
      ],
      "name": "transferNonFungibleToken",
      "outputs": [],
      "stateMutability": "nonpayable",
      "type": "function"
    },
    {
      "inputs": [
        {
          "internalType": "address",
          "name": "collection",
          "type": "address"
        },
        {
          "internalType": "address",
          "name": "from",
          "type": "address"
        },
        {
          "internalType": "address",
          "name": "to",
          "type": "address"
        },
        {
          "internalType": "uint256",
          "name": "tokenId",
          "type": "uint256"
        },
        {
          "internalType": "uint256",
          "name": "amount",
          "type": "uint256"
        },
        {
          "internalType": "bytes",
          "name": "data",
          "type": "bytes"
        }
      ],
      "name": "transferNonFungibleToken",
      "outputs": [],
      "stateMutability": "nonpayable",
      "type": "function"
    }
  ],
  "bytecode": "0x60a060405234801561001057600080fd5b5060405161041e38038061041e83398101604081905261002f91610040565b6001600160a01b0316608052610070565b60006020828403121561005257600080fd5b81516001600160a01b038116811461006957600080fd5b9392505050565b60805161038e610090600039600081816060015260da015261038e6000f3fe608060405234801561001057600080fd5b50600436106100415760003560e01c806333f2fa9f146100465780633dd7df501461005b578063849b95a7146100ab575b600080fd5b61005961005436600461024b565b6100c2565b005b6100827f000000000000000000000000000000000000000000000000000000000000000081565b60405173ffffffffffffffffffffffffffffffffffffffff909116815260200160405180910390f35b6100596100b93660046102a0565b50505050505050565b3373ffffffffffffffffffffffffffffffffffffffff7f0000000000000000000000000000000000000000000000000000000000000000161461018b576040517f08c379a000000000000000000000000000000000000000000000000000000000815260206004820152602160248201527f5472616e736665723a204f6e6c79204c6f6f6b73526172652045786368616e6760448201527f6500000000000000000000000000000000000000000000000000000000000000606482015260840160405180910390fd5b6040517f23b872dd00000000000000000000000000000000000000000000000000000000815273ffffffffffffffffffffffffffffffffffffffff85811660048301528481166024830152604482018490528616906323b872dd90606401600060405180830381600087803b15801561020357600080fd5b505af1158015610217573d6000803e3d6000fd5b505050505050505050565b803573ffffffffffffffffffffffffffffffffffffffff8116811461024657600080fd5b919050565b600080600080600060a0868803121561026357600080fd5b61026c86610222565b945061027a60208701610222565b935061028860408701610222565b94979396509394606081013594506080013592915050565b600080600080600080600060c0888a0312156102bb57600080fd5b6102c488610222565b96506102d260208901610222565b95506102e060408901610222565b9450606088013593506080880135925060a088013567ffffffffffffffff8082111561030b57600080fd5b818a0191508a601f83011261031f57600080fd5b81358181111561032e57600080fd5b8b602082850101111561034057600080fd5b6020830194508093505050509295989194975092955056fea2646970667358221220befcde3d0b99bf925911c0373e62688abc618fdd420b29aa3e6aef7a6b9b3ae964736f6c63430008110033",
  "linkReferences": {},
  "deployedLinkReferences": {}
}