{
  "_format": "hh-sol-artifact-1",
  "contractName": "RoyaltyFeeManagerV1B",
  "sourceName": "src/RoyaltyFeeManagerV1B.sol",
  "abi": [
    {
      "inputs": [
        {
          "internalType": "address",
          "name": "_royaltyFeeRegistry",
          "type": "address"
        }
      ],
      "stateMutability": "nonpayable",
      "type": "constructor"
    },
    {
      "inputs": [],
      "name": "INTERFACE_ID_ERC2981",
      "outputs": [
        {
          "internalType": "bytes4",
          "name": "",
          "type": "bytes4"
        }
      ],
      "stateMutability": "view",
      "type": "function"
    },
    {
      "inputs": [],
      "name": "STANDARD_ROYALTY_FEE",
      "outputs": [
        {
          "internalType": "uint256",
          "name": "",
          "type": "uint256"
        }
      ],
      "stateMutability": "view",
      "type": "function"
    },
    {
      "inputs": [
        {
          "internalType": "address",
          "name": "collection",
          "type": "address"
        },
        {
          "internalType": "uint256",
          "name": "tokenId",
          "type": "uint256"
        },
        {
          "internalType": "uint256",
          "name": "amount",
          "type": "uint256"
        }
      ],
      "name": "calculateRoyaltyFeeAndGetRecipient",
      "outputs": [
        {
          "internalType": "address",
          "name": "receiver",
          "type": "address"
        },
        {
          "internalType": "uint256",
          "name": "royaltyAmount",
          "type": "uint256"
        }
      ],
      "stateMutability": "view",
      "type": "function"
    },
    {
      "inputs": [],
      "name": "royaltyFeeRegistry",
      "outputs": [
        {
          "internalType": "contract IRoyaltyFeeRegistry",
          "name": "",
          "type": "address"
        }
      ],
      "stateMutability": "view",
      "type": "function"
    }
  ],
  "bytecode": "0x60a060405234801561001057600080fd5b506040516104e33803806104e383398101604081905261002f91610040565b6001600160a01b0316608052610070565b60006020828403121561005257600080fd5b81516001600160a01b038116811461006957600080fd5b9392505050565b6080516104526100916000396000818160b001526102d101526104526000f3fe608060405234801561001057600080fd5b506004361061004c5760003560e01c806323e0998b14610051578063b060dd861461006c578063c16f5156146100ab578063f4f635fa146100ea575b600080fd5b610059603281565b6040519081526020015b60405180910390f35b61007a63152a902d60e11b81565b6040517fffffffff000000000000000000000000000000000000000000000000000000009091168152602001610063565b6100d27f000000000000000000000000000000000000000000000000000000000000000081565b6040516001600160a01b039091168152602001610063565b6100fd6100f8366004610361565b61011c565b604080516001600160a01b039093168352602083019190915201610063565b6040517f01ffc9a700000000000000000000000000000000000000000000000000000000815263152a902d60e11b600482015260009081906001600160a01b038616906301ffc9a790602401602060405180830381865afa158015610185573d6000803e3d6000fd5b505050506040513d601f19601f820116820180604052508101906101a99190610396565b15610284576040805160248101869052604480820186905282518083039091018152606490910182526020810180517bffffffffffffffffffffffffffffffffffffffffffffffffffffffff1663152a902d60e11b179052905160009182916001600160a01b0389169161021c916103bf565b600060405180830381855afa9150503d8060008114610257576040519150601f19603f3d011682016040523d82523d6000602084013e61025c565b606091505b50915091508115610281578080602001905181019061027b91906103ee565b90945092505b50505b6001600160a01b038216610341576040517f2782d6c70000000000000000000000000000000000000000000000000000000081526001600160a01b038681166004830152602482018590527f00000000000000000000000000000000000000000000000000000000000000001690632782d6c7906044016040805180830381865afa158015610317573d6000803e3d6000fd5b505050506040513d601f19601f8201168201806040525081019061033b91906103ee565b90925090505b935093915050565b6001600160a01b038116811461035e57600080fd5b50565b60008060006060848603121561037657600080fd5b833561038181610349565b95602085013595506040909401359392505050565b6000602082840312156103a857600080fd5b815180151581146103b857600080fd5b9392505050565b6000825160005b818110156103e057602081860181015185830152016103c6565b506000920191825250919050565b6000806040838503121561040157600080fd5b825161040c81610349565b602093909301519294929350505056fea264697066735822122082831a1a25bad02d75e5e3a1c549204fdbb8805474998ff932c8f42efb36000c64736f6c63430008110033",
  "linkReferences": {},
  "deployedLinkReferences": {}
}