{
  "_format": "hh-sol-artifact-1",
  "contractName": "NetexExchange",
  "sourceName": "src/NetexExchange.sol",
  "abi": [
    {
      "inputs": [
        {
          "internalType": "address",
          "name": "_currencyManager",
          "type": "address"
        },
        {
          "internalType": "address",
          "name": "_executionManager",
          "type": "address"
        },
        {
          "internalType": "address",
          "name": "_royaltyFeeManager",
          "type": "address"
        },
        {
          "internalType": "address",
          "name": "_WETH",
          "type": "address"
        },
        {
          "internalType": "address",
          "name": "_protocolFeeRecipient",
          "type": "address"
        }
      ],
      "stateMutability": "nonpayable",
      "type": "constructor"
    },
    {
      "anonymous": false,
      "inputs": [
        {
          "indexed": true,
          "internalType": "address",
          "name": "user",
          "type": "address"
        },
        {
          "indexed": false,
          "internalType": "uint256",
          "name": "newMinNonce",
          "type": "uint256"
        }
      ],
      "name": "CancelAllOrders",
      "type": "event"
    },
    {
      "anonymous": false,
      "inputs": [
        {
          "indexed": true,
          "internalType": "address",
          "name": "user",
          "type": "address"
        },
        {
          "indexed": false,
          "internalType": "uint256[]",
          "name": "orderNonces",
          "type": "uint256[]"
        }
      ],
      "name": "CancelMultipleOrders",
      "type": "event"
    },
    {
      "anonymous": false,
      "inputs": [
        {
          "indexed": true,
          "internalType": "address",
          "name": "user",
          "type": "address"
        },
        {
          "indexed": false,
          "internalType": "uint256",
          "name": "orderNonce",
          "type": "uint256"
        }
      ],
      "name": "CancelOrder",
      "type": "event"
    },
    {
      "anonymous": false,
      "inputs": [
        {
          "indexed": true,
          "internalType": "address",
          "name": "currencyManager",
          "type": "address"
        }
      ],
      "name": "NewCurrencyManager",
      "type": "event"
    },
    {
      "anonymous": false,
      "inputs": [
        {
          "indexed": true,
          "internalType": "address",
          "name": "executionManager",
          "type": "address"
        }
      ],
      "name": "NewExecutionManager",
      "type": "event"
    },
    {
      "anonymous": false,
      "inputs": [
        {
          "indexed": true,
          "internalType": "address",
          "name": "protocolFeeRecipient",
          "type": "address"
        }
      ],
      "name": "NewProtocolFeeRecipient",
      "type": "event"
    },
    {
      "anonymous": false,
      "inputs": [
        {
          "indexed": true,
          "internalType": "address",
          "name": "royaltyFeeManager",
          "type": "address"
        }
      ],
      "name": "NewRoyaltyFeeManager",
      "type": "event"
    },
    {
      "anonymous": false,
      "inputs": [
        {
          "indexed": true,
          "internalType": "address",
          "name": "transferSelectorNFT",
          "type": "address"
        }
      ],
      "name": "NewTransferSelectorNFT",
      "type": "event"
    },
    {
      "anonymous": false,
      "inputs": [
        {
          "indexed": true,
          "internalType": "address",
          "name": "previousOwner",
          "type": "address"
        },
        {
          "indexed": true,
          "internalType": "address",
          "name": "newOwner",
          "type": "address"
        }
      ],
      "name": "OwnershipTransferred",
      "type": "event"
    },
    {
      "anonymous": false,
      "inputs": [
        {
          "indexed": true,
          "internalType": "address",
          "name": "collection",
          "type": "address"
        },
        {
          "indexed": true,
          "internalType": "uint256",
          "name": "tokenId",
          "type": "uint256"
        },
        {
          "indexed": true,
          "internalType": "address",
          "name": "royaltyRecipient",
          "type": "address"
        },
        {
          "indexed": false,
          "internalType": "address",
          "name": "currency",
          "type": "address"
        },
        {
          "indexed": false,
          "internalType": "uint256",
          "name": "amount",
          "type": "uint256"
        }
      ],
      "name": "RoyaltyPayment",
      "type": "event"
    },
    {
      "anonymous": false,
      "inputs": [
        {
          "indexed": false,
          "internalType": "bytes32",
          "name": "orderHash",
          "type": "bytes32"
        },
        {
          "indexed": false,
          "internalType": "uint256",
          "name": "orderNonce",
          "type": "uint256"
        },
        {
          "indexed": true,
          "internalType": "address",
          "name": "taker",
          "type": "address"
        },
        {
          "indexed": true,
          "internalType": "address",
          "name": "maker",
          "type": "address"
        },
        {
          "indexed": true,
          "internalType": "address",
          "name": "strategy",
          "type": "address"
        },
        {
          "indexed": false,
          "internalType": "address",
          "name": "currency",
          "type": "address"
        },
        {
          "indexed": false,
          "internalType": "address",
          "name": "collection",
          "type": "address"
        },
        {
          "indexed": false,
          "internalType": "uint256",
          "name": "tokenId",
          "type": "uint256"
        },
        {
          "indexed": false,
          "internalType": "uint256",
          "name": "amount",
          "type": "uint256"
        },
        {
          "indexed": false,
          "internalType": "uint256",
          "name": "price",
          "type": "uint256"
        }
      ],
      "name": "TakerAsk",
      "type": "event"
    },
    {
      "anonymous": false,
      "inputs": [
        {
          "indexed": false,
          "internalType": "bytes32",
          "name": "orderHash",
          "type": "bytes32"
        },
        {
          "indexed": false,
          "internalType": "uint256",
          "name": "orderNonce",
          "type": "uint256"
        },
        {
          "indexed": true,
          "internalType": "address",
          "name": "taker",
          "type": "address"
        },
        {
          "indexed": true,
          "internalType": "address",
          "name": "maker",
          "type": "address"
        },
        {
          "indexed": true,
          "internalType": "address",
          "name": "strategy",
          "type": "address"
        },
        {
          "indexed": false,
          "internalType": "address",
          "name": "currency",
          "type": "address"
        },
        {
          "indexed": false,
          "internalType": "address",
          "name": "collection",
          "type": "address"
        },
        {
          "indexed": false,
          "internalType": "uint256",
          "name": "tokenId",
          "type": "uint256"
        },
        {
          "indexed": false,
          "internalType": "uint256",
          "name": "amount",
          "type": "uint256"
        },
        {
          "indexed": false,
          "internalType": "uint256",
          "name": "price",
          "type": "uint256"
        }
      ],
      "name": "TakerBid",
      "type": "event"
    },
    {
      "inputs": [],
      "name": "DOMAIN_SEPARATOR",
      "outputs": [
        {
          "internalType": "bytes32",
          "name": "",
          "type": "bytes32"
        }
      ],
      "stateMutability": "view",
      "type": "function"
    },
    {
      "inputs": [],
      "name": "WETH",
      "outputs": [
        {
          "internalType": "address",
          "name": "",
          "type": "address"
        }
      ],
      "stateMutability": "view",
      "type": "function"
    },
    {
      "inputs": [
        {
          "internalType": "uint256",
          "name": "minNonce",
          "type": "uint256"
        }
      ],
      "name": "cancelAllOrdersForSender",
      "outputs": [],
      "stateMutability": "nonpayable",
      "type": "function"
    },
    {
      "inputs": [
        {
          "internalType": "uint256",
          "name": "orderNonce",
          "type": "uint256"
        }
      ],
      "name": "cancelMakerOrder",
      "outputs": [],
      "stateMutability": "nonpayable",
      "type": "function"
    },
    {
      "inputs": [
        {
          "internalType": "uint256[]",
          "name": "orderNonces",
          "type": "uint256[]"
        }
      ],
      "name": "cancelMultipleMakerOrders",
      "outputs": [],
      "stateMutability": "nonpayable",
      "type": "function"
    },
    {
      "inputs": [],
      "name": "currencyManager",
      "outputs": [
        {
          "internalType": "contract ICurrencyManager",
          "name": "",
          "type": "address"
        }
      ],
      "stateMutability": "view",
      "type": "function"
    },
    {
      "inputs": [],
      "name": "executionManager",
      "outputs": [
        {
          "internalType": "contract IExecutionManager",
          "name": "",
          "type": "address"
        }
      ],
      "stateMutability": "view",
      "type": "function"
    },
    {
      "inputs": [
        {
          "internalType": "address",
          "name": "user",
          "type": "address"
        },
        {
          "internalType": "uint256",
          "name": "orderNonce",
          "type": "uint256"
        }
      ],
      "name": "isUserOrderNonceExecutedOrCancelled",
      "outputs": [
        {
          "internalType": "bool",
          "name": "",
          "type": "bool"
        }
      ],
      "stateMutability": "view",
      "type": "function"
    },
    {
      "inputs": [
        {
          "components": [
            {
              "internalType": "bool",
              "name": "isOrderAsk",
              "type": "bool"
            },
            {
              "internalType": "address",
              "name": "taker",
              "type": "address"
            },
            {
              "internalType": "uint256",
              "name": "price",
              "type": "uint256"
            },
            {
              "internalType": "uint256",
              "name": "tokenId",
              "type": "uint256"
            },
            {
              "internalType": "uint256",
              "name": "minPercentageToAsk",
              "type": "uint256"
            },
            {
              "internalType": "bytes",
              "name": "params",
              "type": "bytes"
            }
          ],
          "internalType": "struct OrderTypes.TakerOrder",
          "name": "takerBid",
          "type": "tuple"
        },
        {
          "components": [
            {
              "internalType": "bool",
              "name": "isOrderAsk",
              "type": "bool"
            },
            {
              "internalType": "address",
              "name": "signer",
              "type": "address"
            },
            {
              "internalType": "address",
              "name": "collection",
              "type": "address"
            },
            {
              "internalType": "uint256",
              "name": "price",
              "type": "uint256"
            },
            {
              "internalType": "uint256",
              "name": "tokenId",
              "type": "uint256"
            },
            {
              "internalType": "uint256",
              "name": "amount",
              "type": "uint256"
            },
            {
              "internalType": "address",
              "name": "strategy",
              "type": "address"
            },
            {
              "internalType": "address",
              "name": "currency",
              "type": "address"
            },
            {
              "internalType": "uint256",
              "name": "nonce",
              "type": "uint256"
            },
            {
              "internalType": "uint256",
              "name": "startTime",
              "type": "uint256"
            },
            {
              "internalType": "uint256",
              "name": "endTime",
              "type": "uint256"
            },
            {
              "internalType": "uint256",
              "name": "minPercentageToAsk",
              "type": "uint256"
            },
            {
              "internalType": "bytes",
              "name": "params",
              "type": "bytes"
            },
            {
              "internalType": "uint8",
              "name": "v",
              "type": "uint8"
            },
            {
              "internalType": "bytes32",
              "name": "r",
              "type": "bytes32"
            },
            {
              "internalType": "bytes32",
              "name": "s",
              "type": "bytes32"
            }
          ],
          "internalType": "struct OrderTypes.MakerOrder",
          "name": "makerAsk",
          "type": "tuple"
        },
        {
          "internalType": "bytes",
          "name": "data",
          "type": "bytes"
        }
      ],
      "name": "matchAskWithTakerBid",
      "outputs": [],
      "stateMutability": "nonpayable",
      "type": "function"
    },
    {
      "inputs": [
        {
          "components": [
            {
              "internalType": "bool",
              "name": "isOrderAsk",
              "type": "bool"
            },
            {
              "internalType": "address",
              "name": "taker",
              "type": "address"
            },
            {
              "internalType": "uint256",
              "name": "price",
              "type": "uint256"
            },
            {
              "internalType": "uint256",
              "name": "tokenId",
              "type": "uint256"
            },
            {
              "internalType": "uint256",
              "name": "minPercentageToAsk",
              "type": "uint256"
            },
            {
              "internalType": "bytes",
              "name": "params",
              "type": "bytes"
            }
          ],
          "internalType": "struct OrderTypes.TakerOrder",
          "name": "takerBid",
          "type": "tuple"
        },
        {
          "components": [
            {
              "internalType": "bool",
              "name": "isOrderAsk",
              "type": "bool"
            },
            {
              "internalType": "address",
              "name": "signer",
              "type": "address"
            },
            {
              "internalType": "address",
              "name": "collection",
              "type": "address"
            },
            {
              "internalType": "uint256",
              "name": "price",
              "type": "uint256"
            },
            {
              "internalType": "uint256",
              "name": "tokenId",
              "type": "uint256"
            },
            {
              "internalType": "uint256",
              "name": "amount",
              "type": "uint256"
            },
            {
              "internalType": "address",
              "name": "strategy",
              "type": "address"
            },
            {
              "internalType": "address",
              "name": "currency",
              "type": "address"
            },
            {
              "internalType": "uint256",
              "name": "nonce",
              "type": "uint256"
            },
            {
              "internalType": "uint256",
              "name": "startTime",
              "type": "uint256"
            },
            {
              "internalType": "uint256",
              "name": "endTime",
              "type": "uint256"
            },
            {
              "internalType": "uint256",
              "name": "minPercentageToAsk",
              "type": "uint256"
            },
            {
              "internalType": "bytes",
              "name": "params",
              "type": "bytes"
            },
            {
              "internalType": "uint8",
              "name": "v",
              "type": "uint8"
            },
            {
              "internalType": "bytes32",
              "name": "r",
              "type": "bytes32"
            },
            {
              "internalType": "bytes32",
              "name": "s",
              "type": "bytes32"
            }
          ],
          "internalType": "struct OrderTypes.MakerOrder",
          "name": "makerAsk",
          "type": "tuple"
        },
        {
          "internalType": "bytes",
          "name": "data",
          "type": "bytes"
        }
      ],
      "name": "matchAskWithTakerBidUsingETHAndWETH",
      "outputs": [],
      "stateMutability": "payable",
      "type": "function"
    },
    {
      "inputs": [
        {
          "components": [
            {
              "internalType": "bool",
              "name": "isOrderAsk",
              "type": "bool"
            },
            {
              "internalType": "address",
              "name": "taker",
              "type": "address"
            },
            {
              "internalType": "uint256",
              "name": "price",
              "type": "uint256"
            },
            {
              "internalType": "uint256",
              "name": "tokenId",
              "type": "uint256"
            },
            {
              "internalType": "uint256",
              "name": "minPercentageToAsk",
              "type": "uint256"
            },
            {
              "internalType": "bytes",
              "name": "params",
              "type": "bytes"
            }
          ],
          "internalType": "struct OrderTypes.TakerOrder",
          "name": "takerAsk",
          "type": "tuple"
        },
        {
          "components": [
            {
              "internalType": "bool",
              "name": "isOrderAsk",
              "type": "bool"
            },
            {
              "internalType": "address",
              "name": "signer",
              "type": "address"
            },
            {
              "internalType": "address",
              "name": "collection",
              "type": "address"
            },
            {
              "internalType": "uint256",
              "name": "price",
              "type": "uint256"
            },
            {
              "internalType": "uint256",
              "name": "tokenId",
              "type": "uint256"
            },
            {
              "internalType": "uint256",
              "name": "amount",
              "type": "uint256"
            },
            {
              "internalType": "address",
              "name": "strategy",
              "type": "address"
            },
            {
              "internalType": "address",
              "name": "currency",
              "type": "address"
            },
            {
              "internalType": "uint256",
              "name": "nonce",
              "type": "uint256"
            },
            {
              "internalType": "uint256",
              "name": "startTime",
              "type": "uint256"
            },
            {
              "internalType": "uint256",
              "name": "endTime",
              "type": "uint256"
            },
            {
              "internalType": "uint256",
              "name": "minPercentageToAsk",
              "type": "uint256"
            },
            {
              "internalType": "bytes",
              "name": "params",
              "type": "bytes"
            },
            {
              "internalType": "uint8",
              "name": "v",
              "type": "uint8"
            },
            {
              "internalType": "bytes32",
              "name": "r",
              "type": "bytes32"
            },
            {
              "internalType": "bytes32",
              "name": "s",
              "type": "bytes32"
            }
          ],
          "internalType": "struct OrderTypes.MakerOrder",
          "name": "makerBid",
          "type": "tuple"
        },
        {
          "internalType": "bytes",
          "name": "data",
          "type": "bytes"
        }
      ],
      "name": "matchBidWithTakerAsk",
      "outputs": [],
      "stateMutability": "nonpayable",
      "type": "function"
    },
    {
      "inputs": [],
      "name": "owner",
      "outputs": [
        {
          "internalType": "address",
          "name": "",
          "type": "address"
        }
      ],
      "stateMutability": "view",
      "type": "function"
    },
    {
      "inputs": [],
      "name": "protocolFeeRecipient",
      "outputs": [
        {
          "internalType": "address",
          "name": "",
          "type": "address"
        }
      ],
      "stateMutability": "view",
      "type": "function"
    },
    {
      "inputs": [],
      "name": "renounceOwnership",
      "outputs": [],
      "stateMutability": "nonpayable",
      "type": "function"
    },
    {
      "inputs": [],
      "name": "royaltyFeeManager",
      "outputs": [
        {
          "internalType": "contract IRoyaltyFeeManager",
          "name": "",
          "type": "address"
        }
      ],
      "stateMutability": "view",
      "type": "function"
    },
    {
      "inputs": [
        {
          "internalType": "address",
          "name": "newOwner",
          "type": "address"
        }
      ],
      "name": "transferOwnership",
      "outputs": [],
      "stateMutability": "nonpayable",
      "type": "function"
    },
    {
      "inputs": [],
      "name": "transferSelectorNFT",
      "outputs": [
        {
          "internalType": "contract ITransferSelectorNFT",
          "name": "",
          "type": "address"
        }
      ],
      "stateMutability": "view",
      "type": "function"
    },
    {
      "inputs": [
        {
          "internalType": "address",
          "name": "_currencyManager",
          "type": "address"
        }
      ],
      "name": "updateCurrencyManager",
      "outputs": [],
      "stateMutability": "nonpayable",
      "type": "function"
    },
    {
      "inputs": [
        {
          "internalType": "address",
          "name": "_executionManager",
          "type": "address"
        }
      ],
      "name": "updateExecutionManager",
      "outputs": [],
      "stateMutability": "nonpayable",
      "type": "function"
    },
    {
      "inputs": [
        {
          "internalType": "address",
          "name": "_protocolFeeRecipient",
          "type": "address"
        }
      ],
      "name": "updateProtocolFeeRecipient",
      "outputs": [],
      "stateMutability": "nonpayable",
      "type": "function"
    },
    {
      "inputs": [
        {
          "internalType": "address",
          "name": "_royaltyFeeManager",
          "type": "address"
        }
      ],
      "name": "updateRoyaltyFeeManager",
      "outputs": [],
      "stateMutability": "nonpayable",
      "type": "function"
    },
    {
      "inputs": [
        {
          "internalType": "address",
          "name": "_transferSelectorNFT",
          "type": "address"
        }
      ],
      "name": "updateTransferSelectorNFT",
      "outputs": [],
      "stateMutability": "nonpayable",
      "type": "function"
    },
    {
      "inputs": [
        {
          "internalType": "address",
          "name": "",
          "type": "address"
        }
      ],
      "name": "userMinOrderNonce",
      "outputs": [
        {
          "internalType": "uint256",
          "name": "",
          "type": "uint256"
        }
      ],
      "stateMutability": "view",
      "type": "function"
    }
  ],
  "bytecode": "0x60c06040523480156200001157600080fd5b5060405162003492380380620034928339810160408190526200003491620001ae565b600160005562000044336200013f565b604080517f8b73c3c69bb8fe3d512ecc4cf759cc79239f7b179b0ffacaa9a75d522b39400f60208201527fceb305597ad05755de545c066f1bf0d269b0d0955bf11787ae1a284c0ad3b723918101919091527fc89efdaa54c0f20c7adf612882df0950f5a951637e0307cdcb4c672f298b8bc660608201524660808201523060a082015260c00160408051601f19818403018152919052805160209091012060a052600380546001600160a01b039687166001600160a01b031991821617909155600480549587169582169590951790945560058054938616938516939093179092558316608052600280549190931691161790556200021e565b600180546001600160a01b038381166001600160a01b0319831681179093556040519116919082907f8be0079c531659141344cd1fd0a4f28419497f9722a3daafe3b4186f6b6457e090600090a35050565b80516001600160a01b0381168114620001a957600080fd5b919050565b600080600080600060a08688031215620001c757600080fd5b620001d28662000191565b9450620001e26020870162000191565b9350620001f26040870162000191565b9250620002026060870162000191565b9150620002126080870162000191565b90509295509295909350565b60805160a051613240620002526000396000818161022601526117de015260008181610388015261206501526132406000f3fe6080604052600436106101805760003560e01c80638da5cb5b116100d6578063d1246ae01161007f578063f36be2ad11610059578063f36be2ad1461046a578063f614ce0e1461048a578063f75ff53f1461049d57600080fd5b8063d1246ae01461040a578063d4ff41dc1461042a578063f2fde38b1461044a57600080fd5b8063b0a3ad4a116100b0578063b0a3ad4a146103aa578063c5498769146103ca578063cbd2ec65146103ea57600080fd5b80638da5cb5b146103385780639e53a69a14610356578063ad5c46481461037657600080fd5b8063483abb9f1161013857806364df049e1161011257806364df049e146102e3578063715018a61461030357806387e4401f1461031857600080fd5b8063483abb9f146102835780635ce052d7146102a35780635e14f68e146102c357600080fd5b806331e27e271161016957806331e27e27146101e45780633644e515146102145780634266581e1461025657600080fd5b80630f747d74146101855780631df47f80146101c2575b600080fd5b34801561019157600080fd5b506003546101a5906001600160a01b031681565b6040516001600160a01b0390911681526020015b60405180910390f35b3480156101ce57600080fd5b506101e26101dd3660046128b6565b6104bd565b005b3480156101f057600080fd5b506102046101ff3660046128da565b61050f565b60405190151581526020016101b9565b34801561022057600080fd5b506102487f000000000000000000000000000000000000000000000000000000000000000081565b6040519081526020016101b9565b34801561026257600080fd5b506102486102713660046128b6565b60076020526000908152604090205481565b34801561028f57600080fd5b506004546101a5906001600160a01b031681565b3480156102af57600080fd5b506101e26102be3660046128b6565b61053d565b3480156102cf57600080fd5b506006546101a5906001600160a01b031681565b3480156102ef57600080fd5b506002546101a5906001600160a01b031681565b34801561030f57600080fd5b506101e26105ea565b34801561032457600080fd5b506005546101a5906001600160a01b031681565b34801561034457600080fd5b506001546001600160a01b03166101a5565b34801561036257600080fd5b506101e2610371366004612906565b6105fe565b34801561038257600080fd5b506101a57f000000000000000000000000000000000000000000000000000000000000000081565b3480156103b657600080fd5b506101e26103c536600461297b565b610778565b3480156103d657600080fd5b506101e26103e53660046128b6565b610a4e565b3480156103f657600080fd5b506101e2610405366004612a42565b610af6565b34801561041657600080fd5b506101e261042536600461297b565b610c43565b34801561043657600080fd5b506101e26104453660046128b6565b610ef8565b34801561045657600080fd5b506101e26104653660046128b6565b610fa0565b34801561047657600080fd5b506101e2610485366004612a42565b611030565b6101e261049836600461297b565b6110f1565b3480156104a957600080fd5b506101e26104b83660046128b6565b6113c5565b6104c561146d565b600280546001600160a01b0319166001600160a01b0383169081179091556040517f8cffb07faa2874440346743bdc0a86b06c3335cc47dc49b327d10e77b73ceb1090600090a250565b6001600160a01b038216600090815260086020908152604080832084845290915290205460ff165b92915050565b61054561146d565b6001600160a01b0381166105a05760405162461bcd60e51b815260206004820152601d60248201527f4f776e65723a2043616e6e6f74206265206e756c6c206164647265737300000060448201526064015b60405180910390fd5b600380546001600160a01b0319166001600160a01b0383169081179091556040517fb4f5db40df3aced29e88a4babbc3b46e305e07d34098525d18b1497056e6383890600090a250565b6105f261146d565b6105fc60006114c7565b565b8061064b5760405162461bcd60e51b815260206004820152601760248201527f43616e63656c3a2043616e6e6f7420626520656d7074790000000000000000006044820152606401610597565b60005b81811015610730573360009081526007602052604090205483838381811061067857610678612a5b565b9050602002013510156106dc5760405162461bcd60e51b815260206004820152602660248201527f43616e63656c3a204f72646572206e6f6e6365206c6f776572207468616e20636044820152651d5c9c995b9d60d21b6064820152608401610597565b33600090815260086020526040812060019185858581811061070057610700612a5b565b60209081029290920135835250810191909152604001600020805460ff191691151591909117905560010161064e565b50336001600160a01b03167ffa0ae5d80fe3763c880a3839fab0294171a6f730d1f82c4cd5392c6f67b41732838360405161076c929190612a71565b60405180910390a25050565b610780611519565b61078d6020840184612adc565b80156107a357506107a16020850185612adc565b155b6107e45760405162461bcd60e51b81526020600482015260126024820152714f726465723a2057726f6e6720736964657360701b6044820152606401610597565b6107f460408501602086016128b6565b6001600160a01b0316336001600160a01b0316146108545760405162461bcd60e51b815260206004820152601f60248201527f4f726465723a2054616b6572206d757374206265207468652073656e646572006044820152606401610597565b600061086761086285612bd7565b611572565b90506108738482611619565b6000808061088760e0880160c089016128b6565b6001600160a01b031663865781ca89896040518363ffffffff1660e01b81526004016108b4929190612d5e565b606060405180830381865afa1580156108d1573d6000803e3d6000fd5b505050506040513d601f19601f820116820180604052508101906108f59190612f07565b925092509250826109485760405162461bcd60e51b815260206004820152601b60248201527f53747261746567793a20457865637574696f6e20696e76616c696400000000006044820152606401610597565b60016008600061095e60408b0160208c016128b6565b6001600160a01b03168152602080820192909252604090810160009081206101008c0135825290925290819020805460ff1916921515929092179091556109d8906109af9060608a01908a016128b6565b6109bf60408a0160208b016128b6565b6109cf60408c0160208d016128b6565b85858b8b611a2d565b610a2e6109eb60e0890160c08a016128b6565b6109fb60608a0160408b016128b6565b84610a0d6101008c0160e08d016128b6565b33610a1e60408e0160208f016128b6565b8e604001358e6101600135611bc0565b610a3a88888684611dc3565b50505050610a486001600055565b50505050565b610a5661146d565b6001600160a01b038116610aac5760405162461bcd60e51b815260206004820152601d60248201527f4f776e65723a2043616e6e6f74206265206e756c6c20616464726573730000006044820152606401610597565b600580546001600160a01b0319166001600160a01b0383169081179091556040517f80e3874461ebbd918ac3e81da0a92e5e51387d70f337237c9123e48d20e5a50890600090a250565b336000908152600760205260409020548111610b635760405162461bcd60e51b815260206004820152602660248201527f43616e63656c3a204f72646572206e6f6e6365206c6f776572207468616e20636044820152651d5c9c995b9d60d21b6064820152608401610597565b33600090815260076020526040902054610b80906207a120612f54565b8110610bf45760405162461bcd60e51b815260206004820152602160248201527f43616e63656c3a2043616e6e6f742063616e63656c206d6f7265206f7264657260448201527f73000000000000000000000000000000000000000000000000000000000000006064820152608401610597565b3360008181526007602052604090819020839055517f1e7178d84f0b0825c65795cd62e7972809ad3aac6917843aaec596161b2c0a9790610c389084815260200190565b60405180910390a250565b610c4b611519565b610c586020840184612adc565b158015610c6d5750610c6d6020850185612adc565b610cae5760405162461bcd60e51b81526020600482015260126024820152714f726465723a2057726f6e6720736964657360701b6044820152606401610597565b610cbe60408501602086016128b6565b6001600160a01b0316336001600160a01b031614610d1e5760405162461bcd60e51b815260206004820152601f60248201527f4f726465723a2054616b6572206d757374206265207468652073656e646572006044820152606401610597565b6000610d2c61086285612bd7565b9050610d388482611619565b60008080610d4c60e0880160c089016128b6565b6001600160a01b031663ad2390ac89896040518363ffffffff1660e01b8152600401610d79929190612d5e565b606060405180830381865afa158015610d96573d6000803e3d6000fd5b505050506040513d601f19601f82011682018060405250810190610dba9190612f07565b92509250925082610e0d5760405162461bcd60e51b815260206004820152601b60248201527f53747261746567793a20457865637574696f6e20696e76616c696400000000006044820152606401610597565b600160086000610e2360408b0160208c016128b6565b6001600160a01b03168152602080820192909252604090810160009081206101008c0135825290925290819020805460ff191692151592909217909155610e8590610e749060608a01908a016128b6565b336109cf60408b0160208c016128b6565b610eec610e9860e0890160c08a016128b6565b610ea860608a0160408b016128b6565b84610eba6101008c0160e08d016128b6565b610eca60408d0160208e016128b6565b8d6020016020810190610edd91906128b6565b8e604001358f60800135611bc0565b610a3a88888684611ea3565b610f0061146d565b6001600160a01b038116610f565760405162461bcd60e51b815260206004820152601d60248201527f4f776e65723a2043616e6e6f74206265206e756c6c20616464726573730000006044820152606401610597565b600480546001600160a01b0319166001600160a01b0383169081179091556040517f36e2a376eabc3bc60cb88f29c288f53e36874a95a7f407330ab4f166b090569890600090a250565b610fa861146d565b6001600160a01b0381166110245760405162461bcd60e51b815260206004820152602660248201527f4f776e61626c653a206e6577206f776e657220697320746865207a65726f206160448201527f64647265737300000000000000000000000000000000000000000000000000006064820152608401610597565b61102d816114c7565b50565b3360009081526007602052604090205481101561109e5760405162461bcd60e51b815260206004820152602660248201527f43616e63656c3a204f72646572206e6f6e6365206c6f776572207468616e20636044820152651d5c9c995b9d60d21b6064820152608401610597565b336000818152600860209081526040808320858452825291829020805460ff1916600117905590518381527fc0e68d6b69f741c21e955cad2ae4d505b6f6735c7e7b278251b3f6283a5f07eb9101610c38565b6110f9611519565b6111066020840184612adc565b801561111c575061111a6020850185612adc565b155b61115d5760405162461bcd60e51b81526020600482015260126024820152714f726465723a2057726f6e6720736964657360701b6044820152606401610597565b61116d60408501602086016128b6565b6001600160a01b0316336001600160a01b0316146111cd5760405162461bcd60e51b815260206004820152601f60248201527f4f726465723a2054616b6572206d757374206265207468652073656e646572006044820152606401610597565b3484604001351161122b573484604001351461122b5760405162461bcd60e51b815260206004820152601960248201527f4f726465723a204d73672e76616c756520746f6f2068696768000000000000006044820152606401610597565b600061123961086285612bd7565b90506112458482611619565b6000808061125960e0880160c089016128b6565b6001600160a01b031663865781ca89896040518363ffffffff1660e01b8152600401611286929190612d5e565b606060405180830381865afa1580156112a3573d6000803e3d6000fd5b505050506040513d601f19601f820116820180604052508101906112c79190612f07565b9250925092508261131a5760405162461bcd60e51b815260206004820152601b60248201527f53747261746567793a20457865637574696f6e20696e76616c696400000000006044820152606401610597565b60016008600061133060408b0160208c016128b6565b6001600160a01b03168152602080820192909252604090810160009081206101008c0135825290925290819020805460ff191692151592909217909155611381906109af9060608a01908a016128b6565b610a2e61139460e0890160c08a016128b6565b6113a460608a0160408b016128b6565b846113b560408c0160208d016128b6565b8c604001358c6101600135611f25565b6113cd61146d565b6001600160a01b0381166114235760405162461bcd60e51b815260206004820152601d60248201527f4f776e65723a2043616e6e6f74206265206e756c6c20616464726573730000006044820152606401610597565b600680546001600160a01b0319166001600160a01b0383169081179091556040517f205d78ab41afe80bd6b6aaa5d7599d5300ff8690da3ab1302c1b552f7baf7d8c90600090a250565b6001546001600160a01b031633146105fc5760405162461bcd60e51b815260206004820181905260248201527f4f776e61626c653a2063616c6c6572206973206e6f7420746865206f776e65726044820152606401610597565b600180546001600160a01b038381166001600160a01b0319831681179093556040519116919082907f8be0079c531659141344cd1fd0a4f28419497f9722a3daafe3b4186f6b6457e090600090a35050565b60026000540361156b5760405162461bcd60e51b815260206004820152601f60248201527f5265656e7472616e637947756172643a207265656e7472616e742063616c6c006044820152606401610597565b6002600055565b80516020808301516040808501516060860151608087015160a088015160c089015160e08a01516101008b01516101208c01516101408d01516101608e01516101808f01518051908e01209a5160009e6115fc9e7f40261ade532fa1d2c7293df30aaadb9b3c616fae525a0b56d3d411c841a850289e919d919c9b9a999897969594939201612f67565b604051602081830303815290604052805190602001209050919050565b6008600061162d60408501602086016128b6565b6001600160a01b0316815260208082019290925260409081016000908120610100860135825290925290205460ff161580156116a257506007600061167860408501602086016128b6565b6001600160a01b03166001600160a01b031681526020019081526020016000205482610100013510155b6116ee5760405162461bcd60e51b815260206004820152601d60248201527f4f726465723a204d61746368696e67206f7264657220657870697265640000006044820152606401610597565b600061170060408401602085016128b6565b6001600160a01b0316036117565760405162461bcd60e51b815260206004820152601560248201527f4f726465723a20496e76616c6964207369676e657200000000000000000000006044820152606401610597565b60008260a00135116117aa5760405162461bcd60e51b815260206004820152601960248201527f4f726465723a20416d6f756e742063616e6e6f742062652030000000000000006044820152606401610597565b611802816117be60408501602086016128b6565b6117d06101c086016101a08701612ffa565b856101c00135866101e001357f000000000000000000000000000000000000000000000000000000000000000061212a565b61184e5760405162461bcd60e51b815260206004820152601260248201527f5369676e61747572653a20496e76616c696400000000000000000000000000006044820152606401610597565b6003546001600160a01b03166343b938c5611870610100850160e086016128b6565b6040517fffffffff0000000000000000000000000000000000000000000000000000000060e084901b1681526001600160a01b039091166004820152602401602060405180830381865afa1580156118cc573d6000803e3d6000fd5b505050506040513d601f19601f820116820180604052508101906118f09190613015565b61193c5760405162461bcd60e51b815260206004820152601960248201527f43757272656e63793a204e6f742077686974656c6973746564000000000000006044820152606401610597565b6004546001600160a01b031663999ba27c61195d60e0850160c086016128b6565b6040517fffffffff0000000000000000000000000000000000000000000000000000000060e084901b1681526001600160a01b039091166004820152602401602060405180830381865afa1580156119b9573d6000803e3d6000fd5b505050506040513d601f19601f820116820180604052508101906119dd9190613015565b611a295760405162461bcd60e51b815260206004820152601960248201527f53747261746567793a204e6f742077686974656c6973746564000000000000006044820152606401610597565b5050565b6006546040517fcc1594930000000000000000000000000000000000000000000000000000000081526001600160a01b038981166004830152600092169063cc15949390602401602060405180830381865afa158015611a91573d6000803e3d6000fd5b505050506040513d601f19601f82011682018060405250810190611ab59190613032565b90506001600160a01b038116611b335760405162461bcd60e51b815260206004820152602b60248201527f5472616e736665723a204e6f204e4654207472616e73666572206d616e61676560448201527f7220617661696c61626c650000000000000000000000000000000000000000006064820152608401610597565b6040517f849b95a70000000000000000000000000000000000000000000000000000000081526001600160a01b0382169063849b95a790611b84908b908b908b908b908b908b908b9060040161304f565b600060405180830381600087803b158015611b9e57600080fd5b505af1158015611bb2573d6000803e3d6000fd5b505050505050505050505050565b816000611bcd8a836122ca565b6002549091506001600160a01b031615801590611be957508015155b15611c1757600254611c0a906001600160a01b038981169189911684612350565b611c14818361309d565b91505b50600554604051637a7b1afd60e11b81526001600160a01b038a81166004830152602482018a905260448201869052600092839291169063f4f635fa906064016040805180830381865afa158015611c73573d6000803e3d6000fd5b505050506040513d601f19601f82011682018060405250810190611c9791906130b0565b90925090506001600160a01b03821615801590611cb357508015155b15611d3c57611ccd6001600160a01b038916888484612350565b611cd7818461309d565b9250816001600160a01b0316898b6001600160a01b03167f27c4f0403323142b599832f26acd21c74a9e5b809f2215726e244a4ac588cd7d8b85604051611d339291906001600160a01b03929092168252602082015260400190565b60405180910390a45b50611d49905083836130de565b611d55826127106130de565b1015611da35760405162461bcd60e51b815260206004820152601a60248201527f466565733a20486967686572207468616e2065787065637465640000000000006044820152606401610597565b611db86001600160a01b038716868684612350565b505050505050505050565b611dd360e0840160c085016128b6565b6001600160a01b0316611dec60408501602086016128b6565b6001600160a01b0316611e0560408701602088016128b6565b6001600160a01b03167f95fb6205e23ff6bda16a2d1dba56b9ad7c783f67c96fa149785052f47696f2be856101008801803590611e459060e08b016128b6565b611e5560608b0160408c016128b6565b6040805194855260208501939093526001600160a01b03918216848401521660608301526080808a01359083015260a0820187905289013560c082015260e00160405180910390a450505050565b611eb360e0840160c085016128b6565b6001600160a01b0316611ecc60408501602086016128b6565b6001600160a01b0316611ee560408701602088016128b6565b6001600160a01b03167f68cd251d4d267c6e2034ff0088b990352b97b2002c0476587d0c4da889c11330856101008801803590611e459060e08b016128b6565b816000611f3288836122ca565b6002549091506001600160a01b031615801590611f4e57508015155b15611f7657600254611f69906001600160a01b0316826123d8565b611f73818361309d565b91505b50600554604051637a7b1afd60e11b81526001600160a01b0388811660048301526024820188905260448201869052600092839291169063f4f635fa906064016040805180830381865afa158015611fd2573d6000803e3d6000fd5b505050506040513d601f19601f82011682018060405250810190611ff691906130b0565b90925090506001600160a01b0382161580159061201257508015155b156120b05761202182826123d8565b61202b818461309d565b9250816001600160a01b031687896001600160a01b03167f27c4f0403323142b599832f26acd21c74a9e5b809f2215726e244a4ac588cd7d7f0000000000000000000000000000000000000000000000000000000000000000856040516120a79291906001600160a01b03929092168252602082015260400190565b60405180910390a45b506120bd905083836130de565b6120c9826127106130de565b10156121175760405162461bcd60e51b815260206004820152601a60248201527f466565733a20486967686572207468616e2065787065637465640000000000006044820152606401610597565b61212184826123d8565b50505050505050565b6040517f1901000000000000000000000000000000000000000000000000000000000000602082015260228101829052604281018790526000908190606201604051602081830303815290604052805190602001209050612194876001600160a01b03163b151590565b1561229c57604080516020810187905280820186905260f888901b7fff000000000000000000000000000000000000000000000000000000000000001660608201528151604181830301815260618201928390527f1626ba7e000000000000000000000000000000000000000000000000000000009092526001600160a01b03891691631626ba7e9161222b918591606501613145565b602060405180830381865afa158015612248573d6000803e3d6000fd5b505050506040513d601f19601f8201168201806040525081019061226c919061315e565b7bffffffffffffffffffffffffffffffffffffffffffffffffffffffff1916631626ba7e60e01b149150506122c0565b866001600160a01b03166122b2828888886124f6565b6001600160a01b0316149150505b9695505050505050565b600080836001600160a01b0316639dd1cda66040518163ffffffff1660e01b8152600401602060405180830381865afa15801561230b573d6000803e3d6000fd5b505050506040513d601f19601f8201168201806040525081019061232f91906131a0565b905061271061233e84836130de565b61234891906131b9565b949350505050565b604080516001600160a01b0385811660248301528416604482015260648082018490528251808303909101815260849091019091526020810180517bffffffffffffffffffffffffffffffffffffffffffffffffffffffff167f23b872dd00000000000000000000000000000000000000000000000000000000179052610a48908590612689565b804710156124285760405162461bcd60e51b815260206004820152601d60248201527f416464726573733a20696e73756666696369656e742062616c616e63650000006044820152606401610597565b6000826001600160a01b03168260405160006040518083038185875af1925050503d8060008114612475576040519150601f19603f3d011682016040523d82523d6000602084013e61247a565b606091505b50509050806124f15760405162461bcd60e51b815260206004820152603a60248201527f416464726573733a20756e61626c6520746f2073656e642076616c75652c207260448201527f6563697069656e74206d617920686176652072657665727465640000000000006064820152608401610597565b505050565b60007f7fffffffffffffffffffffffffffffff5d576e7357a4501ddfe92f46681b20a08211156125685760405162461bcd60e51b815260206004820152601e60248201527f5369676e61747572653a20496e76616c6964207320706172616d6574657200006044820152606401610597565b8360ff16601b148061257d57508360ff16601c145b6125c95760405162461bcd60e51b815260206004820152601e60248201527f5369676e61747572653a20496e76616c6964207620706172616d6574657200006044820152606401610597565b6040805160008082526020820180845288905260ff871692820192909252606081018590526080810184905260019060a0016020604051602081039080840390855afa15801561261d573d6000803e3d6000fd5b5050604051601f1901519150506001600160a01b0381166126805760405162461bcd60e51b815260206004820152601960248201527f5369676e61747572653a20496e76616c6964207369676e6572000000000000006044820152606401610597565b95945050505050565b60006126de826040518060400160405280602081526020017f5361666545524332303a206c6f772d6c6576656c2063616c6c206661696c6564815250856001600160a01b031661276e9092919063ffffffff16565b8051909150156124f157808060200190518101906126fc9190613015565b6124f15760405162461bcd60e51b815260206004820152602a60248201527f5361666545524332303a204552433230206f7065726174696f6e20646964206e60448201527f6f742073756363656564000000000000000000000000000000000000000000006064820152608401610597565b6060612348848460008585600080866001600160a01b0316858760405161279591906131db565b60006040518083038185875af1925050503d80600081146127d2576040519150601f19603f3d011682016040523d82523d6000602084013e6127d7565b606091505b50915091506127e8878383876127f3565b979650505050505050565b6060831561286257825160000361285b576001600160a01b0385163b61285b5760405162461bcd60e51b815260206004820152601d60248201527f416464726573733a2063616c6c20746f206e6f6e2d636f6e74726163740000006044820152606401610597565b5081612348565b61234883838151156128775781518083602001fd5b8060405162461bcd60e51b815260040161059791906131f7565b6001600160a01b038116811461102d57600080fd5b80356128b181612891565b919050565b6000602082840312156128c857600080fd5b81356128d381612891565b9392505050565b600080604083850312156128ed57600080fd5b82356128f881612891565b946020939093013593505050565b6000806020838503121561291957600080fd5b823567ffffffffffffffff8082111561293157600080fd5b818501915085601f83011261294557600080fd5b81358181111561295457600080fd5b8660208260051b850101111561296957600080fd5b60209290920196919550909350505050565b6000806000806060858703121561299157600080fd5b843567ffffffffffffffff808211156129a957600080fd5b9086019060c082890312156129bd57600080fd5b909450602086013590808211156129d357600080fd5b9086019061020082890312156129e857600080fd5b909350604086013590808211156129fe57600080fd5b818701915087601f830112612a1257600080fd5b813581811115612a2157600080fd5b886020828501011115612a3357600080fd5b95989497505060200194505050565b600060208284031215612a5457600080fd5b5035919050565b634e487b7160e01b600052603260045260246000fd5b6020815281602082015260007f07ffffffffffffffffffffffffffffffffffffffffffffffffffffffffffffff831115612aaa57600080fd5b8260051b80856040850137919091016040019392505050565b801515811461102d57600080fd5b80356128b181612ac3565b600060208284031215612aee57600080fd5b81356128d381612ac3565b634e487b7160e01b600052604160045260246000fd5b604051610200810167ffffffffffffffff81118282101715612b3357612b33612af9565b60405290565b600082601f830112612b4a57600080fd5b813567ffffffffffffffff80821115612b6557612b65612af9565b604051601f8301601f19908116603f01168101908282118183101715612b8d57612b8d612af9565b81604052838152866020858801011115612ba657600080fd5b836020870160208301376000602085830101528094505050505092915050565b803560ff811681146128b157600080fd5b60006102008236031215612bea57600080fd5b612bf2612b0f565b612bfb83612ad1565b8152612c09602084016128a6565b6020820152612c1a604084016128a6565b6040820152606083013560608201526080830135608082015260a083013560a0820152612c4960c084016128a6565b60c0820152612c5a60e084016128a6565b60e082015261010083810135908201526101208084013590820152610140808401359082015261016080840135908201526101808084013567ffffffffffffffff811115612ca757600080fd5b612cb336828701612b39565b8284015250506101a0612cc7818501612bc6565b908201526101c083810135908201526101e092830135928101929092525090565b6000808335601e19843603018112612cff57600080fd5b830160208101925035905067ffffffffffffffff811115612d1f57600080fd5b803603821315612d2e57600080fd5b9250929050565b81835281816020850137506000828201602090810191909152601f909101601f19169091010190565b6040815260006101008435612d7281612ac3565b151560408401526020850135612d8781612891565b6001600160a01b03811660608501525060408501356080840152606085013560a0840152608085013560c0840152612dc260a0860186612ce8565b60c060e0860152612dd68386018284612d35565b9150508381036020850152610200612df782612df188612ad1565b15159052565b612e03602087016128a6565b6001600160a01b03166020830152612e1d604087016128a6565b6001600160a01b038116604084015250606086013560608301526080860135608083015260a086013560a0830152612e5760c087016128a6565b6001600160a01b031660c0830152612e7160e087016128a6565b6001600160a01b031660e0830152828601359282019290925261012080860135908201526101408086013590820152610160808601359082015261018091612ebb83870187612ce8565b8285850152612ecd8385018284612d35565b94505050506101a0612ee0818701612bc6565b60ff16908201526101c085810135908201526101e094850135940193909352509092915050565b600080600060608486031215612f1c57600080fd5b8351612f2781612ac3565b602085015160409095015190969495509392505050565b634e487b7160e01b600052601160045260246000fd5b8082018082111561053757610537612f3e565b8e81528d151560208201526001600160a01b038d811660408301528c1660608201526101c081018b60808301528a60a08301528960c0830152612fb560e083018a6001600160a01b03169052565b6001600160a01b0388166101008301526101208201969096526101408101949094526101608401929092526101808301526101a0909101529998505050505050505050565b60006020828403121561300c57600080fd5b6128d382612bc6565b60006020828403121561302757600080fd5b81516128d381612ac3565b60006020828403121561304457600080fd5b81516128d381612891565b60006001600160a01b03808a168352808916602084015280881660408401525085606083015284608083015260c060a083015261309060c083018486612d35565b9998505050505050505050565b8181038181111561053757610537612f3e565b600080604083850312156130c357600080fd5b82516130ce81612891565b6020939093015192949293505050565b808202811582820484141761053757610537612f3e565b60005b838110156131105781810151838201526020016130f8565b50506000910152565b600081518084526131318160208601602086016130f5565b601f01601f19169290920160200192915050565b8281526040602082015260006123486040830184613119565b60006020828403121561317057600080fd5b81517fffffffff00000000000000000000000000000000000000000000000000000000811681146128d357600080fd5b6000602082840312156131b257600080fd5b5051919050565b6000826131d657634e487b7160e01b600052601260045260246000fd5b500490565b600082516131ed8184602087016130f5565b9190910192915050565b6020815260006128d3602083018461311956fea2646970667358221220a826f8a2ca3c106afcf8ce3a9300dc74c64525fb4c80bd0182fcbcfae074d1f264736f6c63430008110033",
  "linkReferences": {},
  "deployedLinkReferences": {}
}