{
  "_format": "hh-sol-artifact-1",
  "contractName": "RoyaltyFeeRegistry",
  "sourceName": "src/fee/RoyaltyFeeRegistry.sol",
  "abi": [
    {
      "inputs": [
        {
          "internalType": "uint256",
          "name": "_royaltyFeeLimit",
          "type": "uint256"
        }
      ],
      "stateMutability": "nonpayable",
      "type": "constructor"
    },
    {
      "anonymous": false,
      "inputs": [
        {
          "indexed": false,
          "internalType": "uint256",
          "name": "royaltyFeeLimit",
          "type": "uint256"
        }
      ],
      "name": "NewRoyaltyFeeLimit",
      "type": "event"
    },
    {
      "anonymous": false,
      "inputs": [
        {
          "indexed": true,
          "internalType": "address",
          "name": "previousOwner",
          "type": "address"
        },
        {
          "indexed": true,
          "internalType": "address",
          "name": "newOwner",
          "type": "address"
        }
      ],
      "name": "OwnershipTransferred",
      "type": "event"
    },
    {
      "anonymous": false,
      "inputs": [
        {
          "indexed": true,
          "internalType": "address",
          "name": "collection",
          "type": "address"
        },
        {
          "indexed": true,
          "internalType": "address",
          "name": "setter",
          "type": "address"
        },
        {
          "indexed": true,
          "internalType": "address",
          "name": "receiver",
          "type": "address"
        },
        {
          "indexed": false,
          "internalType": "uint256",
          "name": "fee",
          "type": "uint256"
        }
      ],
      "name": "RoyaltyFeeUpdate",
      "type": "event"
    },
    {
      "inputs": [],
      "name": "owner",
      "outputs": [
        {
          "internalType": "address",
          "name": "",
          "type": "address"
        }
      ],
      "stateMutability": "view",
      "type": "function"
    },
    {
      "inputs": [],
      "name": "renounceOwnership",
      "outputs": [],
      "stateMutability": "nonpayable",
      "type": "function"
    },
    {
      "inputs": [
        {
          "internalType": "address",
          "name": "collection",
          "type": "address"
        }
      ],
      "name": "royaltyFeeInfoCollection",
      "outputs": [
        {
          "internalType": "address",
          "name": "",
          "type": "address"
        },
        {
          "internalType": "address",
          "name": "",
          "type": "address"
        },
        {
          "internalType": "uint256",
          "name": "",
          "type": "uint256"
        }
      ],
      "stateMutability": "view",
      "type": "function"
    },
    {
      "inputs": [],
      "name": "royaltyFeeLimit",
      "outputs": [
        {
          "internalType": "uint256",
          "name": "",
          "type": "uint256"
        }
      ],
      "stateMutability": "view",
      "type": "function"
    },
    {
      "inputs": [
        {
          "internalType": "address",
          "name": "collection",
          "type": "address"
        },
        {
          "internalType": "uint256",
          "name": "amount",
          "type": "uint256"
        }
      ],
      "name": "royaltyInfo",
      "outputs": [
        {
          "internalType": "address",
          "name": "",
          "type": "address"
        },
        {
          "internalType": "uint256",
          "name": "",
          "type": "uint256"
        }
      ],
      "stateMutability": "view",
      "type": "function"
    },
    {
      "inputs": [
        {
          "internalType": "address",
          "name": "newOwner",
          "type": "address"
        }
      ],
      "name": "transferOwnership",
      "outputs": [],
      "stateMutability": "nonpayable",
      "type": "function"
    },
    {
      "inputs": [
        {
          "internalType": "uint256",
          "name": "_royaltyFeeLimit",
          "type": "uint256"
        }
      ],
      "name": "updateRoyaltyFeeLimit",
      "outputs": [],
      "stateMutability": "nonpayable",
      "type": "function"
    },
    {
      "inputs": [
        {
          "internalType": "address",
          "name": "collection",
          "type": "address"
        },
        {
          "internalType": "address",
          "name": "setter",
          "type": "address"
        },
        {
          "internalType": "address",
          "name": "receiver",
          "type": "address"
        },
        {
          "internalType": "uint256",
          "name": "fee",
          "type": "uint256"
        }
      ],
      "name": "updateRoyaltyInfoForCollection",
      "outputs": [],
      "stateMutability": "nonpayable",
      "type": "function"
    }
  ],
  "bytecode": "0x608060405234801561001057600080fd5b5060405161077838038061077883398101604081905261002f916100f0565b610038336100a0565b61251c8111156100985760405162461bcd60e51b815260206004820152602160248201527f4f776e65723a20526f79616c747920666565206c696d697420746f6f206869676044820152600d60fb1b606482015260840160405180910390fd5b600155610109565b600080546001600160a01b038381166001600160a01b0319831681178455604051919092169283917f8be0079c531659141344cd1fd0a4f28419497f9722a3daafe3b4186f6b6457e09190a35050565b60006020828403121561010257600080fd5b5051919050565b610660806101186000396000f3fe608060405234801561001057600080fd5b50600436106100885760003560e01c8063b9223c9d1161005b578063b9223c9d14610100578063bbdf9b6814610113578063e31ef91c14610126578063f2fde38b1461018b57600080fd5b80632782d6c71461008d5780634fb7d3f9146100c4578063715018a6146100db5780638da5cb5b146100e5575b600080fd5b6100a061009b36600461052d565b61019e565b604080516001600160a01b0390931683526020830191909152015b60405180910390f35b6100cd60015481565b6040519081526020016100bb565b6100e36101eb565b005b6000546040516001600160a01b0390911681526020016100bb565b6100e361010e366004610557565b6101ff565b6100e3610121366004610570565b6102bf565b6101656101343660046105bb565b6001600160a01b03908116600090815260026020819052604090912080546001820154919092015491831693921691565b604080516001600160a01b039485168152939092166020840152908201526060016100bb565b6100e36101993660046105bb565b6103ca565b6001600160a01b0380831660009081526002602081905260408220600181015491015491928392911690612710906101d690866105dd565b6101e09190610608565b915091509250929050565b6101f361045a565b6101fd60006104b4565b565b61020761045a565b61251c8111156102845760405162461bcd60e51b815260206004820152602160248201527f4f776e65723a20526f79616c747920666565206c696d697420746f6f2068696760448201527f680000000000000000000000000000000000000000000000000000000000000060648201526084015b60405180910390fd5b60018190556040518181527f2da7166c72ef3860ef4fb2571105533c40615269a6dbc38ce0b264910df1c2569060200160405180910390a150565b6102c761045a565b6001548111156103195760405162461bcd60e51b815260206004820152601e60248201527f52656769737472793a20526f79616c74792066656520746f6f20686967680000604482015260640161027b565b604080516060810182526001600160a01b0385811680835285821660208085018281528587018881528b861660008181526002808652908a90209851895490891673ffffffffffffffffffffffffffffffffffffffff19918216178a55935160018a0180549190991694169390931790965551950194909455935185815290927fd01984afa6e37420452e575e7d99dd7e632b3ec8ea2adec998475b76ca494d64910160405180910390a450505050565b6103d261045a565b6001600160a01b03811661044e5760405162461bcd60e51b815260206004820152602660248201527f4f776e61626c653a206e6577206f776e657220697320746865207a65726f206160448201527f6464726573730000000000000000000000000000000000000000000000000000606482015260840161027b565b610457816104b4565b50565b6000546001600160a01b031633146101fd5760405162461bcd60e51b815260206004820181905260248201527f4f776e61626c653a2063616c6c6572206973206e6f7420746865206f776e6572604482015260640161027b565b600080546001600160a01b0383811673ffffffffffffffffffffffffffffffffffffffff19831681178455604051919092169283917f8be0079c531659141344cd1fd0a4f28419497f9722a3daafe3b4186f6b6457e09190a35050565b80356001600160a01b038116811461052857600080fd5b919050565b6000806040838503121561054057600080fd5b61054983610511565b946020939093013593505050565b60006020828403121561056957600080fd5b5035919050565b6000806000806080858703121561058657600080fd5b61058f85610511565b935061059d60208601610511565b92506105ab60408601610511565b9396929550929360600135925050565b6000602082840312156105cd57600080fd5b6105d682610511565b9392505050565b808202811582820484141761060257634e487b7160e01b600052601160045260246000fd5b92915050565b60008261062557634e487b7160e01b600052601260045260246000fd5b50049056fea26469706673582212200cea716f4b4351882df035add1d87cdb4eeed231713341e3bb3d80e300315cd764736f6c63430008110033",
  "linkReferences": {},
  "deployedLinkReferences": {}
}