{
  "_format": "hh-sol-artifact-1",
  "contractName": "SimpleStorage",
  "sourceName": "src/SimpleTest.sol",
  "abi": [
    {
      "inputs": [],
      "name": "DOMAIN_SEPARATOR",
      "outputs": [
        {
          "internalType": "bytes32",
          "name": "",
          "type": "bytes32"
        }
      ],
      "stateMutability": "view",
      "type": "function"
    },
    {
      "inputs": [
        {
          "internalType": "uint8",
          "name": "v",
          "type": "uint8"
        },
        {
          "internalType": "bytes32",
          "name": "r",
          "type": "bytes32"
        },
        {
          "internalType": "bytes32",
          "name": "s",
          "type": "bytes32"
        },
        {
          "internalType": "address",
          "name": "sender",
          "type": "address"
        },
        {
          "internalType": "uint256",
          "name": "deadline",
          "type": "uint256"
        },
        {
          "internalType": "uint256",
          "name": "x",
          "type": "uint256"
        }
      ],
      "name": "executeSetIfSignatureMatch",
      "outputs": [],
      "stateMutability": "nonpayable",
      "type": "function"
    },
    {
      "inputs": [],
      "name": "get",
      "outputs": [
        {
          "internalType": "uint256",
          "name": "",
          "type": "uint256"
        }
      ],
      "stateMutability": "view",
      "type": "function"
    }
  ],
  "bytecode": "0x60076080526614d95d15195cdd60ca1b60a0908152600160c0819052603160f81b60e0527f8b73c3c69bb8fe3d512ecc4cf759cc79239f7b179b0ffacaa9a75d522b39400f6101209081527f89c49301b45a7e391d6cf20444403311006c3f48bd8e1817a8f37a42eec6ade5610140527fc89efdaa54c0f20c7adf612882df0950f5a951637e0307cdcb4c672f298b8bc661016052600561018052306101a0526101008390526101c06040529190912090553480156100bd57600080fd5b5061035b806100cd6000396000f3fe608060405234801561001057600080fd5b50600436106100415760003560e01c8063314eb903146100465780633644e5151461005b5780636d4ce63c14610076575b600080fd5b6100596100543660046102b7565b61007e565b005b61006460015481565b60405190815260200160405180910390f35b600054610064565b8142106100d25760405162461bcd60e51b815260206004820152601a60248201527f5369676e6564207472616e73616374696f6e206578706972656400000000000060448201526064015b60405180910390fd5b604080517f94cad2359ed2e2f8c0a4743f10ef1ce5153ec32fdb472bc63d96d12da92f839b6020808301919091526001600160a01b038616828401526060820184905260808083018690528351808403909101815260a0830190935282519201919091206001547f190100000000000000000000000000000000000000000000000000000000000060c084015260c283015260e2820181905246916000906101020160408051601f198184030181528282528051602091820120600080855291840180845281905260ff8d1692840192909252606083018b9052608083018a90529092509060019060a0016020604051602081039080840390855afa1580156101df573d6000803e3d6000fd5b505050602060405103519050866001600160a01b0316816001600160a01b03161461024c5760405162461bcd60e51b815260206004820152601d60248201527f4d7946756e6374696f6e3a20696e76616c6964207369676e617475726500000060448201526064016100c9565b6001600160a01b0381166102a25760405162461bcd60e51b815260206004820152601860248201527f45434453413a20696e76616c6964207369676e6174757265000000000000000060448201526064016100c9565b6102ab85600055565b50505050505050505050565b60008060008060008060c087890312156102d057600080fd5b863560ff811681146102e157600080fd5b9550602087013594506040870135935060608701356001600160a01b038116811461030b57600080fd5b9598949750929560808101359460a090910135935091505056fea2646970667358221220fa8fd6e4e16803d5a0a4de2c5690b58c5cb60d0cb6578f4420ee09a874deb3e764736f6c63430008110033",
  "linkReferences": {},
  "deployedLinkReferences": {}
}