{
  "_format": "hh-sol-artifact-1",
  "contractName": "ERC721NetexDrop",
  "sourceName": "src/factory/templates/mintable/ERC721NetexDrop.sol",
  "abi": [
    {
      "inputs": [],
      "stateMutability": "nonpayable",
      "type": "constructor"
    },
    {
      "inputs": [],
      "name": "ApprovalCallerNotOwnerNorApproved",
      "type": "error"
    },
    {
      "inputs": [],
      "name": "ApprovalQueryForNonexistentToken",
      "type": "error"
    },
    {
      "inputs": [],
      "name": "BalanceQueryForZeroAddress",
      "type": "error"
    },
    {
      "inputs": [
        {
          "internalType": "uint256",
          "name": "newMaxSupply",
          "type": "uint256"
        }
      ],
      "name": "CannotExceedMaxSupplyOfUint64",
      "type": "error"
    },
    {
      "inputs": [
        {
          "internalType": "uint256",
          "name": "basisPoints",
          "type": "uint256"
        }
      ],
      "name": "InvalidRoyaltyBasisPoints",
      "type": "error"
    },
    {
      "inputs": [],
      "name": "MaxSupplyReached",
      "type": "error"
    },
    {
      "inputs": [],
      "name": "MintERC2309QuantityExceedsLimit",
      "type": "error"
    },
    {
      "inputs": [],
      "name": "MintToZeroAddress",
      "type": "error"
    },
    {
      "inputs": [],
      "name": "MintZeroQuantity",
      "type": "error"
    },
    {
      "inputs": [],
      "name": "MinterIsZeroAddress",
      "type": "error"
    },
    {
      "inputs": [],
      "name": "NotMinter",
      "type": "error"
    },
    {
      "inputs": [],
      "name": "OnlyOwner",
      "type": "error"
    },
    {
      "inputs": [],
      "name": "OwnerQueryForNonexistentToken",
      "type": "error"
    },
    {
      "inputs": [],
      "name": "OwnershipNotInitializedForExtraData",
      "type": "error"
    },
    {
      "inputs": [],
      "name": "RoyaltyAddressCannotBeZeroAddress",
      "type": "error"
    },
    {
      "inputs": [],
      "name": "TransferCallerNotOwnerNorApproved",
      "type": "error"
    },
    {
      "inputs": [],
      "name": "TransferFromIncorrectOwner",
      "type": "error"
    },
    {
      "inputs": [],
      "name": "TransferToNonERC721ReceiverImplementer",
      "type": "error"
    },
    {
      "inputs": [],
      "name": "TransferToZeroAddress",
      "type": "error"
    },
    {
      "inputs": [],
      "name": "URIQueryForNonexistentToken",
      "type": "error"
    },
    {
      "anonymous": false,
      "inputs": [
        {
          "indexed": true,
          "internalType": "address",
          "name": "owner",
          "type": "address"
        },
        {
          "indexed": true,
          "internalType": "address",
          "name": "approved",
          "type": "address"
        },
        {
          "indexed": true,
          "internalType": "uint256",
          "name": "tokenId",
          "type": "uint256"
        }
      ],
      "name": "Approval",
      "type": "event"
    },
    {
      "anonymous": false,
      "inputs": [
        {
          "indexed": true,
          "internalType": "address",
          "name": "owner",
          "type": "address"
        },
        {
          "indexed": true,
          "internalType": "address",
          "name": "operator",
          "type": "address"
        },
        {
          "indexed": false,
          "internalType": "bool",
          "name": "approved",
          "type": "bool"
        }
      ],
      "name": "ApprovalForAll",
      "type": "event"
    },
    {
      "anonymous": false,
      "inputs": [
        {
          "indexed": false,
          "internalType": "uint256",
          "name": "_fromTokenId",
          "type": "uint256"
        },
        {
          "indexed": false,
          "internalType": "uint256",
          "name": "_toTokenId",
          "type": "uint256"
        }
      ],
      "name": "BatchMetadataUpdate",
      "type": "event"
    },
    {
      "anonymous": false,
      "inputs": [
        {
          "indexed": true,
          "internalType": "uint256",
          "name": "fromTokenId",
          "type": "uint256"
        },
        {
          "indexed": false,
          "internalType": "uint256",
          "name": "toTokenId",
          "type": "uint256"
        },
        {
          "indexed": true,
          "internalType": "address",
          "name": "from",
          "type": "address"
        },
        {
          "indexed": true,
          "internalType": "address",
          "name": "to",
          "type": "address"
        }
      ],
      "name": "ConsecutiveTransfer",
      "type": "event"
    },
    {
      "anonymous": false,
      "inputs": [
        {
          "indexed": false,
          "internalType": "string",
          "name": "newContractURI",
          "type": "string"
        }
      ],
      "name": "ContractURIUpdated",
      "type": "event"
    },
    {
      "anonymous": false,
      "inputs": [
        {
          "indexed": false,
          "internalType": "uint8",
          "name": "version",
          "type": "uint8"
        }
      ],
      "name": "Initialized",
      "type": "event"
    },
    {
      "anonymous": false,
      "inputs": [
        {
          "indexed": false,
          "internalType": "uint256",
          "name": "newMaxSupply",
          "type": "uint256"
        }
      ],
      "name": "MaxSupplyUpdated",
      "type": "event"
    },
    {
      "anonymous": false,
      "inputs": [
        {
          "indexed": false,
          "internalType": "address",
          "name": "oldMinter",
          "type": "address"
        },
        {
          "indexed": false,
          "internalType": "address",
          "name": "newMinter",
          "type": "address"
        }
      ],
      "name": "MinterUpdated",
      "type": "event"
    },
    {
      "anonymous": false,
      "inputs": [
        {
          "indexed": true,
          "internalType": "address",
          "name": "previousOwner",
          "type": "address"
        },
        {
          "indexed": true,
          "internalType": "address",
          "name": "newOwner",
          "type": "address"
        }
      ],
      "name": "OwnershipTransferred",
      "type": "event"
    },
    {
      "anonymous": false,
      "inputs": [
        {
          "indexed": false,
          "internalType": "address",
          "name": "receiver",
          "type": "address"
        },
        {
          "indexed": false,
          "internalType": "uint256",
          "name": "bps",
          "type": "uint256"
        }
      ],
      "name": "RoyaltyInfoUpdated",
      "type": "event"
    },
    {
      "anonymous": false,
      "inputs": [
        {
          "indexed": true,
          "internalType": "address",
          "name": "from",
          "type": "address"
        },
        {
          "indexed": true,
          "internalType": "address",
          "name": "to",
          "type": "address"
        },
        {
          "indexed": true,
          "internalType": "uint256",
          "name": "tokenId",
          "type": "uint256"
        }
      ],
      "name": "Transfer",
      "type": "event"
    },
    {
      "inputs": [
        {
          "internalType": "address",
          "name": "to",
          "type": "address"
        },
        {
          "internalType": "uint256",
          "name": "tokenId",
          "type": "uint256"
        }
      ],
      "name": "approve",
      "outputs": [],
      "stateMutability": "nonpayable",
      "type": "function"
    },
    {
      "inputs": [
        {
          "internalType": "address",
          "name": "owner",
          "type": "address"
        }
      ],
      "name": "balanceOf",
      "outputs": [
        {
          "internalType": "uint256",
          "name": "",
          "type": "uint256"
        }
      ],
      "stateMutability": "view",
      "type": "function"
    },
    {
      "inputs": [],
      "name": "baseURI",
      "outputs": [
        {
          "internalType": "string",
          "name": "",
          "type": "string"
        }
      ],
      "stateMutability": "view",
      "type": "function"
    },
    {
      "inputs": [
        {
          "internalType": "uint256",
          "name": "_maxSupply",
          "type": "uint256"
        },
        {
          "internalType": "string",
          "name": "_baseUri",
          "type": "string"
        },
        {
          "internalType": "string",
          "name": "_contractURI",
          "type": "string"
        }
      ],
      "name": "configure",
      "outputs": [],
      "stateMutability": "nonpayable",
      "type": "function"
    },
    {
      "inputs": [],
      "name": "contractURI",
      "outputs": [
        {
          "internalType": "string",
          "name": "",
          "type": "string"
        }
      ],
      "stateMutability": "view",
      "type": "function"
    },
    {
      "inputs": [
        {
          "internalType": "uint256",
          "name": "fromTokenId",
          "type": "uint256"
        },
        {
          "internalType": "uint256",
          "name": "toTokenId",
          "type": "uint256"
        }
      ],
      "name": "emitBatchMetadataUpdate",
      "outputs": [],
      "stateMutability": "nonpayable",
      "type": "function"
    },
    {
      "inputs": [
        {
          "internalType": "uint256",
          "name": "tokenId",
          "type": "uint256"
        }
      ],
      "name": "getApproved",
      "outputs": [
        {
          "internalType": "address",
          "name": "",
          "type": "address"
        }
      ],
      "stateMutability": "view",
      "type": "function"
    },
    {
      "inputs": [
        {
          "internalType": "string",
          "name": "__name",
          "type": "string"
        },
        {
          "internalType": "string",
          "name": "__symbol",
          "type": "string"
        },
        {
          "internalType": "address",
          "name": "_initialOwner",
          "type": "address"
        },
        {
          "internalType": "bytes",
          "name": "",
          "type": "bytes"
        }
      ],
      "name": "initialize",
      "outputs": [],
      "stateMutability": "nonpayable",
      "type": "function"
    },
    {
      "inputs": [
        {
          "internalType": "address",
          "name": "owner",
          "type": "address"
        },
        {
          "internalType": "address",
          "name": "operator",
          "type": "address"
        }
      ],
      "name": "isApprovedForAll",
      "outputs": [
        {
          "internalType": "bool",
          "name": "",
          "type": "bool"
        }
      ],
      "stateMutability": "view",
      "type": "function"
    },
    {
      "inputs": [],
      "name": "maxSupply",
      "outputs": [
        {
          "internalType": "uint256",
          "name": "",
          "type": "uint256"
        }
      ],
      "stateMutability": "view",
      "type": "function"
    },
    {
      "inputs": [
        {
          "internalType": "address",
          "name": "to",
          "type": "address"
        },
        {
          "internalType": "uint256",
          "name": "quantity",
          "type": "uint256"
        }
      ],
      "name": "mint",
      "outputs": [],
      "stateMutability": "nonpayable",
      "type": "function"
    },
    {
      "inputs": [],
      "name": "minter",
      "outputs": [
        {
          "internalType": "address",
          "name": "",
          "type": "address"
        }
      ],
      "stateMutability": "view",
      "type": "function"
    },
    {
      "inputs": [],
      "name": "name",
      "outputs": [
        {
          "internalType": "string",
          "name": "",
          "type": "string"
        }
      ],
      "stateMutability": "view",
      "type": "function"
    },
    {
      "inputs": [],
      "name": "owner",
      "outputs": [
        {
          "internalType": "address",
          "name": "",
          "type": "address"
        }
      ],
      "stateMutability": "view",
      "type": "function"
    },
    {
      "inputs": [
        {
          "internalType": "uint256",
          "name": "tokenId",
          "type": "uint256"
        }
      ],
      "name": "ownerOf",
      "outputs": [
        {
          "internalType": "address",
          "name": "",
          "type": "address"
        }
      ],
      "stateMutability": "view",
      "type": "function"
    },
    {
      "inputs": [],
      "name": "renounceOwnership",
      "outputs": [],
      "stateMutability": "nonpayable",
      "type": "function"
    },
    {
      "inputs": [],
      "name": "royaltyAddress",
      "outputs": [
        {
          "internalType": "address",
          "name": "",
          "type": "address"
        }
      ],
      "stateMutability": "view",
      "type": "function"
    },
    {
      "inputs": [],
      "name": "royaltyBasisPoints",
      "outputs": [
        {
          "internalType": "uint256",
          "name": "",
          "type": "uint256"
        }
      ],
      "stateMutability": "view",
      "type": "function"
    },
    {
      "inputs": [
        {
          "internalType": "uint256",
          "name": "",
          "type": "uint256"
        },
        {
          "internalType": "uint256",
          "name": "_salePrice",
          "type": "uint256"
        }
      ],
      "name": "royaltyInfo",
      "outputs": [
        {
          "internalType": "address",
          "name": "receiver",
          "type": "address"
        },
        {
          "internalType": "uint256",
          "name": "royaltyAmount",
          "type": "uint256"
        }
      ],
      "stateMutability": "view",
      "type": "function"
    },
    {
      "inputs": [
        {
          "internalType": "address",
          "name": "from",
          "type": "address"
        },
        {
          "internalType": "address",
          "name": "to",
          "type": "address"
        },
        {
          "internalType": "uint256",
          "name": "tokenId",
          "type": "uint256"
        }
      ],
      "name": "safeTransferFrom",
      "outputs": [],
      "stateMutability": "nonpayable",
      "type": "function"
    },
    {
      "inputs": [
        {
          "internalType": "address",
          "name": "from",
          "type": "address"
        },
        {
          "internalType": "address",
          "name": "to",
          "type": "address"
        },
        {
          "internalType": "uint256",
          "name": "tokenId",
          "type": "uint256"
        },
        {
          "internalType": "bytes",
          "name": "_data",
          "type": "bytes"
        }
      ],
      "name": "safeTransferFrom",
      "outputs": [],
      "stateMutability": "nonpayable",
      "type": "function"
    },
    {
      "inputs": [
        {
          "internalType": "address",
          "name": "operator",
          "type": "address"
        },
        {
          "internalType": "bool",
          "name": "approved",
          "type": "bool"
        }
      ],
      "name": "setApprovalForAll",
      "outputs": [],
      "stateMutability": "nonpayable",
      "type": "function"
    },
    {
      "inputs": [
        {
          "internalType": "string",
          "name": "newBaseURI",
          "type": "string"
        }
      ],
      "name": "setBaseURI",
      "outputs": [],
      "stateMutability": "nonpayable",
      "type": "function"
    },
    {
      "inputs": [
        {
          "internalType": "string",
          "name": "newContractURI",
          "type": "string"
        }
      ],
      "name": "setContractURI",
      "outputs": [],
      "stateMutability": "nonpayable",
      "type": "function"
    },
    {
      "inputs": [
        {
          "internalType": "uint256",
          "name": "newMaxSupply",
          "type": "uint256"
        }
      ],
      "name": "setMaxSupply",
      "outputs": [],
      "stateMutability": "nonpayable",
      "type": "function"
    },
    {
      "inputs": [
        {
          "components": [
            {
              "internalType": "address",
              "name": "royaltyAddress",
              "type": "address"
            },
            {
              "internalType": "uint96",
              "name": "royaltyBps",
              "type": "uint96"
            }
          ],
          "internalType": "struct ISeaDropTokenContractMetadata.RoyaltyInfo",
          "name": "newInfo",
          "type": "tuple"
        }
      ],
      "name": "setRoyaltyInfo",
      "outputs": [],
      "stateMutability": "nonpayable",
      "type": "function"
    },
    {
      "inputs": [
        {
          "internalType": "bytes4",
          "name": "interfaceId",
          "type": "bytes4"
        }
      ],
      "name": "supportsInterface",
      "outputs": [
        {
          "internalType": "bool",
          "name": "",
          "type": "bool"
        }
      ],
      "stateMutability": "view",
      "type": "function"
    },
    {
      "inputs": [],
      "name": "symbol",
      "outputs": [
        {
          "internalType": "string",
          "name": "",
          "type": "string"
        }
      ],
      "stateMutability": "view",
      "type": "function"
    },
    {
      "inputs": [
        {
          "internalType": "uint256",
          "name": "tokenId",
          "type": "uint256"
        }
      ],
      "name": "tokenURI",
      "outputs": [
        {
          "internalType": "string",
          "name": "",
          "type": "string"
        }
      ],
      "stateMutability": "view",
      "type": "function"
    },
    {
      "inputs": [],
      "name": "totalSupply",
      "outputs": [
        {
          "internalType": "uint256",
          "name": "",
          "type": "uint256"
        }
      ],
      "stateMutability": "view",
      "type": "function"
    },
    {
      "inputs": [
        {
          "internalType": "address",
          "name": "from",
          "type": "address"
        },
        {
          "internalType": "address",
          "name": "to",
          "type": "address"
        },
        {
          "internalType": "uint256",
          "name": "tokenId",
          "type": "uint256"
        }
      ],
      "name": "transferFrom",
      "outputs": [],
      "stateMutability": "nonpayable",
      "type": "function"
    },
    {
      "inputs": [
        {
          "internalType": "address",
          "name": "newOwner",
          "type": "address"
        }
      ],
      "name": "transferOwnership",
      "outputs": [],
      "stateMutability": "nonpayable",
      "type": "function"
    },
    {
      "inputs": [
        {
          "internalType": "address",
          "name": "_minter",
          "type": "address"
        }
      ],
      "name": "updateMinter",
      "outputs": [],
      "stateMutability": "nonpayable",
      "type": "function"
    }
  ],
  "bytecode": "0x608060405234801561001057600080fd5b5061001a3361001f565b610071565b600980546001600160a01b038381166001600160a01b0319831681179093556040519116919082907f8be0079c531659141344cd1fd0a4f28419497f9722a3daafe3b4186f6b6457e090600090a35050565b61219c806100806000396000f3fe608060405234801561001057600080fd5b506004361061020b5760003560e01c80636c0360eb1161012a578063a4830114116100bd578063d5abeb011161008c578063e8a3d48511610071578063e8a3d48514610477578063e985e9c51461047f578063f2fde38b146104bb57600080fd5b8063d5abeb011461045c578063d72a224c1461046457600080fd5b8063a483011414610412578063ad2f852a14610425578063b88d4fde14610436578063c87b56dd1461044957600080fd5b80638da5cb5b116100f95780638da5cb5b146103d3578063938e3d7b146103e457806395d89b41146103f7578063a22cb465146103ff57600080fd5b80636c0360eb1461039d5780636f8b44b0146103a557806370a08231146103b8578063715018a6146103cb57600080fd5b80632a55205a116101a257806344dae42c1161017157806344dae42c146103515780634eb03f6e1461036457806355f804b3146103775780636352211e1461038a57600080fd5b80632a55205a146102dc57806340c10f191461030e57806342260b5d1461032157806342842e0e1461033e57600080fd5b8063095ea7b3116101de578063095ea7b31461028b57806318160ddd146102a05780631eb40e21146102b657806323b872dd146102c957600080fd5b806301ffc9a71461021057806306fdde0314610238578063075461721461024d578063081812fc14610278575b600080fd5b61022361021e366004611916565b6104ce565b60405190151581526020015b60405180910390f35b610240610546565b60405161022f9190611983565b604054610260906001600160a01b031681565b6040516001600160a01b03909116815260200161022f565b610260610286366004611996565b6105d8565b61029e6102993660046119c4565b610635565b005b600254600154035b60405190815260200161022f565b61029e6102c4366004611ae5565b610718565b61029e6102d7366004611b89565b61073a565b6102ef6102ea366004611bca565b61093c565b604080516001600160a01b03909316835260208301919091520161022f565b61029e61031c3660046119c4565b610987565b600d54600160a01b90046bffffffffffffffffffffffff166102a8565b61029e61034c366004611b89565b610a3a565b61029e61035f366004611bec565b610a5a565b61029e610372366004611c04565b610bb1565b61029e610385366004611c21565b610bc5565b610260610398366004611996565b610c3a565b610240610c45565b61029e6103b3366004611996565b610c54565b6102a86103c6366004611c04565b610cd6565b61029e610d3e565b6009546001600160a01b0316610260565b61029e6103f2366004611c21565b610d52565b610240610d99565b61029e61040d366004611c63565b610da8565b61029e610420366004611bca565b610e14565b600d546001600160a01b0316610260565b61029e610444366004611ca1565b610e52565b610240610457366004611996565b610e9c565b600a546102a8565b61029e610472366004611d21565b610f39565b6102406110a2565b61022361048d366004611d8e565b6001600160a01b03918216600090815260086020908152604080832093909416825291909152205460ff1690565b61029e6104c9366004611c04565b6110b1565b60006001600160e01b031982167f2a55205a00000000000000000000000000000000000000000000000000000000148061053157507f49064906000000000000000000000000000000000000000000000000000000006001600160e01b03198316145b8061054057506105408261113e565b92915050565b60606003805461055590611dbc565b80601f016020809104026020016040519081016040528092919081815260200182805461058190611dbc565b80156105ce5780601f106105a3576101008083540402835291602001916105ce565b820191906000526020600020905b8154815290600101906020018083116105b157829003601f168201915b5050505050905090565b60006105e3826111d7565b610619576040517fcf4700e400000000000000000000000000000000000000000000000000000000815260040160405180910390fd5b506000908152600760205260409020546001600160a01b031690565b600061064082610c3a565b9050336001600160a01b038216146106af576001600160a01b038116600090815260086020908152604080832033845290915290205460ff166106af576040517fcfb3b94200000000000000000000000000000000000000000000000000000000815260040160405180910390fd5b600082815260076020526040808220805473ffffffffffffffffffffffffffffffffffffffff19166001600160a01b0387811691821790925591518593918516917f8c5be1e5ebec7d5bd14f71427d1e84f3dd0314c0f7b2291e5b200ac8c7c3b92591a4505050565b61072285856111ff565b61072a61128d565b61073383611300565b5050505050565b60006107458261135f565b9050836001600160a01b0316816001600160a01b031614610792576040517fa114810000000000000000000000000000000000000000000000000000000000815260040160405180910390fd5b60008281526007602052604090208054338082146001600160a01b03881690911417610815576001600160a01b038616600090815260086020908152604080832033845290915290205460ff16610815576040517f59c896be00000000000000000000000000000000000000000000000000000000815260040160405180910390fd5b6001600160a01b038516610855576040517fea553b3400000000000000000000000000000000000000000000000000000000815260040160405180910390fd5b801561086057600082555b6001600160a01b038681166000908152600660205260408082208054600019019055918716808252919020805460010190554260a01b17600160e11b17600085815260056020526040812091909155600160e11b841690036108f2576001840160008181526005602052604081205490036108f05760015481146108f05760008181526005602052604090208490555b505b83856001600160a01b0316876001600160a01b03167fddf252ad1be2c89b69c2b068fc378daa952ba7f163c4a11628f55a4df523b3ef60405160405180910390a45b505050505050565b600d805460009182916127109061096890600160a01b90046bffffffffffffffffffffffff1686611e06565b6109729190611e1d565b90546001600160a01b03169590945092505050565b61098f6113df565b6040546001600160a01b031633146109d3576040517ff8d2906c00000000000000000000000000000000000000000000000000000000815260040160405180910390fd5b600a54816109e060015490565b6109ea9190611e3f565b1115610a22576040517fd05cb60900000000000000000000000000000000000000000000000000000000815260040160405180910390fd5b610a2c8282611438565b610a366001600e55565b5050565b610a5583838360405180602001604052806000815250610e52565b505050565b610a62611459565b6000610a716020830183611c04565b6001600160a01b031603610ab1576040517f1cc0baef00000000000000000000000000000000000000000000000000000000815260040160405180910390fd5b612710610ac46040830160208401611e6c565b6bffffffffffffffffffffffff161115610b3057610ae86040820160208301611e6c565b6040517f3cadbafb0000000000000000000000000000000000000000000000000000000081526bffffffffffffffffffffffff90911660048201526024015b60405180910390fd5b80600d610b3d8282611e89565b507ff21fccf4d64d86d532c4e4eb86c007b6ad57a460c27d724188625e755ec6cf6d9050610b6e6020830183611c04565b610b7e6040840160208501611e6c565b604080516001600160a01b0390931683526bffffffffffffffffffffffff9091166020830152015b60405180910390a150565b610bb96114c2565b610bc28161151c565b50565b610bcd611459565b600b610bda828483611f1c565b5060025460015414610a36577f6bd5c950a8d8df17f772f5af37cb3655737899cbf903264b9795592da439661c600180610c1360015490565b610c1d9190611fdc565b604080519283526020830191909152015b60405180910390a15050565b60006105408261135f565b6060610c4f6115c0565b905090565b610c5c611459565b67ffffffffffffffff811115610ca1576040517fb43e913700000000000000000000000000000000000000000000000000000000815260048101829052602401610b27565b600a8190556040518181527f7810bd47de260c3e9ee10061cf438099dd12256c79485f12f94dbccc981e806c90602001610ba6565b60006001600160a01b038216610d18576040517f8f4eb60400000000000000000000000000000000000000000000000000000000815260040160405180910390fd5b506001600160a01b031660009081526006602052604090205467ffffffffffffffff1690565b610d466114c2565b610d506000611300565b565b610d5a611459565b600c610d67828483611f1c565b507f905d981207a7d0b6c62cc46ab0be2a076d0298e4a86d0ab79882dbd01ac373788282604051610c2e929190611fef565b60606004805461055590611dbc565b3360008181526008602090815260408083206001600160a01b03871680855290835292819020805460ff191686151590811790915590519081529192917f17307eab39ab6107e8899845ad3d59bd9653f200f220920489ca2b5937696c31910160405180910390a35050565b610e1c611459565b60408051838152602081018390527f6bd5c950a8d8df17f772f5af37cb3655737899cbf903264b9795592da439661c9101610c2e565b610e5d84848461073a565b6001600160a01b0383163b15610e9657610e79848484846115cf565b610e96576040516368d2bf6b60e11b815260040160405180910390fd5b50505050565b6060610ea7826111d7565b610edd576040517fa14c4b5000000000000000000000000000000000000000000000000000000000815260040160405180910390fd5b6000610ee76115c0565b90508051600003610f075760405180602001604052806000815250610f32565b80610f11846116ba565b604051602001610f2292919061201e565b6040516020818303038152906040525b9392505050565b610f416114c2565b8215610fb2576040517f6f8b44b0000000000000000000000000000000000000000000000000000000008152600481018490523090636f8b44b090602401600060405180830381600087803b158015610f9957600080fd5b505af1158015610fad573d6000803e3d6000fd5b505050505b815115611028576040517f55f804b300000000000000000000000000000000000000000000000000000000815230906355f804b390610ff5908590600401611983565b600060405180830381600087803b15801561100f57600080fd5b505af1158015611023573d6000803e3d6000fd5b505050505b805115610a55576040517f938e3d7b000000000000000000000000000000000000000000000000000000008152309063938e3d7b9061106b908490600401611983565b600060405180830381600087803b15801561108557600080fd5b505af1158015611099573d6000803e3d6000fd5b50505050505050565b6060600c805461055590611dbc565b6110b96114c2565b6001600160a01b0381166111355760405162461bcd60e51b815260206004820152602660248201527f4f776e61626c653a206e6577206f776e657220697320746865207a65726f206160448201527f64647265737300000000000000000000000000000000000000000000000000006064820152608401610b27565b610bc281611300565b60007f01ffc9a7000000000000000000000000000000000000000000000000000000006001600160e01b0319831614806111a157507f80ac58cd000000000000000000000000000000000000000000000000000000006001600160e01b03198316145b806105405750506001600160e01b0319167f5b5e139f000000000000000000000000000000000000000000000000000000001490565b600060015482108015610540575050600090815260056020526040902054600160e01b161590565b600054610100900460ff1661126a5760405162461bcd60e51b815260206004820152602b60248201527f496e697469616c697a61626c653a20636f6e7472616374206973206e6f74206960448201526a6e697469616c697a696e6760a81b6064820152608401610b27565b6003611276838261204d565b506004611283828261204d565b5060006001555050565b600054610100900460ff166112f85760405162461bcd60e51b815260206004820152602b60248201527f496e697469616c697a61626c653a20636f6e7472616374206973206e6f74206960448201526a6e697469616c697a696e6760a81b6064820152608401610b27565b610d506116fe565b600980546001600160a01b0383811673ffffffffffffffffffffffffffffffffffffffff19831681179093556040519116919082907f8be0079c531659141344cd1fd0a4f28419497f9722a3daafe3b4186f6b6457e090600090a35050565b6000816001548110156113ad5760008181526005602052604081205490600160e01b821690036113ab575b80600003610f3257506000190160008181526005602052604090205461138a565b505b6040517fdf2d9b4200000000000000000000000000000000000000000000000000000000815260040160405180910390fd5b6002600e54036114315760405162461bcd60e51b815260206004820152601f60248201527f5265656e7472616e637947756172643a207265656e7472616e742063616c6c006044820152606401610b27565b6002600e55565b610a36828260405180602001604052806000815250611769565b6001600e55565b3033146114886114716009546001600160a01b031690565b6001600160a01b0316336001600160a01b03161490565b17600003610d50576040517f5fc483c500000000000000000000000000000000000000000000000000000000815260040160405180910390fd5b6009546001600160a01b03163314610d505760405162461bcd60e51b815260206004820181905260248201527f4f776e61626c653a2063616c6c6572206973206e6f7420746865206f776e65726044820152606401610b27565b6001600160a01b03811661155c576040517fea23d2f400000000000000000000000000000000000000000000000000000000815260040160405180910390fd5b6040805473ffffffffffffffffffffffffffffffffffffffff1981166001600160a01b038481169182178455835192168083526020830191909152917f1cf2de25c5bf439ac0287061c3a0fa69b3b02867d0ccfd2ded34e42577050b739101610c2e565b6060600b805461055590611dbc565b604051630a85bd0160e11b81526000906001600160a01b0385169063150b7a029061160490339089908890889060040161210d565b6020604051808303816000875af192505050801561163f575060408051601f3d908101601f1916820190925261163c91810190612149565b60015b61169d573d80801561166d576040519150601f19603f3d011682016040523d82523d6000602084013e611672565b606091505b508051600003611695576040516368d2bf6b60e11b815260040160405180910390fd5b805181602001fd5b6001600160e01b031916630a85bd0160e11b149050949350505050565b606060a06040510180604052602081039150506000815280825b600183039250600a81066030018353600a9004806116d45750819003601f19909101908152919050565b600054610100900460ff166114525760405162461bcd60e51b815260206004820152602b60248201527f496e697469616c697a61626c653a20636f6e7472616374206973206e6f74206960448201526a6e697469616c697a696e6760a81b6064820152608401610b27565b61177383836117cf565b6001600160a01b0383163b15610a55576001548281035b61179d60008683806001019450866115cf565b6117ba576040516368d2bf6b60e11b815260040160405180910390fd5b81811061178a57816001541461073357600080fd5b600154600082900361180d576040517fb562e8dd00000000000000000000000000000000000000000000000000000000815260040160405180910390fd5b6001600160a01b03831660008181526006602090815260408083208054680100000000000000018802019055848352600590915281206001851460e11b4260a01b178317905582840190839083907fddf252ad1be2c89b69c2b068fc378daa952ba7f163c4a11628f55a4df523b3ef8180a4600183015b8181146118bc57808360007fddf252ad1be2c89b69c2b068fc378daa952ba7f163c4a11628f55a4df523b3ef600080a4600101611884565b50816000036118f7576040517f2e07630000000000000000000000000000000000000000000000000000000000815260040160405180910390fd5b60015550505050565b6001600160e01b031981168114610bc257600080fd5b60006020828403121561192857600080fd5b8135610f3281611900565b60005b8381101561194e578181015183820152602001611936565b50506000910152565b6000815180845261196f816020860160208601611933565b601f01601f19169290920160200192915050565b602081526000610f326020830184611957565b6000602082840312156119a857600080fd5b5035919050565b6001600160a01b0381168114610bc257600080fd5b600080604083850312156119d757600080fd5b82356119e2816119af565b946020939093013593505050565b634e487b7160e01b600052604160045260246000fd5b600067ffffffffffffffff80841115611a2157611a216119f0565b604051601f8501601f19908116603f01168101908282118183101715611a4957611a496119f0565b81604052809350858152868686011115611a6257600080fd5b858560208301376000602087830101525050509392505050565b600082601f830112611a8d57600080fd5b610f3283833560208501611a06565b60008083601f840112611aae57600080fd5b50813567ffffffffffffffff811115611ac657600080fd5b602083019150836020828501011115611ade57600080fd5b9250929050565b600080600080600060808688031215611afd57600080fd5b853567ffffffffffffffff80821115611b1557600080fd5b611b2189838a01611a7c565b96506020880135915080821115611b3757600080fd5b611b4389838a01611a7c565b955060408801359150611b55826119af565b90935060608701359080821115611b6b57600080fd5b50611b7888828901611a9c565b969995985093965092949392505050565b600080600060608486031215611b9e57600080fd5b8335611ba9816119af565b92506020840135611bb9816119af565b929592945050506040919091013590565b60008060408385031215611bdd57600080fd5b50508035926020909101359150565b600060408284031215611bfe57600080fd5b50919050565b600060208284031215611c1657600080fd5b8135610f32816119af565b60008060208385031215611c3457600080fd5b823567ffffffffffffffff811115611c4b57600080fd5b611c5785828601611a9c565b90969095509350505050565b60008060408385031215611c7657600080fd5b8235611c81816119af565b915060208301358015158114611c9657600080fd5b809150509250929050565b60008060008060808587031215611cb757600080fd5b8435611cc2816119af565b93506020850135611cd2816119af565b925060408501359150606085013567ffffffffffffffff811115611cf557600080fd5b8501601f81018713611d0657600080fd5b611d1587823560208401611a06565b91505092959194509250565b600080600060608486031215611d3657600080fd5b83359250602084013567ffffffffffffffff80821115611d5557600080fd5b611d6187838801611a7c565b93506040860135915080821115611d7757600080fd5b50611d8486828701611a7c565b9150509250925092565b60008060408385031215611da157600080fd5b8235611dac816119af565b91506020830135611c96816119af565b600181811c90821680611dd057607f821691505b602082108103611bfe57634e487b7160e01b600052602260045260246000fd5b634e487b7160e01b600052601160045260246000fd5b808202811582820484141761054057610540611df0565b600082611e3a57634e487b7160e01b600052601260045260246000fd5b500490565b8082018082111561054057610540611df0565b6bffffffffffffffffffffffff81168114610bc257600080fd5b600060208284031215611e7e57600080fd5b8135610f3281611e52565b8135611e94816119af565b6001600160a01b038116905073ffffffffffffffffffffffffffffffffffffffff1981818454161783556020840135611ecc81611e52565b60a01b1617905550565b601f821115610a5557600081815260208120601f850160051c81016020861015611efd5750805b601f850160051c820191505b8181101561093457828155600101611f09565b67ffffffffffffffff831115611f3457611f346119f0565b611f4883611f428354611dbc565b83611ed6565b6000601f841160018114611f7c5760008515611f645750838201355b600019600387901b1c1916600186901b178355610733565b600083815260209020601f19861690835b82811015611fad5786850135825560209485019460019092019101611f8d565b5086821015611fca5760001960f88860031b161c19848701351681555b505060018560011b0183555050505050565b8181038181111561054057610540611df0565b60208152816020820152818360408301376000818301604090810191909152601f909201601f19160101919050565b60008351612030818460208801611933565b835190830190612044818360208801611933565b01949350505050565b815167ffffffffffffffff811115612067576120676119f0565b61207b816120758454611dbc565b84611ed6565b602080601f8311600181146120b057600084156120985750858301515b600019600386901b1c1916600185901b178555610934565b600085815260208120601f198616915b828110156120df578886015182559484019460019091019084016120c0565b50858210156120fd5787850151600019600388901b60f8161c191681555b5050505050600190811b01905550565b60006001600160a01b0380871683528086166020840152508360408301526080606083015261213f6080830184611957565b9695505050505050565b60006020828403121561215b57600080fd5b8151610f328161190056fea26469706673582212201d810a89d38675a9de78d5931619e3cfd586b480f47f087f00bae568e1da40ca64736f6c63430008110033",
  "linkReferences": {},
  "deployedLinkReferences": {}
}