{
  "_format": "hh-sol-artifact-1",
  "contractName": "TransferSelectorNFT",
  "sourceName": "src/TransferSelectorNFT.sol",
  "abi": [
    {
      "inputs": [
        {
          "internalType": "address",
          "name": "_transferManagerERC721",
          "type": "address"
        },
        {
          "internalType": "address",
          "name": "_transferManagerERC1155",
          "type": "address"
        }
      ],
      "stateMutability": "nonpayable",
      "type": "constructor"
    },
    {
      "anonymous": false,
      "inputs": [
        {
          "indexed": true,
          "internalType": "address",
          "name": "collection",
          "type": "address"
        },
        {
          "indexed": true,
          "internalType": "address",
          "name": "transferManager",
          "type": "address"
        }
      ],
      "name": "CollectionTransferManagerAdded",
      "type": "event"
    },
    {
      "anonymous": false,
      "inputs": [
        {
          "indexed": true,
          "internalType": "address",
          "name": "collection",
          "type": "address"
        }
      ],
      "name": "CollectionTransferManagerRemoved",
      "type": "event"
    },
    {
      "anonymous": false,
      "inputs": [
        {
          "indexed": true,
          "internalType": "address",
          "name": "previousOwner",
          "type": "address"
        },
        {
          "indexed": true,
          "internalType": "address",
          "name": "newOwner",
          "type": "address"
        }
      ],
      "name": "OwnershipTransferred",
      "type": "event"
    },
    {
      "inputs": [],
      "name": "INTERFACE_ID_ERC1155",
      "outputs": [
        {
          "internalType": "bytes4",
          "name": "",
          "type": "bytes4"
        }
      ],
      "stateMutability": "view",
      "type": "function"
    },
    {
      "inputs": [],
      "name": "INTERFACE_ID_ERC721",
      "outputs": [
        {
          "internalType": "bytes4",
          "name": "",
          "type": "bytes4"
        }
      ],
      "stateMutability": "view",
      "type": "function"
    },
    {
      "inputs": [],
      "name": "TRANSFER_MANAGER_ERC1155",
      "outputs": [
        {
          "internalType": "address",
          "name": "",
          "type": "address"
        }
      ],
      "stateMutability": "view",
      "type": "function"
    },
    {
      "inputs": [],
      "name": "TRANSFER_MANAGER_ERC721",
      "outputs": [
        {
          "internalType": "address",
          "name": "",
          "type": "address"
        }
      ],
      "stateMutability": "view",
      "type": "function"
    },
    {
      "inputs": [
        {
          "internalType": "address",
          "name": "collection",
          "type": "address"
        },
        {
          "internalType": "address",
          "name": "transferManager",
          "type": "address"
        }
      ],
      "name": "addCollectionTransferManager",
      "outputs": [],
      "stateMutability": "nonpayable",
      "type": "function"
    },
    {
      "inputs": [
        {
          "internalType": "address",
          "name": "collection",
          "type": "address"
        }
      ],
      "name": "checkTransferManagerForToken",
      "outputs": [
        {
          "internalType": "address",
          "name": "transferManager",
          "type": "address"
        }
      ],
      "stateMutability": "view",
      "type": "function"
    },
    {
      "inputs": [],
      "name": "owner",
      "outputs": [
        {
          "internalType": "address",
          "name": "",
          "type": "address"
        }
      ],
      "stateMutability": "view",
      "type": "function"
    },
    {
      "inputs": [
        {
          "internalType": "address",
          "name": "collection",
          "type": "address"
        }
      ],
      "name": "removeCollectionTransferManager",
      "outputs": [],
      "stateMutability": "nonpayable",
      "type": "function"
    },
    {
      "inputs": [],
      "name": "renounceOwnership",
      "outputs": [],
      "stateMutability": "nonpayable",
      "type": "function"
    },
    {
      "inputs": [
        {
          "internalType": "address",
          "name": "",
          "type": "address"
        }
      ],
      "name": "transferManagerSelectorForCollection",
      "outputs": [
        {
          "internalType": "address",
          "name": "",
          "type": "address"
        }
      ],
      "stateMutability": "view",
      "type": "function"
    },
    {
      "inputs": [
        {
          "internalType": "address",
          "name": "newOwner",
          "type": "address"
        }
      ],
      "name": "transferOwnership",
      "outputs": [],
      "stateMutability": "nonpayable",
      "type": "function"
    }
  ],
  "bytecode": "0x60c060405234801561001057600080fd5b5060405161090738038061090783398101604081905261002f916100bb565b6100383361004f565b6001600160a01b039182166080521660a0526100ee565b600080546001600160a01b038381166001600160a01b0319831681178455604051919092169283917f8be0079c531659141344cd1fd0a4f28419497f9722a3daafe3b4186f6b6457e09190a35050565b80516001600160a01b03811681146100b657600080fd5b919050565b600080604083850312156100ce57600080fd5b6100d78361009f565b91506100e56020840161009f565b90509250929050565b60805160a0516107e66101216000396000818161012c01526105b60152600081816101c0015261051b01526107e66000f3fe608060405234801561001057600080fd5b50600436106100c95760003560e01c8063715018a611610081578063bc6bc0cd1161005b578063bc6bc0cd146101e2578063cc159493146101f0578063f2fde38b1461020357600080fd5b8063715018a6146101a25780638da5cb5b146101aa578063b1357ddd146101bb57600080fd5b806338928956116100b257806338928956146101275780634216a753146101665780637053fb791461018f57600080fd5b806325c6a895146100ce57806333bf6156146100e3575b600080fd5b6100e16100dc366004610739565b610216565b005b6100f1636cdb3d1360e11b81565b6040517fffffffff0000000000000000000000000000000000000000000000000000000090911681526020015b60405180910390f35b61014e7f000000000000000000000000000000000000000000000000000000000000000081565b6040516001600160a01b03909116815260200161011e565b61014e61017436600461076c565b6001602052600090815260409020546001600160a01b031681565b6100e161019d36600461076c565b61037f565b6100e1610470565b6000546001600160a01b031661014e565b61014e7f000000000000000000000000000000000000000000000000000000000000000081565b6100f16380ac58cd60e01b81565b61014e6101fe36600461076c565b610484565b6100e161021136600461076c565b6105db565b61021e61066b565b6001600160a01b03821661029f5760405162461bcd60e51b815260206004820152602860248201527f4f776e65723a20436f6c6c656374696f6e2063616e6e6f74206265206e756c6c60448201527f206164647265737300000000000000000000000000000000000000000000000060648201526084015b60405180910390fd5b6001600160a01b03811661031b5760405162461bcd60e51b815260206004820152602d60248201527f4f776e65723a205472616e736665724d616e616765722063616e6e6f7420626560448201527f206e756c6c2061646472657373000000000000000000000000000000000000006064820152608401610296565b6001600160a01b03828116600081815260016020526040808220805473ffffffffffffffffffffffffffffffffffffffff19169486169485179055517fda166be6ba0ebb71be3f83e7d669765de552ea08978bfe3e3e42d54174111b629190a35050565b61038761066b565b6001600160a01b03818116600090815260016020526040902054166104145760405162461bcd60e51b815260206004820152602960248201527f4f776e65723a20436f6c6c656374696f6e20686173206e6f207472616e73666560448201527f72206d616e6167657200000000000000000000000000000000000000000000006064820152608401610296565b6001600160a01b038116600081815260016020526040808220805473ffffffffffffffffffffffffffffffffffffffff19169055517f8c3bf4babc197f3db0e7ec65aaf23fc0efb0e689436aeea8514c3f01fd97841f9190a250565b61047861066b565b61048260006106c5565b565b6001600160a01b0380821660009081526001602052604090205416806105d6576040516301ffc9a760e01b81526380ac58cd60e01b60048201526001600160a01b038316906301ffc9a790602401602060405180830381865afa1580156104ef573d6000803e3d6000fd5b505050506040513d601f19601f82011682018060405250810190610513919061078e565b1561053f57507f0000000000000000000000000000000000000000000000000000000000000000919050565b6040516301ffc9a760e01b8152636cdb3d1360e11b60048201526001600160a01b038316906301ffc9a790602401602060405180830381865afa15801561058a573d6000803e3d6000fd5b505050506040513d601f19601f820116820180604052508101906105ae919061078e565b156105d657507f00000000000000000000000000000000000000000000000000000000000000005b919050565b6105e361066b565b6001600160a01b03811661065f5760405162461bcd60e51b815260206004820152602660248201527f4f776e61626c653a206e6577206f776e657220697320746865207a65726f206160448201527f64647265737300000000000000000000000000000000000000000000000000006064820152608401610296565b610668816106c5565b50565b6000546001600160a01b031633146104825760405162461bcd60e51b815260206004820181905260248201527f4f776e61626c653a2063616c6c6572206973206e6f7420746865206f776e65726044820152606401610296565b600080546001600160a01b0383811673ffffffffffffffffffffffffffffffffffffffff19831681178455604051919092169283917f8be0079c531659141344cd1fd0a4f28419497f9722a3daafe3b4186f6b6457e09190a35050565b80356001600160a01b03811681146105d657600080fd5b6000806040838503121561074c57600080fd5b61075583610722565b915061076360208401610722565b90509250929050565b60006020828403121561077e57600080fd5b61078782610722565b9392505050565b6000602082840312156107a057600080fd5b8151801515811461078757600080fdfea2646970667358221220b21b1393b3c9e75e9c67894264327446bae4d9b6386a3f6715a29238d591be8f64736f6c63430008110033",
  "linkReferences": {},
  "deployedLinkReferences": {}
}