{
  "_format": "hh-sol-artifact-1",
  "contractName": "TokenSplitter",
  "sourceName": "src/fee/TokenSplitter.sol",
  "abi": [
    {
      "inputs": [
        {
          "internalType": "address[]",
          "name": "_accounts",
          "type": "address[]"
        },
        {
          "internalType": "uint256[]",
          "name": "_shares",
          "type": "uint256[]"
        },
        {
          "internalType": "address",
          "name": "_looksRareToken",
          "type": "address"
        }
      ],
      "stateMutability": "nonpayable",
      "type": "constructor"
    },
    {
      "anonymous": false,
      "inputs": [
        {
          "indexed": true,
          "internalType": "address",
          "name": "oldRecipient",
          "type": "address"
        },
        {
          "indexed": true,
          "internalType": "address",
          "name": "newRecipient",
          "type": "address"
        }
      ],
      "name": "NewSharesOwner",
      "type": "event"
    },
    {
      "anonymous": false,
      "inputs": [
        {
          "indexed": true,
          "internalType": "address",
          "name": "previousOwner",
          "type": "address"
        },
        {
          "indexed": true,
          "internalType": "address",
          "name": "newOwner",
          "type": "address"
        }
      ],
      "name": "OwnershipTransferred",
      "type": "event"
    },
    {
      "anonymous": false,
      "inputs": [
        {
          "indexed": true,
          "internalType": "address",
          "name": "account",
          "type": "address"
        },
        {
          "indexed": false,
          "internalType": "uint256",
          "name": "amount",
          "type": "uint256"
        }
      ],
      "name": "TokensTransferred",
      "type": "event"
    },
    {
      "inputs": [],
      "name": "TOTAL_SHARES",
      "outputs": [
        {
          "internalType": "uint256",
          "name": "",
          "type": "uint256"
        }
      ],
      "stateMutability": "view",
      "type": "function"
    },
    {
      "inputs": [
        {
          "internalType": "address",
          "name": "",
          "type": "address"
        }
      ],
      "name": "accountInfo",
      "outputs": [
        {
          "internalType": "uint256",
          "name": "shares",
          "type": "uint256"
        },
        {
          "internalType": "uint256",
          "name": "tokensDistributedToAccount",
          "type": "uint256"
        }
      ],
      "stateMutability": "view",
      "type": "function"
    },
    {
      "inputs": [
        {
          "internalType": "address",
          "name": "account",
          "type": "address"
        }
      ],
      "name": "calculatePendingRewards",
      "outputs": [
        {
          "internalType": "uint256",
          "name": "",
          "type": "uint256"
        }
      ],
      "stateMutability": "view",
      "type": "function"
    },
    {
      "inputs": [],
      "name": "looksRareToken",
      "outputs": [
        {
          "internalType": "contract IERC20",
          "name": "",
          "type": "address"
        }
      ],
      "stateMutability": "view",
      "type": "function"
    },
    {
      "inputs": [],
      "name": "owner",
      "outputs": [
        {
          "internalType": "address",
          "name": "",
          "type": "address"
        }
      ],
      "stateMutability": "view",
      "type": "function"
    },
    {
      "inputs": [
        {
          "internalType": "address",
          "name": "account",
          "type": "address"
        }
      ],
      "name": "releaseTokens",
      "outputs": [],
      "stateMutability": "nonpayable",
      "type": "function"
    },
    {
      "inputs": [],
      "name": "renounceOwnership",
      "outputs": [],
      "stateMutability": "nonpayable",
      "type": "function"
    },
    {
      "inputs": [],
      "name": "totalTokensDistributed",
      "outputs": [
        {
          "internalType": "uint256",
          "name": "",
          "type": "uint256"
        }
      ],
      "stateMutability": "view",
      "type": "function"
    },
    {
      "inputs": [
        {
          "internalType": "address",
          "name": "newOwner",
          "type": "address"
        }
      ],
      "name": "transferOwnership",
      "outputs": [],
      "stateMutability": "nonpayable",
      "type": "function"
    },
    {
      "inputs": [
        {
          "internalType": "address",
          "name": "_newRecipient",
          "type": "address"
        },
        {
          "internalType": "address",
          "name": "_currentRecipient",
          "type": "address"
        }
      ],
      "name": "updateSharesOwner",
      "outputs": [],
      "stateMutability": "nonpayable",
      "type": "function"
    }
  ],
  "bytecode": "0x60c06040523480156200001157600080fd5b506040516200123f3803806200123f83398101604081905262000034916200036c565b6200003f336200021d565b6001805581518351146200009a5760405162461bcd60e51b815260206004820152601760248201527f53706c69747465723a204c656e6774682064696666657200000000000000000060448201526064015b60405180910390fd5b6000835111620000ed5760405162461bcd60e51b815260206004820152601c60248201527f53706c69747465723a204c656e677468206d757374206265203e203000000000604482015260640162000091565b6000805b8451811015620002045760008482815181106200011257620001126200044e565b602002602001015111620001695760405162461bcd60e51b815260206004820152601660248201527f53706c69747465723a2053686172657320617265203000000000000000000000604482015260640162000091565b8381815181106200017e576200017e6200044e565b6020026020010151826200019391906200047a565b9150838181518110620001aa57620001aa6200044e565b602002602001015160036000878481518110620001cb57620001cb6200044e565b6020908102919091018101516001600160a01b031682528101919091526040016000205580620001fb8162000496565b915050620000f1565b506080526001600160a01b031660a05250620004b29050565b600080546001600160a01b038381166001600160a01b0319831681178455604051919092169283917f8be0079c531659141344cd1fd0a4f28419497f9722a3daafe3b4186f6b6457e09190a35050565b634e487b7160e01b600052604160045260246000fd5b604051601f8201601f191681016001600160401b0381118282101715620002ae57620002ae6200026d565b604052919050565b60006001600160401b03821115620002d257620002d26200026d565b5060051b60200190565b80516001600160a01b0381168114620002f457600080fd5b919050565b600082601f8301126200030b57600080fd5b81516020620003246200031e83620002b6565b62000283565b82815260059290921b840181019181810190868411156200034457600080fd5b8286015b8481101562000361578051835291830191830162000348565b509695505050505050565b6000806000606084860312156200038257600080fd5b83516001600160401b03808211156200039a57600080fd5b818601915086601f830112620003af57600080fd5b81516020620003c26200031e83620002b6565b82815260059290921b8401810191818101908a841115620003e257600080fd5b948201945b838610156200040b57620003fb86620002dc565b82529482019490820190620003e7565b918901519197509093505050808211156200042557600080fd5b506200043486828701620002f9565b9250506200044560408501620002dc565b90509250925092565b634e487b7160e01b600052603260045260246000fd5b634e487b7160e01b600052601160045260246000fd5b8082018082111562000490576200049062000464565b92915050565b600060018201620004ab57620004ab62000464565b5060010190565b60805160a051610d44620004fb60003960008181610103015281816102330152818161054501526106c701526000818161014a015281816102ce01526105e00152610d446000f3fe608060405234801561001057600080fd5b50600436106100be5760003560e01c806387b0be4811610076578063a7310b581161005b578063a7310b5814610190578063d8f163ab146101cc578063f2fde38b146101d557600080fd5b806387b0be481461016c5780638da5cb5b1461017f57600080fd5b806336db9fb2116100a757806336db9fb2146100fe578063715018a61461013d57806385e3f9971461014557600080fd5b8063097aad10146100c357806319281afd146100e9575b600080fd5b6100d66100d1366004610b90565b6101e8565b6040519081526020015b60405180910390f35b6100fc6100f7366004610bb2565b610314565b005b6101257f000000000000000000000000000000000000000000000000000000000000000081565b6040516001600160a01b0390911681526020016100e0565b6100fc6104a0565b6100d67f000000000000000000000000000000000000000000000000000000000000000081565b6100fc61017a366004610b90565b6104b4565b6000546001600160a01b0316610125565b6101b761019e366004610b90565b6003602052600090815260409020805460019091015482565b604080519283526020830191909152016100e0565b6100d660025481565b6100fc6101e3366004610b90565b61073f565b6001600160a01b038116600090815260036020526040812054810361020f57506000919050565b6002546040516370a0823160e01b8152306004820152600091906001600160a01b037f000000000000000000000000000000000000000000000000000000000000000016906370a0823190602401602060405180830381865afa15801561027a573d6000803e3d6000fd5b505050506040513d601f19601f8201168201806040525081019061029e9190610be5565b6102a89190610c14565b6001600160a01b03841660009081526003602052604081206001810154905492935090917f0000000000000000000000000000000000000000000000000000000000000000906102f89085610c2d565b6103029190610c44565b61030c9190610c66565b949350505050565b61031c6107cc565b6001600160a01b0381166000908152600360205260409020546103ac5760405162461bcd60e51b815260206004820152602660248201527f4f776e65723a2043757272656e7420726563697069656e7420686173206e6f2060448201527f736861726573000000000000000000000000000000000000000000000000000060648201526084015b60405180910390fd5b6001600160a01b038216600090815260036020526040902054156104385760405162461bcd60e51b815260206004820152602860248201527f4f776e65723a204e657720726563697069656e7420686173206578697374696e60448201527f672073686172657300000000000000000000000000000000000000000000000060648201526084016103a3565b6001600160a01b0380821660008181526003602052604080822080549487168084528284209586556001808301805491909701558484529083905593829055517f47eba4993da31bfed0680c802fb8577f1a9d57bb4c0881372fbe7ad29995a8809190a35050565b6104a86107cc565b6104b26000610826565b565b6104bc61088e565b6001600160a01b0381166000908152600360205260409020546105215760405162461bcd60e51b815260206004820152601e60248201527f53706c69747465723a204163636f756e7420686173206e6f207368617265000060448201526064016103a3565b6002546040516370a0823160e01b8152306004820152600091906001600160a01b037f000000000000000000000000000000000000000000000000000000000000000016906370a0823190602401602060405180830381865afa15801561058c573d6000803e3d6000fd5b505050506040513d601f19601f820116820180604052508101906105b09190610be5565b6105ba9190610c14565b6001600160a01b03831660009081526003602052604081206001810154905492935090917f00000000000000000000000000000000000000000000000000000000000000009061060a9085610c2d565b6106149190610c44565b61061e9190610c66565b9050806000036106705760405162461bcd60e51b815260206004820152601d60248201527f53706c69747465723a204e6f7468696e6720746f207472616e7366657200000060448201526064016103a3565b6001600160a01b0383166000908152600360205260408120600101805483929061069b908490610c14565b9250508190555080600260008282546106b49190610c14565b909155506106ee90506001600160a01b037f00000000000000000000000000000000000000000000000000000000000000001684836108e7565b826001600160a01b03167f12f4533b5cbd2c9f8a0752a2d0b16379af992dbb2a0844a5007a19d983b3a9348260405161072991815260200190565b60405180910390a2505061073c60018055565b50565b6107476107cc565b6001600160a01b0381166107c35760405162461bcd60e51b815260206004820152602660248201527f4f776e61626c653a206e6577206f776e657220697320746865207a65726f206160448201527f646472657373000000000000000000000000000000000000000000000000000060648201526084016103a3565b61073c81610826565b6000546001600160a01b031633146104b25760405162461bcd60e51b815260206004820181905260248201527f4f776e61626c653a2063616c6c6572206973206e6f7420746865206f776e657260448201526064016103a3565b600080546001600160a01b038381167fffffffffffffffffffffffff0000000000000000000000000000000000000000831681178455604051919092169283917f8be0079c531659141344cd1fd0a4f28419497f9722a3daafe3b4186f6b6457e09190a35050565b6002600154036108e05760405162461bcd60e51b815260206004820152601f60248201527f5265656e7472616e637947756172643a207265656e7472616e742063616c6c0060448201526064016103a3565b6002600155565b604080516001600160a01b038416602482015260448082018490528251808303909101815260649091019091526020810180517bffffffffffffffffffffffffffffffffffffffffffffffffffffffff167fa9059cbb0000000000000000000000000000000000000000000000000000000017905261096790849061096c565b505050565b60006109c1826040518060400160405280602081526020017f5361666545524332303a206c6f772d6c6576656c2063616c6c206661696c6564815250856001600160a01b0316610a519092919063ffffffff16565b80519091501561096757808060200190518101906109df9190610c79565b6109675760405162461bcd60e51b815260206004820152602a60248201527f5361666545524332303a204552433230206f7065726174696f6e20646964206e60448201527f6f7420737563636565640000000000000000000000000000000000000000000060648201526084016103a3565b606061030c848460008585600080866001600160a01b03168587604051610a789190610cbf565b60006040518083038185875af1925050503d8060008114610ab5576040519150601f19603f3d011682016040523d82523d6000602084013e610aba565b606091505b5091509150610acb87838387610ad6565b979650505050505050565b60608315610b45578251600003610b3e576001600160a01b0385163b610b3e5760405162461bcd60e51b815260206004820152601d60248201527f416464726573733a2063616c6c20746f206e6f6e2d636f6e747261637400000060448201526064016103a3565b508161030c565b61030c8383815115610b5a5781518083602001fd5b8060405162461bcd60e51b81526004016103a39190610cdb565b80356001600160a01b0381168114610b8b57600080fd5b919050565b600060208284031215610ba257600080fd5b610bab82610b74565b9392505050565b60008060408385031215610bc557600080fd5b610bce83610b74565b9150610bdc60208401610b74565b90509250929050565b600060208284031215610bf757600080fd5b5051919050565b634e487b7160e01b600052601160045260246000fd5b80820180821115610c2757610c27610bfe565b92915050565b8082028115828204841417610c2757610c27610bfe565b600082610c6157634e487b7160e01b600052601260045260246000fd5b500490565b81810381811115610c2757610c27610bfe565b600060208284031215610c8b57600080fd5b81518015158114610bab57600080fd5b60005b83811015610cb6578181015183820152602001610c9e565b50506000910152565b60008251610cd1818460208701610c9b565b9190910192915050565b6020815260008251806020840152610cfa816040850160208701610c9b565b601f01601f1916919091016040019291505056fea264697066735822122002f9514ca7561824e228e2316f9808d8135354af16235f6079ee29e7f85dbe7764736f6c63430008110033",
  "linkReferences": {},
  "deployedLinkReferences": {}
}