{
  "_format": "hh-sol-artifact-1",
  "contractName": "FeeSharingSystem",
  "sourceName": "src/fee/FeeSharingSystem.sol",
  "abi": [
    {
      "inputs": [
        {
          "internalType": "address",
          "name": "_looksRareToken",
          "type": "address"
        },
        {
          "internalType": "address",
          "name": "_rewardToken",
          "type": "address"
        },
        {
          "internalType": "address",
          "name": "_tokenDistributor",
          "type": "address"
        }
      ],
      "stateMutability": "nonpayable",
      "type": "constructor"
    },
    {
      "anonymous": false,
      "inputs": [
        {
          "indexed": true,
          "internalType": "address",
          "name": "user",
          "type": "address"
        },
        {
          "indexed": false,
          "internalType": "uint256",
          "name": "amount",
          "type": "uint256"
        },
        {
          "indexed": false,
          "internalType": "uint256",
          "name": "harvestedAmount",
          "type": "uint256"
        }
      ],
      "name": "Deposit",
      "type": "event"
    },
    {
      "anonymous": false,
      "inputs": [
        {
          "indexed": true,
          "internalType": "address",
          "name": "user",
          "type": "address"
        },
        {
          "indexed": false,
          "internalType": "uint256",
          "name": "harvestedAmount",
          "type": "uint256"
        }
      ],
      "name": "Harvest",
      "type": "event"
    },
    {
      "anonymous": false,
      "inputs": [
        {
          "indexed": false,
          "internalType": "uint256",
          "name": "numberBlocks",
          "type": "uint256"
        },
        {
          "indexed": false,
          "internalType": "uint256",
          "name": "rewardPerBlock",
          "type": "uint256"
        },
        {
          "indexed": false,
          "internalType": "uint256",
          "name": "reward",
          "type": "uint256"
        }
      ],
      "name": "NewRewardPeriod",
      "type": "event"
    },
    {
      "anonymous": false,
      "inputs": [
        {
          "indexed": true,
          "internalType": "address",
          "name": "previousOwner",
          "type": "address"
        },
        {
          "indexed": true,
          "internalType": "address",
          "name": "newOwner",
          "type": "address"
        }
      ],
      "name": "OwnershipTransferred",
      "type": "event"
    },
    {
      "anonymous": false,
      "inputs": [
        {
          "indexed": true,
          "internalType": "address",
          "name": "user",
          "type": "address"
        },
        {
          "indexed": false,
          "internalType": "uint256",
          "name": "amount",
          "type": "uint256"
        },
        {
          "indexed": false,
          "internalType": "uint256",
          "name": "harvestedAmount",
          "type": "uint256"
        }
      ],
      "name": "Withdraw",
      "type": "event"
    },
    {
      "inputs": [],
      "name": "PRECISION_FACTOR",
      "outputs": [
        {
          "internalType": "uint256",
          "name": "",
          "type": "uint256"
        }
      ],
      "stateMutability": "view",
      "type": "function"
    },
    {
      "inputs": [
        {
          "internalType": "address",
          "name": "user",
          "type": "address"
        }
      ],
      "name": "calculatePendingRewards",
      "outputs": [
        {
          "internalType": "uint256",
          "name": "",
          "type": "uint256"
        }
      ],
      "stateMutability": "view",
      "type": "function"
    },
    {
      "inputs": [],
      "name": "calculateSharePriceInLOOKS",
      "outputs": [
        {
          "internalType": "uint256",
          "name": "",
          "type": "uint256"
        }
      ],
      "stateMutability": "view",
      "type": "function"
    },
    {
      "inputs": [
        {
          "internalType": "address",
          "name": "user",
          "type": "address"
        }
      ],
      "name": "calculateSharesValueInLOOKS",
      "outputs": [
        {
          "internalType": "uint256",
          "name": "",
          "type": "uint256"
        }
      ],
      "stateMutability": "view",
      "type": "function"
    },
    {
      "inputs": [],
      "name": "currentRewardPerBlock",
      "outputs": [
        {
          "internalType": "uint256",
          "name": "",
          "type": "uint256"
        }
      ],
      "stateMutability": "view",
      "type": "function"
    },
    {
      "inputs": [
        {
          "internalType": "uint256",
          "name": "amount",
          "type": "uint256"
        },
        {
          "internalType": "bool",
          "name": "claimRewardToken",
          "type": "bool"
        }
      ],
      "name": "deposit",
      "outputs": [],
      "stateMutability": "nonpayable",
      "type": "function"
    },
    {
      "inputs": [],
      "name": "harvest",
      "outputs": [],
      "stateMutability": "nonpayable",
      "type": "function"
    },
    {
      "inputs": [],
      "name": "lastRewardAdjustment",
      "outputs": [
        {
          "internalType": "uint256",
          "name": "",
          "type": "uint256"
        }
      ],
      "stateMutability": "view",
      "type": "function"
    },
    {
      "inputs": [],
      "name": "lastRewardBlock",
      "outputs": [
        {
          "internalType": "uint256",
          "name": "",
          "type": "uint256"
        }
      ],
      "stateMutability": "view",
      "type": "function"
    },
    {
      "inputs": [],
      "name": "lastUpdateBlock",
      "outputs": [
        {
          "internalType": "uint256",
          "name": "",
          "type": "uint256"
        }
      ],
      "stateMutability": "view",
      "type": "function"
    },
    {
      "inputs": [],
      "name": "looksRareToken",
      "outputs": [
        {
          "internalType": "contract IERC20",
          "name": "",
          "type": "address"
        }
      ],
      "stateMutability": "view",
      "type": "function"
    },
    {
      "inputs": [],
      "name": "owner",
      "outputs": [
        {
          "internalType": "address",
          "name": "",
          "type": "address"
        }
      ],
      "stateMutability": "view",
      "type": "function"
    },
    {
      "inputs": [],
      "name": "periodEndBlock",
      "outputs": [
        {
          "internalType": "uint256",
          "name": "",
          "type": "uint256"
        }
      ],
      "stateMutability": "view",
      "type": "function"
    },
    {
      "inputs": [],
      "name": "renounceOwnership",
      "outputs": [],
      "stateMutability": "nonpayable",
      "type": "function"
    },
    {
      "inputs": [],
      "name": "rewardPerTokenStored",
      "outputs": [
        {
          "internalType": "uint256",
          "name": "",
          "type": "uint256"
        }
      ],
      "stateMutability": "view",
      "type": "function"
    },
    {
      "inputs": [],
      "name": "rewardToken",
      "outputs": [
        {
          "internalType": "contract IERC20",
          "name": "",
          "type": "address"
        }
      ],
      "stateMutability": "view",
      "type": "function"
    },
    {
      "inputs": [],
      "name": "tokenDistributor",
      "outputs": [
        {
          "internalType": "contract TokenDistributor",
          "name": "",
          "type": "address"
        }
      ],
      "stateMutability": "view",
      "type": "function"
    },
    {
      "inputs": [],
      "name": "totalShares",
      "outputs": [
        {
          "internalType": "uint256",
          "name": "",
          "type": "uint256"
        }
      ],
      "stateMutability": "view",
      "type": "function"
    },
    {
      "inputs": [
        {
          "internalType": "address",
          "name": "newOwner",
          "type": "address"
        }
      ],
      "name": "transferOwnership",
      "outputs": [],
      "stateMutability": "nonpayable",
      "type": "function"
    },
    {
      "inputs": [
        {
          "internalType": "uint256",
          "name": "reward",
          "type": "uint256"
        },
        {
          "internalType": "uint256",
          "name": "rewardDurationInBlocks",
          "type": "uint256"
        }
      ],
      "name": "updateRewards",
      "outputs": [],
      "stateMutability": "nonpayable",
      "type": "function"
    },
    {
      "inputs": [
        {
          "internalType": "address",
          "name": "",
          "type": "address"
        }
      ],
      "name": "userInfo",
      "outputs": [
        {
          "internalType": "uint256",
          "name": "shares",
          "type": "uint256"
        },
        {
          "internalType": "uint256",
          "name": "userRewardPerTokenPaid",
          "type": "uint256"
        },
        {
          "internalType": "uint256",
          "name": "rewards",
          "type": "uint256"
        }
      ],
      "stateMutability": "view",
      "type": "function"
    },
    {
      "inputs": [
        {
          "internalType": "uint256",
          "name": "shares",
          "type": "uint256"
        },
        {
          "internalType": "bool",
          "name": "claimRewardToken",
          "type": "bool"
        }
      ],
      "name": "withdraw",
      "outputs": [],
      "stateMutability": "nonpayable",
      "type": "function"
    },
    {
      "inputs": [
        {
          "internalType": "bool",
          "name": "claimRewardToken",
          "type": "bool"
        }
      ],
      "name": "withdrawAll",
      "outputs": [],
      "stateMutability": "nonpayable",
      "type": "function"
    }
  ],
  "bytecode": "0x60e06040523480156200001157600080fd5b5060405162001c4e38038062001c4e8339810160408190526200003491620000d1565b6001600055620000443362000062565b6001600160a01b0391821660a0529181166080521660c0526200011b565b600180546001600160a01b038381166001600160a01b0319831681179093556040519116919082907f8be0079c531659141344cd1fd0a4f28419497f9722a3daafe3b4186f6b6457e090600090a35050565b80516001600160a01b0381168114620000cc57600080fd5b919050565b600080600060608486031215620000e757600080fd5b620000f284620000b4565b92506200010260208501620000b4565b91506200011260408501620000b4565b90509250925092565b60805160a05160c051611a7e620001d0600039600081816101bd0152818161047901528181610624015281816106a6015281816108b00152818161094201528181610b1901528181610b6c01528181610c4901528181610ccb01528181610f0601528181610f9801526110990152600081816103570152818161059101528181610ae4015261113801526000818161025b015281816109c4015281816111740152818161143b01526114ee0152611a7e6000f3fe608060405234801561001057600080fd5b506004361061018d5760003560e01c8063715018a6116100e3578063ab5e32af1161008c578063df136d6511610066578063df136d6514610336578063f2fde38b1461033f578063f7c618c11461035257600080fd5b8063ab5e32af1461030b578063cb4aec611461031e578063ccd34cd51461032757600080fd5b80639a408321116100bd5780639a408321146102e7578063a218141b146102fa578063a9f8d1811461030357600080fd5b8063715018a6146102bb5780638da5cb5b146102c357806397e50818146102d457600080fd5b806338d0743611610145578063442da82f1161011f578063442da82f146102a25780634641257d146102ab5780636de26e38146102b357600080fd5b806338d074361461027d5780633a98ef391461029057806340d2abae1461029957600080fd5b80631959a002116101765780631959a002146101f75780631c1c6fe51461024157806336db9fb21461025657600080fd5b8063097aad101461019257806318a6bc32146101b8575b600080fd5b6101a56101a0366004611860565b610379565b6040519081526020015b60405180910390f35b6101df7f000000000000000000000000000000000000000000000000000000000000000081565b6040516001600160a01b0390911681526020016101af565b610226610205366004611860565b60086020526000908152604090208054600182015460029092015490919083565b604080519384526020840192909252908201526060016101af565b61025461024f366004611897565b61038a565b005b6101df7f000000000000000000000000000000000000000000000000000000000000000081565b61025461028b3660046118b4565b6103b9565b6101a560075481565b6101a560035481565b6101a560055481565b61025461046f565b6101a5610602565b610254610763565b6001546001600160a01b03166101df565b6102546102e23660046118e4565b610775565b6102546102f53660046118b4565b610828565b6101a560045481565b6101a5610c18565b6101a5610319366004611860565b610c27565b6101a560025481565b6101a5670de0b6b3a764000081565b6101a560065481565b61025461034d366004611860565b610da8565b6101df7f000000000000000000000000000000000000000000000000000000000000000081565b600061038482610e35565b92915050565b610392610eab565b336000908152600860205260409020546103ac9082610f04565b6103b66001600055565b50565b6103c1610eab565b6000821180156103e05750336000908152600860205260409020548211155b6104575760405162461bcd60e51b815260206004820152603660248201527f57697468647261773a2053686172657320657175616c20746f2030206f72206c60448201527f6172676572207468616e2075736572207368617265730000000000000000000060648201526084015b60405180910390fd5b6104618282610f04565b61046b6001600055565b5050565b610477610eab565b7f00000000000000000000000000000000000000000000000000000000000000006001600160a01b0316632a4e051b6040518163ffffffff1660e01b8152600401600060405180830381600087803b1580156104d257600080fd5b505af11580156104e6573d6000803e3d6000fd5b505050506104f3336111dd565b33600090815260086020526040902060020154806105785760405162461bcd60e51b8152602060048201526024808201527f486172766573743a2050656e64696e672072657761726473206d75737420626560448201527f203e203000000000000000000000000000000000000000000000000000000000606482015260840161044e565b336000818152600860205260408120600201556105c0907f00000000000000000000000000000000000000000000000000000000000000006001600160a01b03169083611232565b60405181815233907fc9695243a805adb74c91f28311176c65b417e842d5699893cef56d18bfa48cba9060200160405180910390a2506106006001600055565b565b604051630cacd00160e11b815230600482015260009081906001600160a01b037f00000000000000000000000000000000000000000000000000000000000000001690631959a002906024016040805180830381865afa15801561066a573d6000803e3d6000fd5b505050506040513d601f19601f8201168201806040525081019061068e9190611906565b506040516297aad160e41b81523060048201529091507f00000000000000000000000000000000000000000000000000000000000000006001600160a01b03169063097aad1090602401602060405180830381865afa1580156106f5573d6000803e3d6000fd5b505050506040513d601f19601f82011682018060405250810190610719919061192a565b6107239082611959565b905060075460001461075357600754610744670de0b6b3a76400008361196c565b61074e9190611983565b61075d565b670de0b6b3a76400005b91505090565b61076b6112e0565b610600600061133a565b61077d6112e0565b6005544310610798576107908183611983565b6002556107cc565b80600254436005546107aa91906119a5565b6107b4919061196c565b6107be9084611959565b6107c89190611983565b6002555b4360048190556107dd908290611959565b60055560025460408051838152602081019290925281018390527f55b4fa63fe43865f67b4f2c4a4df1cf9e6c1f85767211b44b45cf4649b2c2b519060600160405180910390a15050565b610830610eab565b670de0b6b3a76400008210156108ae5760405162461bcd60e51b815260206004820152602260248201527f4465706f7369743a20416d6f756e74206d757374206265203e3d2031204c4f4f60448201527f4b53000000000000000000000000000000000000000000000000000000000000606482015260840161044e565b7f00000000000000000000000000000000000000000000000000000000000000006001600160a01b0316632a4e051b6040518163ffffffff1660e01b8152600401600060405180830381600087803b15801561090957600080fd5b505af115801561091d573d6000803e3d6000fd5b5050505061092a336111dd565b604051630cacd00160e11b81523060048201526000907f00000000000000000000000000000000000000000000000000000000000000006001600160a01b031690631959a002906024016040805180830381865afa158015610990573d6000803e3d6000fd5b505050506040513d601f19601f820116820180604052508101906109b49190611906565b5090506109ec6001600160a01b037f0000000000000000000000000000000000000000000000000000000000000000163330866113a4565b6000600754600014610a68578160075485610a07919061196c565b610a119190611983565b905080600003610a635760405162461bcd60e51b815260206004820152600d60248201527f4465706f7369743a204661696c00000000000000000000000000000000000000604482015260640161044e565b610a6b565b50825b3360009081526008602052604081208054839290610a8a908490611959565b925050819055508060076000828254610aa39190611959565b90915550600090508315610b135750336000908152600860205260409020600201548015610b135733600081815260086020526040812060020155610b13907f00000000000000000000000000000000000000000000000000000000000000006001600160a01b03169083611232565b610b3d857f00000000000000000000000000000000000000000000000000000000000000006113fb565b6040517fb6b55f25000000000000000000000000000000000000000000000000000000008152600481018690527f00000000000000000000000000000000000000000000000000000000000000006001600160a01b03169063b6b55f2590602401600060405180830381600087803b158015610bb857600080fd5b505af1158015610bcc573d6000803e3d6000fd5b505060408051888152602081018590523393507f90890809c654f11d6e72a28fa60149770a0d11ec6c92319d6ceb2bb0a4ea1a1592500160405180910390a250505061046b6001600055565b6000610c2261155b565b905090565b604051630cacd00160e11b815230600482015260009081906001600160a01b037f00000000000000000000000000000000000000000000000000000000000000001690631959a002906024016040805180830381865afa158015610c8f573d6000803e3d6000fd5b505050506040513d601f19601f82011682018060405250810190610cb39190611906565b506040516297aad160e41b81523060048201529091507f00000000000000000000000000000000000000000000000000000000000000006001600160a01b03169063097aad1090602401602060405180830381865afa158015610d1a573d6000803e3d6000fd5b505050506040513d601f19601f82011682018060405250810190610d3e919061192a565b610d489082611959565b6001600160a01b03841660009081526008602052604090205490915015610d9e576007546001600160a01b038416600090815260086020526040902054610d8f908361196c565b610d999190611983565b610da1565b60005b9392505050565b610db06112e0565b6001600160a01b038116610e2c5760405162461bcd60e51b815260206004820152602660248201527f4f776e61626c653a206e6577206f776e657220697320746865207a65726f206160448201527f6464726573730000000000000000000000000000000000000000000000000000606482015260840161044e565b6103b68161133a565b6001600160a01b03811660009081526008602052604081206002810154600190910154670de0b6b3a764000090610e6a611572565b610e7491906119a5565b6001600160a01b038516600090815260086020526040902054610e97919061196c565b610ea19190611983565b6103849190611959565b600260005403610efd5760405162461bcd60e51b815260206004820152601f60248201527f5265656e7472616e637947756172643a207265656e7472616e742063616c6c00604482015260640161044e565b6002600055565b7f00000000000000000000000000000000000000000000000000000000000000006001600160a01b0316632a4e051b6040518163ffffffff1660e01b8152600401600060405180830381600087803b158015610f5f57600080fd5b505af1158015610f73573d6000803e3d6000fd5b50505050610f80336111dd565b604051630cacd00160e11b81523060048201526000907f00000000000000000000000000000000000000000000000000000000000000006001600160a01b031690631959a002906024016040805180830381865afa158015610fe6573d6000803e3d6000fd5b505050506040513d601f19601f8201168201806040525081019061100a9190611906565b5090506000600754848361101e919061196c565b6110289190611983565b3360009081526008602052604081208054929350869290919061104c9084906119a5565b92505081905550836007600082825461106591906119a5565b90915550506040517f2e1a7d4d000000000000000000000000000000000000000000000000000000008152600481018290527f00000000000000000000000000000000000000000000000000000000000000006001600160a01b031690632e1a7d4d90602401600060405180830381600087803b1580156110e557600080fd5b505af11580156110f9573d6000803e3d6000fd5b505050506000831561116757503360009081526008602052604090206002015480156111675733600081815260086020526040812060020155611167907f00000000000000000000000000000000000000000000000000000000000000006001600160a01b03169083611232565b61119b6001600160a01b037f0000000000000000000000000000000000000000000000000000000000000000163384611232565b604080518381526020810183905233917ff279e6a1f5e320cca91135676d9cb6e44ca8a08c0b88342bcdb1144f6511b568910160405180910390a25050505050565b60045443146111fd576111ee611572565b6006556111f961155b565b6004555b61120681610e35565b6001600160a01b0390911660009081526008602052604090206002810191909155600654600190910155565b6040516001600160a01b0383166024820152604481018290526112db9084907fa9059cbb00000000000000000000000000000000000000000000000000000000906064015b60408051601f198184030181529190526020810180517bffffffffffffffffffffffffffffffffffffffffffffffffffffffff167fffffffff00000000000000000000000000000000000000000000000000000000909316929092179091526115d4565b505050565b6001546001600160a01b031633146106005760405162461bcd60e51b815260206004820181905260248201527f4f776e61626c653a2063616c6c6572206973206e6f7420746865206f776e6572604482015260640161044e565b600180546001600160a01b038381167fffffffffffffffffffffffff0000000000000000000000000000000000000000831681179093556040519116919082907f8be0079c531659141344cd1fd0a4f28419497f9722a3daafe3b4186f6b6457e090600090a35050565b6040516001600160a01b03808516602483015283166044820152606481018290526113f59085907f23b872dd0000000000000000000000000000000000000000000000000000000090608401611277565b50505050565b6040517fdd62ed3e0000000000000000000000000000000000000000000000000000000081523060048201526001600160a01b03828116602483015283917f00000000000000000000000000000000000000000000000000000000000000009091169063dd62ed3e90604401602060405180830381865afa158015611484573d6000803e3d6000fd5b505050506040513d601f19601f820116820180604052508101906114a8919061192a565b101561046b576040517f095ea7b30000000000000000000000000000000000000000000000000000000081526001600160a01b03828116600483015260001960248301527f0000000000000000000000000000000000000000000000000000000000000000169063095ea7b3906044016020604051808303816000875af1158015611537573d6000803e3d6000fd5b505050506040513d601f19601f820116820180604052508101906112db91906119b8565b6000600554431061156d575060055490565b504390565b6000600754600003611585575060065490565b600754670de0b6b3a764000060025461159e919061196c565b6004546115a961155b565b6115b391906119a5565b6115bd919061196c565b6115c79190611983565b600654610c229190611959565b6000611629826040518060400160405280602081526020017f5361666545524332303a206c6f772d6c6576656c2063616c6c206661696c6564815250856001600160a01b03166116b99092919063ffffffff16565b8051909150156112db578080602001905181019061164791906119b8565b6112db5760405162461bcd60e51b815260206004820152602a60248201527f5361666545524332303a204552433230206f7065726174696f6e20646964206e60448201527f6f74207375636365656400000000000000000000000000000000000000000000606482015260840161044e565b60606116c884846000856116d0565b949350505050565b6060824710156117485760405162461bcd60e51b815260206004820152602660248201527f416464726573733a20696e73756666696369656e742062616c616e636520666f60448201527f722063616c6c0000000000000000000000000000000000000000000000000000606482015260840161044e565b600080866001600160a01b0316858760405161176491906119f9565b60006040518083038185875af1925050503d80600081146117a1576040519150601f19603f3d011682016040523d82523d6000602084013e6117a6565b606091505b50915091506117b7878383876117c2565b979650505050505050565b6060831561183157825160000361182a576001600160a01b0385163b61182a5760405162461bcd60e51b815260206004820152601d60248201527f416464726573733a2063616c6c20746f206e6f6e2d636f6e7472616374000000604482015260640161044e565b50816116c8565b6116c883838151156118465781518083602001fd5b8060405162461bcd60e51b815260040161044e9190611a15565b60006020828403121561187257600080fd5b81356001600160a01b0381168114610da157600080fd5b80151581146103b657600080fd5b6000602082840312156118a957600080fd5b8135610da181611889565b600080604083850312156118c757600080fd5b8235915060208301356118d981611889565b809150509250929050565b600080604083850312156118f757600080fd5b50508035926020909101359150565b6000806040838503121561191957600080fd5b505080516020909101519092909150565b60006020828403121561193c57600080fd5b5051919050565b634e487b7160e01b600052601160045260246000fd5b8082018082111561038457610384611943565b808202811582820484141761038457610384611943565b6000826119a057634e487b7160e01b600052601260045260246000fd5b500490565b8181038181111561038457610384611943565b6000602082840312156119ca57600080fd5b8151610da181611889565b60005b838110156119f05781810151838201526020016119d8565b50506000910152565b60008251611a0b8184602087016119d5565b9190910192915050565b6020815260008251806020840152611a348160408501602087016119d5565b601f01601f1916919091016040019291505056fea26469706673582212201e1eb559e677cbf75c34b02fb333e166ab442b89351ca3152dcc0036e54f04f564736f6c63430008110033",
  "linkReferences": {},
  "deployedLinkReferences": {}
}