{
  "_format": "hh-sol-artifact-1",
  "contractName": "ERC721NetexLazyMintable",
  "sourceName": "src/factory/templates/lazy-mintable-template/ERC721NetexLazyMintable.sol",
  "abi": [
    {
      "inputs": [],
      "name": "ERC721AlreadyInitialized",
      "type": "error"
    },
    {
      "inputs": [],
      "name": "MaxSupply",
      "type": "error"
    },
    {
      "inputs": [],
      "name": "MaxSupplyReached",
      "type": "error"
    },
    {
      "inputs": [],
      "name": "MinterIsZeroAddress",
      "type": "error"
    },
    {
      "inputs": [],
      "name": "NotMinter",
      "type": "error"
    },
    {
      "anonymous": false,
      "inputs": [
        {
          "indexed": true,
          "internalType": "address",
          "name": "owner",
          "type": "address"
        },
        {
          "indexed": true,
          "internalType": "address",
          "name": "approved",
          "type": "address"
        },
        {
          "indexed": true,
          "internalType": "uint256",
          "name": "tokenId",
          "type": "uint256"
        }
      ],
      "name": "Approval",
      "type": "event"
    },
    {
      "anonymous": false,
      "inputs": [
        {
          "indexed": true,
          "internalType": "address",
          "name": "owner",
          "type": "address"
        },
        {
          "indexed": true,
          "internalType": "address",
          "name": "operator",
          "type": "address"
        },
        {
          "indexed": false,
          "internalType": "bool",
          "name": "approved",
          "type": "bool"
        }
      ],
      "name": "ApprovalForAll",
      "type": "event"
    },
    {
      "anonymous": false,
      "inputs": [
        {
          "indexed": false,
          "internalType": "address",
          "name": "oldMinter",
          "type": "address"
        },
        {
          "indexed": false,
          "internalType": "address",
          "name": "newMinter",
          "type": "address"
        }
      ],
      "name": "MinterUpdated",
      "type": "event"
    },
    {
      "anonymous": false,
      "inputs": [
        {
          "indexed": true,
          "internalType": "address",
          "name": "previousOwner",
          "type": "address"
        },
        {
          "indexed": true,
          "internalType": "address",
          "name": "newOwner",
          "type": "address"
        }
      ],
      "name": "OwnershipTransferred",
      "type": "event"
    },
    {
      "anonymous": false,
      "inputs": [
        {
          "indexed": true,
          "internalType": "address",
          "name": "from",
          "type": "address"
        },
        {
          "indexed": true,
          "internalType": "address",
          "name": "to",
          "type": "address"
        },
        {
          "indexed": true,
          "internalType": "uint256",
          "name": "tokenId",
          "type": "uint256"
        }
      ],
      "name": "Transfer",
      "type": "event"
    },
    {
      "inputs": [],
      "name": "DOMAIN_SEPARATOR",
      "outputs": [
        {
          "internalType": "bytes32",
          "name": "",
          "type": "bytes32"
        }
      ],
      "stateMutability": "view",
      "type": "function"
    },
    {
      "inputs": [
        {
          "internalType": "string",
          "name": "__name",
          "type": "string"
        },
        {
          "internalType": "string",
          "name": "__symbol",
          "type": "string"
        },
        {
          "internalType": "address",
          "name": "_initialOwner",
          "type": "address"
        },
        {
          "internalType": "bytes",
          "name": "",
          "type": "bytes"
        }
      ],
      "name": "__ERC721LazyTemplate_init",
      "outputs": [],
      "stateMutability": "nonpayable",
      "type": "function"
    },
    {
      "inputs": [
        {
          "internalType": "address",
          "name": "to",
          "type": "address"
        },
        {
          "internalType": "uint256",
          "name": "tokenId",
          "type": "uint256"
        }
      ],
      "name": "approve",
      "outputs": [],
      "stateMutability": "nonpayable",
      "type": "function"
    },
    {
      "inputs": [
        {
          "internalType": "address",
          "name": "owner",
          "type": "address"
        }
      ],
      "name": "balanceOf",
      "outputs": [
        {
          "internalType": "uint256",
          "name": "",
          "type": "uint256"
        }
      ],
      "stateMutability": "view",
      "type": "function"
    },
    {
      "inputs": [
        {
          "internalType": "uint256",
          "name": "tokenId",
          "type": "uint256"
        }
      ],
      "name": "getApproved",
      "outputs": [
        {
          "internalType": "address",
          "name": "",
          "type": "address"
        }
      ],
      "stateMutability": "view",
      "type": "function"
    },
    {
      "inputs": [
        {
          "internalType": "address",
          "name": "owner",
          "type": "address"
        },
        {
          "internalType": "address",
          "name": "operator",
          "type": "address"
        }
      ],
      "name": "isApprovedForAll",
      "outputs": [
        {
          "internalType": "bool",
          "name": "",
          "type": "bool"
        }
      ],
      "stateMutability": "view",
      "type": "function"
    },
    {
      "inputs": [
        {
          "components": [
            {
              "internalType": "uint256",
              "name": "tokenId",
              "type": "uint256"
            },
            {
              "internalType": "string",
              "name": "tokenURI",
              "type": "string"
            },
            {
              "internalType": "address",
              "name": "creator",
              "type": "address"
            },
            {
              "internalType": "uint96",
              "name": "royalty",
              "type": "uint96"
            },
            {
              "internalType": "bytes",
              "name": "signature",
              "type": "bytes"
            }
          ],
          "internalType": "struct LibERC721LazyMint.Mint721Data",
          "name": "data",
          "type": "tuple"
        },
        {
          "internalType": "address",
          "name": "to",
          "type": "address"
        }
      ],
      "name": "mintAndTransfer",
      "outputs": [],
      "stateMutability": "nonpayable",
      "type": "function"
    },
    {
      "inputs": [],
      "name": "name",
      "outputs": [
        {
          "internalType": "string",
          "name": "",
          "type": "string"
        }
      ],
      "stateMutability": "view",
      "type": "function"
    },
    {
      "inputs": [],
      "name": "owner",
      "outputs": [
        {
          "internalType": "address",
          "name": "",
          "type": "address"
        }
      ],
      "stateMutability": "view",
      "type": "function"
    },
    {
      "inputs": [
        {
          "internalType": "uint256",
          "name": "tokenId",
          "type": "uint256"
        }
      ],
      "name": "ownerOf",
      "outputs": [
        {
          "internalType": "address",
          "name": "",
          "type": "address"
        }
      ],
      "stateMutability": "view",
      "type": "function"
    },
    {
      "inputs": [],
      "name": "renounceOwnership",
      "outputs": [],
      "stateMutability": "nonpayable",
      "type": "function"
    },
    {
      "inputs": [
        {
          "internalType": "uint256",
          "name": "_tokenId",
          "type": "uint256"
        },
        {
          "internalType": "uint256",
          "name": "_salePrice",
          "type": "uint256"
        }
      ],
      "name": "royaltyInfo",
      "outputs": [
        {
          "internalType": "address",
          "name": "",
          "type": "address"
        },
        {
          "internalType": "uint256",
          "name": "",
          "type": "uint256"
        }
      ],
      "stateMutability": "view",
      "type": "function"
    },
    {
      "inputs": [
        {
          "internalType": "address",
          "name": "from",
          "type": "address"
        },
        {
          "internalType": "address",
          "name": "to",
          "type": "address"
        },
        {
          "internalType": "uint256",
          "name": "tokenId",
          "type": "uint256"
        }
      ],
      "name": "safeTransferFrom",
      "outputs": [],
      "stateMutability": "nonpayable",
      "type": "function"
    },
    {
      "inputs": [
        {
          "internalType": "address",
          "name": "from",
          "type": "address"
        },
        {
          "internalType": "address",
          "name": "to",
          "type": "address"
        },
        {
          "internalType": "uint256",
          "name": "tokenId",
          "type": "uint256"
        },
        {
          "internalType": "bytes",
          "name": "data",
          "type": "bytes"
        }
      ],
      "name": "safeTransferFrom",
      "outputs": [],
      "stateMutability": "nonpayable",
      "type": "function"
    },
    {
      "inputs": [
        {
          "internalType": "address",
          "name": "operator",
          "type": "address"
        },
        {
          "internalType": "bool",
          "name": "approved",
          "type": "bool"
        }
      ],
      "name": "setApprovalForAll",
      "outputs": [],
      "stateMutability": "nonpayable",
      "type": "function"
    },
    {
      "inputs": [
        {
          "internalType": "bytes4",
          "name": "interfaceId",
          "type": "bytes4"
        }
      ],
      "name": "supportsInterface",
      "outputs": [
        {
          "internalType": "bool",
          "name": "",
          "type": "bool"
        }
      ],
      "stateMutability": "view",
      "type": "function"
    },
    {
      "inputs": [],
      "name": "symbol",
      "outputs": [
        {
          "internalType": "string",
          "name": "",
          "type": "string"
        }
      ],
      "stateMutability": "view",
      "type": "function"
    },
    {
      "inputs": [
        {
          "internalType": "uint256",
          "name": "tokenId",
          "type": "uint256"
        }
      ],
      "name": "tokenURI",
      "outputs": [
        {
          "internalType": "string",
          "name": "",
          "type": "string"
        }
      ],
      "stateMutability": "view",
      "type": "function"
    },
    {
      "inputs": [
        {
          "internalType": "address",
          "name": "from",
          "type": "address"
        },
        {
          "internalType": "address",
          "name": "to",
          "type": "address"
        },
        {
          "internalType": "uint256",
          "name": "tokenId",
          "type": "uint256"
        }
      ],
      "name": "transferFrom",
      "outputs": [],
      "stateMutability": "nonpayable",
      "type": "function"
    },
    {
      "inputs": [
        {
          "components": [
            {
              "internalType": "uint256",
              "name": "tokenId",
              "type": "uint256"
            },
            {
              "internalType": "string",
              "name": "tokenURI",
              "type": "string"
            },
            {
              "internalType": "address",
              "name": "creator",
              "type": "address"
            },
            {
              "internalType": "uint96",
              "name": "royalty",
              "type": "uint96"
            },
            {
              "internalType": "bytes",
              "name": "signature",
              "type": "bytes"
            }
          ],
          "internalType": "struct LibERC721LazyMint.Mint721Data",
          "name": "data",
          "type": "tuple"
        },
        {
          "internalType": "address",
          "name": "from",
          "type": "address"
        },
        {
          "internalType": "address",
          "name": "to",
          "type": "address"
        }
      ],
      "name": "transferFromOrMint",
      "outputs": [],
      "stateMutability": "nonpayable",
      "type": "function"
    },
    {
      "inputs": [
        {
          "internalType": "address",
          "name": "newOwner",
          "type": "address"
        }
      ],
      "name": "transferOwnership",
      "outputs": [],
      "stateMutability": "nonpayable",
      "type": "function"
    }
  ],
  "bytecode": "0x608060405234801561001057600080fd5b5061001a33610024565b6001600955610076565b600880546001600160a01b038381166001600160a01b0319831681179093556040519116919082907f8be0079c531659141344cd1fd0a4f28419497f9722a3daafe3b4186f6b6457e090600090a35050565b6129bf806100856000396000f3fe608060405234801561001057600080fd5b50600436106101775760003560e01c806370a08231116100d8578063b88d4fde1161008c578063d4b790a211610066578063d4b790a2146103ad578063e985e9c5146103c0578063f2fde38b146103fc57600080fd5b8063b88d4fde14610374578063c87b56dd14610387578063cf267a941461039a57600080fd5b80638da5cb5b116100bd5780638da5cb5b1461034857806395d89b4114610359578063a22cb4651461036157600080fd5b806370a082311461032d578063715018a61461034057600080fd5b806323b872dd1161012f5780633644e515116101145780633644e5151461025157806342842e0e146103075780636352211e1461031a57600080fd5b806323b872dd1461020c5780632a55205a1461021f57600080fd5b8063081812fc11610160578063081812fc146101b9578063095ea7b3146101e45780631adbe096146101f957600080fd5b806301ffc9a71461017c57806306fdde03146101a4575b600080fd5b61018f61018a366004612266565b61040f565b60405190151581526020015b60405180910390f35b6101ac610420565b60405161019b91906122d3565b6101cc6101c73660046122e6565b6104b2565b6040516001600160a01b03909116815260200161019b565b6101f76101f236600461231b565b6104d9565b005b6101f76102073660046124c2565b61062d565b6101f761021a366004612520565b61067c565b61023261022d36600461255c565b6106f3565b604080516001600160a01b03909316835260208301919091520161019b565b6102f9604080517f8b73c3c69bb8fe3d512ecc4cf759cc79239f7b179b0ffacaa9a75d522b39400f60208201527ff89f342dc369acb8230da6654cf69befe5591ff47d9920290a4b14b3acd25bfa918101919091527fc89efdaa54c0f20c7adf612882df0950f5a951637e0307cdcb4c672f298b8bc660608201524660808201523060a082015260009060c00160405160208183030381529060405280519060200120905090565b60405190815260200161019b565b6101f7610315366004612520565b6107ae565b6101cc6103283660046122e6565b6107c9565b6102f961033b36600461257e565b61082e565b6101f76108c8565b6008546001600160a01b03166101cc565b6101ac6108dc565b6101f761036f366004612599565b6108eb565b6101f76103823660046125d5565b6108fa565b6101ac6103953660046122e6565b610978565b6101f76103a836600461263d565b610a88565b6101f76103bb36600461268b565b610d95565b61018f6103ce366004612718565b6001600160a01b03918216600090815260066020908152604080832093909416825291909152205460ff1690565b6101f761040a36600461257e565b610df2565b600061041a82610e82565b92915050565b60606000805461042f90612742565b80601f016020809104026020016040519081016040528092919081815260200182805461045b90612742565b80156104a85780601f1061047d576101008083540402835291602001916104a8565b820191906000526020600020905b81548152906001019060200180831161048b57829003601f168201915b5050505050905090565b60006104bd82610ec0565b506000908152600560205260409020546001600160a01b031690565b60006104e4826107c9565b9050806001600160a01b0316836001600160a01b0316036105725760405162461bcd60e51b815260206004820152602160248201527f4552433732313a20617070726f76616c20746f2063757272656e74206f776e6560448201527f720000000000000000000000000000000000000000000000000000000000000060648201526084015b60405180910390fd5b336001600160a01b03821614806105ac57506001600160a01b038116600090815260066020908152604080832033845290915290205460ff165b61061e5760405162461bcd60e51b815260206004820152603d60248201527f4552433732313a20617070726f76652063616c6c6572206973206e6f7420746f60448201527f6b656e206f776e6572206f7220617070726f76656420666f7220616c6c0000006064820152608401610569565b6106288383610f24565b505050565b610635610f9f565b82516000908152600360205260409020546001600160a01b03161561066857610663828285600001516107ae565b610672565b6106728382610a88565b6106286001600955565b6106863382610ff8565b6106e85760405162461bcd60e51b815260206004820152602d60248201527f4552433732313a2063616c6c6572206973206e6f7420746f6b656e206f776e6560448201526c1c881bdc88185c1c1c9bdd9959609a1b6064820152608401610569565b610628838383611076565b6000828152600b602090815260408083208151808301909252546001600160a01b038116808352600160a01b9091046bffffffffffffffffffffffff16928201929092528291610772575060408051808201909152600a546001600160a01b0381168252600160a01b90046bffffffffffffffffffffffff1660208201525b602081015160009061271090610796906bffffffffffffffffffffffff1687612792565b6107a091906127a9565b915196919550909350505050565b610628838383604051806020016040528060008152506108fa565b6000818152600360205260408120546001600160a01b03168061041a5760405162461bcd60e51b815260206004820152601860248201527f4552433732313a20696e76616c696420746f6b656e20494400000000000000006044820152606401610569565b60006001600160a01b0382166108ac5760405162461bcd60e51b815260206004820152602960248201527f4552433732313a2061646472657373207a65726f206973206e6f74206120766160448201527f6c6964206f776e657200000000000000000000000000000000000000000000006064820152608401610569565b506001600160a01b031660009081526004602052604090205490565b6108d061127c565b6108da60006112d6565b565b60606001805461042f90612742565b6108f6338383611335565b5050565b6109043383610ff8565b6109665760405162461bcd60e51b815260206004820152602d60248201527f4552433732313a2063616c6c6572206973206e6f7420746f6b656e206f776e6560448201526c1c881bdc88185c1c1c9bdd9959609a1b6064820152608401610569565b61097284848484611403565b50505050565b606061098382610ec0565b6000828152600760205260408120805461099c90612742565b80601f01602080910402602001604051908101604052809291908181526020018280546109c890612742565b8015610a155780601f106109ea57610100808354040283529160200191610a15565b820191906000526020600020905b8154815290600101906020018083116109f857829003601f168201915b505050505090506000610a3360408051602081019091526000815290565b90508051600003610a45575092915050565b815115610a77578082604051602001610a5f9291906127cb565b60405160208183030381529060405292505050919050565b610a8084611481565b949350505050565b600c54610100900460ff1615610b0e5781604001516001600160a01b0316610ab86008546001600160a01b031690565b6001600160a01b031614610b0e5760405162461bcd60e51b815260206004820152601760248201527f6d696e746572206973206e6f7420746865206f776e65720000000000000000006044820152606401610569565b815160601c600033905083604001516001600160a01b0316826001600160a01b031614610b7d5760405162461bcd60e51b815260206004820152601160248201527f746f6b656e496420696e636f72726563740000000000000000000000000000006044820152606401610569565b806001600160a01b0316826001600160a01b03161480610bc257506001600160a01b0380831660009081526006602090815260408083209385168352929052205460ff165b610c345760405162461bcd60e51b815260206004820152603160248201527f4552433732313a207472616e736665722063616c6c6572206973206e6f74206f60448201527f776e6572206e6f7220617070726f7665640000000000000000000000000000006064820152608401610569565b60408401516001600160a01b0380821690831614610d5757610d0b610c58866114f5565b828760800151610d06604080517f8b73c3c69bb8fe3d512ecc4cf759cc79239f7b179b0ffacaa9a75d522b39400f60208201527ff89f342dc369acb8230da6654cf69befe5591ff47d9920290a4b14b3acd25bfa918101919091527fc89efdaa54c0f20c7adf612882df0950f5a951637e0307cdcb4c672f298b8bc660608201524660808201523060a082015260009060c00160405160208183030381529060405280519060200120905090565b611599565b610d575760405162461bcd60e51b815260206004820152601260248201527f5369676e61747572653a20496e76616c696400000000000000000000000000006044820152606401610569565b610d658486600001516116e8565b610d7c856000015186604001518760600151611702565b610d8e8560000151866020015161182d565b5050505050565b600c5460ff1615610dd2576040517fecc4b62000000000000000000000000000000000000000000000000000000000815260040160405180910390fd5b600c805460ff19166001179055610de984846118cf565b610972826112d6565b610dfa61127c565b6001600160a01b038116610e765760405162461bcd60e51b815260206004820152602660248201527f4f776e61626c653a206e6577206f776e657220697320746865207a65726f206160448201527f64647265737300000000000000000000000000000000000000000000000000006064820152608401610569565b610e7f816112d6565b50565b60006001600160e01b031982167f2a55205a00000000000000000000000000000000000000000000000000000000148061041a575061041a82611972565b6000818152600360205260409020546001600160a01b0316610e7f5760405162461bcd60e51b815260206004820152601860248201527f4552433732313a20696e76616c696420746f6b656e20494400000000000000006044820152606401610569565b6000818152600560205260409020805473ffffffffffffffffffffffffffffffffffffffff19166001600160a01b0384169081179091558190610f66826107c9565b6001600160a01b03167f8c5be1e5ebec7d5bd14f71427d1e84f3dd0314c0f7b2291e5b200ac8c7c3b92560405160405180910390a45050565b600260095403610ff15760405162461bcd60e51b815260206004820152601f60248201527f5265656e7472616e637947756172643a207265656e7472616e742063616c6c006044820152606401610569565b6002600955565b600080611004836107c9565b9050806001600160a01b0316846001600160a01b0316148061104b57506001600160a01b0380821660009081526006602090815260408083209388168352929052205460ff165b80610a805750836001600160a01b0316611064846104b2565b6001600160a01b031614949350505050565b826001600160a01b0316611089826107c9565b6001600160a01b0316146110ed5760405162461bcd60e51b815260206004820152602560248201527f4552433732313a207472616e736665722066726f6d20696e636f72726563742060448201526437bbb732b960d91b6064820152608401610569565b6001600160a01b0382166111685760405162461bcd60e51b8152602060048201526024808201527f4552433732313a207472616e7366657220746f20746865207a65726f2061646460448201527f72657373000000000000000000000000000000000000000000000000000000006064820152608401610569565b826001600160a01b031661117b826107c9565b6001600160a01b0316146111df5760405162461bcd60e51b815260206004820152602560248201527f4552433732313a207472616e736665722066726f6d20696e636f72726563742060448201526437bbb732b960d91b6064820152608401610569565b6000818152600560209081526040808320805473ffffffffffffffffffffffffffffffffffffffff199081169091556001600160a01b0387811680865260048552838620805460001901905590871680865283862080546001019055868652600390945282852080549092168417909155905184937fddf252ad1be2c89b69c2b068fc378daa952ba7f163c4a11628f55a4df523b3ef91a4505050565b6008546001600160a01b031633146108da5760405162461bcd60e51b815260206004820181905260248201527f4f776e61626c653a2063616c6c6572206973206e6f7420746865206f776e65726044820152606401610569565b600880546001600160a01b0383811673ffffffffffffffffffffffffffffffffffffffff19831681179093556040519116919082907f8be0079c531659141344cd1fd0a4f28419497f9722a3daafe3b4186f6b6457e090600090a35050565b816001600160a01b0316836001600160a01b0316036113965760405162461bcd60e51b815260206004820152601960248201527f4552433732313a20617070726f766520746f2063616c6c6572000000000000006044820152606401610569565b6001600160a01b03838116600081815260066020908152604080832094871680845294825291829020805460ff191686151590811790915591519182527f17307eab39ab6107e8899845ad3d59bd9653f200f220920489ca2b5937696c31910160405180910390a3505050565b61140e848484611076565b61141a84848484611a0d565b6109725760405162461bcd60e51b815260206004820152603260248201527f4552433732313a207472616e7366657220746f206e6f6e20455243373231526560448201527131b2b4bb32b91034b6b83632b6b2b73a32b960711b6064820152608401610569565b606061148c82610ec0565b60006114a360408051602081019091526000815290565b905060008151116114c357604051806020016040528060008152506114ee565b806114cd84611b56565b6040516020016114de9291906127cb565b6040516020818303038152906040525b9392505050565b60007f7dfe7309bd6ebf2dbc72c68f822ce0f70f2be4d551babbb69de8929c861b636282600001518360200151805190602001208460400151856060015160405160200161157c959493929190948552602085019390935260408401919091526001600160a01b031660608301526bffffffffffffffffffffffff16608082015260a00190565b604051602081830303815290604052805190602001209050919050565b6040517f1901000000000000000000000000000000000000000000000000000000000000602082015260228101829052604281018590526000908190606201604051602081830303815290604052805190602001209050611603856001600160a01b03163b151590565b156116c0576040517f1626ba7e0000000000000000000000000000000000000000000000000000000081526001600160a01b03861690631626ba7e9061164f90849088906004016127fa565b602060405180830381865afa15801561166c573d6000803e3d6000fd5b505050506040513d601f19601f820116820180604052508101906116909190612813565b7bffffffffffffffffffffffffffffffffffffffffffffffffffffffff1916631626ba7e60e01b14915050610a80565b846001600160a01b03166116d48286611bf6565b6001600160a01b0316149695505050505050565b6108f6828260405180602001604052806000815250611c71565b6127106bffffffffffffffffffffffff821611156117885760405162461bcd60e51b815260206004820152602a60248201527f455243323938313a20726f79616c7479206665652077696c6c2065786365656460448201527f2073616c655072696365000000000000000000000000000000000000000000006064820152608401610569565b6001600160a01b0382166117de5760405162461bcd60e51b815260206004820152601b60248201527f455243323938313a20496e76616c696420706172616d657465727300000000006044820152606401610569565b6040805180820182526001600160a01b0393841681526bffffffffffffffffffffffff92831660208083019182526000968752600b90529190942093519051909116600160a01b029116179055565b6000828152600360205260409020546001600160a01b03166118b75760405162461bcd60e51b815260206004820152602e60248201527f45524337323155524953746f726167653a2055524920736574206f66206e6f6e60448201527f6578697374656e7420746f6b656e0000000000000000000000000000000000006064820152608401610569565b6000828152600760205260409020610628828261287e565b60025460ff16156119475760405162461bcd60e51b8152602060048201526024808201527f455243373231436c6f6e6561626c653a20416c726561647920696e697469616c60448201527f697a6564000000000000000000000000000000000000000000000000000000006064820152608401610569565b6000611953838261287e565b506001611960828261287e565b50506002805460ff1916600117905550565b60006001600160e01b031982167f80ac58cd0000000000000000000000000000000000000000000000000000000014806119d557506001600160e01b031982167f5b5e139f00000000000000000000000000000000000000000000000000000000145b8061041a57507f01ffc9a7000000000000000000000000000000000000000000000000000000006001600160e01b031983161461041a565b60006001600160a01b0384163b15611b4e57604051630a85bd0160e11b81526001600160a01b0385169063150b7a0290611a5190339089908890889060040161293e565b6020604051808303816000875af1925050508015611a8c575060408051601f3d908101601f19168201909252611a8991810190612813565b60015b611b34573d808015611aba576040519150601f19603f3d011682016040523d82523d6000602084013e611abf565b606091505b508051600003611b2c5760405162461bcd60e51b815260206004820152603260248201527f4552433732313a207472616e7366657220746f206e6f6e20455243373231526560448201527131b2b4bb32b91034b6b83632b6b2b73a32b960711b6064820152608401610569565b805181602001fd5b6001600160e01b031916630a85bd0160e11b149050610a80565b506001610a80565b60606000611b6383611cef565b600101905060008167ffffffffffffffff811115611b8357611b83612345565b6040519080825280601f01601f191660200182016040528015611bad576020820181803683370190505b5090508181016020015b600019017f3031323334353637383961626364656600000000000000000000000000000000600a86061a8153600a8504945084611bb757509392505050565b60008151604114611c495760405162461bcd60e51b815260206004820152601f60248201527f45434453413a20696e76616c6964207369676e6174757265206c656e677468006044820152606401610569565b60208201516040830151606084015160001a611c6786828585611dd1565b9695505050505050565b611c7b838361207d565b611c886000848484611a0d565b6106285760405162461bcd60e51b815260206004820152603260248201527f4552433732313a207472616e7366657220746f206e6f6e20455243373231526560448201527131b2b4bb32b91034b6b83632b6b2b73a32b960711b6064820152608401610569565b6000807a184f03e93ff9f4daa797ed6e38ed64bf6a1f0100000000000000008310611d38577a184f03e93ff9f4daa797ed6e38ed64bf6a1f010000000000000000830492506040015b6d04ee2d6d415b85acef81000000008310611d64576d04ee2d6d415b85acef8100000000830492506020015b662386f26fc100008310611d8257662386f26fc10000830492506010015b6305f5e1008310611d9a576305f5e100830492506008015b6127108310611dae57612710830492506004015b60648310611dc0576064830492506002015b600a831061041a5760010192915050565b60007f7fffffffffffffffffffffffffffffff5d576e7357a4501ddfe92f46681b20a0821115611e4e5760405162461bcd60e51b815260206004820152602260248201527f45434453413a20696e76616c6964207369676e6174757265202773272076616c604482015261756560f01b6064820152608401610569565b6000601e8560ff161115611f5257611e67600486612970565b60ff16601b1480611e855750611e7e600486612970565b60ff16601c145b611edc5760405162461bcd60e51b815260206004820152602260248201527f45434453413a20696e76616c6964207369676e6174757265202776272076616c604482015261756560f01b6064820152608401610569565b6001611ee787612215565b611ef2600488612970565b6040805160008152602081018083529390935260ff90911690820152606081018690526080810185905260a0016020604051602081039080840390855afa158015611f41573d6000803e3d6000fd5b50505060206040510351905061201e565b8460ff16601b1480611f6757508460ff16601c145b611fbe5760405162461bcd60e51b815260206004820152602260248201527f45434453413a20696e76616c6964207369676e6174757265202776272076616c604482015261756560f01b6064820152608401610569565b60408051600081526020810180835288905260ff871691810191909152606081018590526080810184905260019060a0016020604051602081039080840390855afa158015612011573d6000803e3d6000fd5b5050506020604051035190505b6001600160a01b0381166120745760405162461bcd60e51b815260206004820152601860248201527f45434453413a20696e76616c6964207369676e617475726500000000000000006044820152606401610569565b95945050505050565b6001600160a01b0382166120d35760405162461bcd60e51b815260206004820181905260248201527f4552433732313a206d696e7420746f20746865207a65726f20616464726573736044820152606401610569565b6000818152600360205260409020546001600160a01b0316156121385760405162461bcd60e51b815260206004820152601c60248201527f4552433732313a20746f6b656e20616c7265616479206d696e746564000000006044820152606401610569565b6000818152600360205260409020546001600160a01b03161561219d5760405162461bcd60e51b815260206004820152601c60248201527f4552433732313a20746f6b656e20616c7265616479206d696e746564000000006044820152606401610569565b6001600160a01b0382166000818152600460209081526040808320805460010190558483526003909152808220805473ffffffffffffffffffffffffffffffffffffffff19168417905551839291907fddf252ad1be2c89b69c2b068fc378daa952ba7f163c4a11628f55a4df523b3ef908290a45050565b6040517f19457468657265756d205369676e6564204d6573736167653a0a3332000000006020820152603c8101829052600090605c0161157c565b6001600160e01b031981168114610e7f57600080fd5b60006020828403121561227857600080fd5b81356114ee81612250565b60005b8381101561229e578181015183820152602001612286565b50506000910152565b600081518084526122bf816020860160208601612283565b601f01601f19169290920160200192915050565b6020815260006114ee60208301846122a7565b6000602082840312156122f857600080fd5b5035919050565b80356001600160a01b038116811461231657600080fd5b919050565b6000806040838503121561232e57600080fd5b612337836122ff565b946020939093013593505050565b634e487b7160e01b600052604160045260246000fd5b60405160a0810167ffffffffffffffff8111828210171561237e5761237e612345565b60405290565b600082601f83011261239557600080fd5b813567ffffffffffffffff808211156123b0576123b0612345565b604051601f8301601f19908116603f011681019082821181831017156123d8576123d8612345565b816040528381528660208588010111156123f157600080fd5b836020870160208301376000602085830101528094505050505092915050565b600060a0828403121561242357600080fd5b61242b61235b565b905081358152602082013567ffffffffffffffff8082111561244c57600080fd5b61245885838601612384565b6020840152612469604085016122ff565b6040840152606084013591506bffffffffffffffffffffffff8216821461248f57600080fd5b81606084015260808401359150808211156124a957600080fd5b506124b684828501612384565b60808301525092915050565b6000806000606084860312156124d757600080fd5b833567ffffffffffffffff8111156124ee57600080fd5b6124fa86828701612411565b935050612509602085016122ff565b9150612517604085016122ff565b90509250925092565b60008060006060848603121561253557600080fd5b61253e846122ff565b925061254c602085016122ff565b9150604084013590509250925092565b6000806040838503121561256f57600080fd5b50508035926020909101359150565b60006020828403121561259057600080fd5b6114ee826122ff565b600080604083850312156125ac57600080fd5b6125b5836122ff565b9150602083013580151581146125ca57600080fd5b809150509250929050565b600080600080608085870312156125eb57600080fd5b6125f4856122ff565b9350612602602086016122ff565b925060408501359150606085013567ffffffffffffffff81111561262557600080fd5b61263187828801612384565b91505092959194509250565b6000806040838503121561265057600080fd5b823567ffffffffffffffff81111561266757600080fd5b61267385828601612411565b925050612682602084016122ff565b90509250929050565b600080600080608085870312156126a157600080fd5b843567ffffffffffffffff808211156126b957600080fd5b6126c588838901612384565b955060208701359150808211156126db57600080fd5b6126e788838901612384565b94506126f5604088016122ff565b9350606087013591508082111561270b57600080fd5b5061263187828801612384565b6000806040838503121561272b57600080fd5b612734836122ff565b9150612682602084016122ff565b600181811c9082168061275657607f821691505b60208210810361277657634e487b7160e01b600052602260045260246000fd5b50919050565b634e487b7160e01b600052601160045260246000fd5b808202811582820484141761041a5761041a61277c565b6000826127c657634e487b7160e01b600052601260045260246000fd5b500490565b600083516127dd818460208801612283565b8351908301906127f1818360208801612283565b01949350505050565b828152604060208201526000610a8060408301846122a7565b60006020828403121561282557600080fd5b81516114ee81612250565b601f82111561062857600081815260208120601f850160051c810160208610156128575750805b601f850160051c820191505b8181101561287657828155600101612863565b505050505050565b815167ffffffffffffffff81111561289857612898612345565b6128ac816128a68454612742565b84612830565b602080601f8311600181146128e157600084156128c95750858301515b600019600386901b1c1916600185901b178555612876565b600085815260208120601f198616915b82811015612910578886015182559484019460019091019084016128f1565b508582101561292e5787850151600019600388901b60f8161c191681555b5050505050600190811b01905550565b60006001600160a01b03808716835280861660208401525083604083015260806060830152611c6760808301846122a7565b60ff828116828216039081111561041a5761041a61277c56fea2646970667358221220f85240dcde3e79659a7bf90b5213593fd5ddcf340641862ddf346344e1b1283564736f6c63430008110033",
  "linkReferences": {},
  "deployedLinkReferences": {}
}