{
  "_format": "hh-sol-artifact-1",
  "contractName": "LooksRareToken",
  "sourceName": "src/tokens/LooksRareToken.sol",
  "abi": [
    {
      "inputs": [
        {
          "internalType": "address",
          "name": "_premintReceiver",
          "type": "address"
        },
        {
          "internalType": "uint256",
          "name": "_premintAmount",
          "type": "uint256"
        },
        {
          "internalType": "uint256",
          "name": "_cap",
          "type": "uint256"
        }
      ],
      "stateMutability": "nonpayable",
      "type": "constructor"
    },
    {
      "anonymous": false,
      "inputs": [
        {
          "indexed": true,
          "internalType": "address",
          "name": "owner",
          "type": "address"
        },
        {
          "indexed": true,
          "internalType": "address",
          "name": "spender",
          "type": "address"
        },
        {
          "indexed": false,
          "internalType": "uint256",
          "name": "value",
          "type": "uint256"
        }
      ],
      "name": "Approval",
      "type": "event"
    },
    {
      "anonymous": false,
      "inputs": [
        {
          "indexed": true,
          "internalType": "address",
          "name": "previousOwner",
          "type": "address"
        },
        {
          "indexed": true,
          "internalType": "address",
          "name": "newOwner",
          "type": "address"
        }
      ],
      "name": "OwnershipTransferred",
      "type": "event"
    },
    {
      "anonymous": false,
      "inputs": [
        {
          "indexed": true,
          "internalType": "address",
          "name": "from",
          "type": "address"
        },
        {
          "indexed": true,
          "internalType": "address",
          "name": "to",
          "type": "address"
        },
        {
          "indexed": false,
          "internalType": "uint256",
          "name": "value",
          "type": "uint256"
        }
      ],
      "name": "Transfer",
      "type": "event"
    },
    {
      "inputs": [],
      "name": "SUPPLY_CAP",
      "outputs": [
        {
          "internalType": "uint256",
          "name": "",
          "type": "uint256"
        }
      ],
      "stateMutability": "view",
      "type": "function"
    },
    {
      "inputs": [
        {
          "internalType": "address",
          "name": "owner",
          "type": "address"
        },
        {
          "internalType": "address",
          "name": "spender",
          "type": "address"
        }
      ],
      "name": "allowance",
      "outputs": [
        {
          "internalType": "uint256",
          "name": "",
          "type": "uint256"
        }
      ],
      "stateMutability": "view",
      "type": "function"
    },
    {
      "inputs": [
        {
          "internalType": "address",
          "name": "spender",
          "type": "address"
        },
        {
          "internalType": "uint256",
          "name": "amount",
          "type": "uint256"
        }
      ],
      "name": "approve",
      "outputs": [
        {
          "internalType": "bool",
          "name": "",
          "type": "bool"
        }
      ],
      "stateMutability": "nonpayable",
      "type": "function"
    },
    {
      "inputs": [
        {
          "internalType": "address",
          "name": "account",
          "type": "address"
        }
      ],
      "name": "balanceOf",
      "outputs": [
        {
          "internalType": "uint256",
          "name": "",
          "type": "uint256"
        }
      ],
      "stateMutability": "view",
      "type": "function"
    },
    {
      "inputs": [],
      "name": "decimals",
      "outputs": [
        {
          "internalType": "uint8",
          "name": "",
          "type": "uint8"
        }
      ],
      "stateMutability": "view",
      "type": "function"
    },
    {
      "inputs": [
        {
          "internalType": "address",
          "name": "spender",
          "type": "address"
        },
        {
          "internalType": "uint256",
          "name": "subtractedValue",
          "type": "uint256"
        }
      ],
      "name": "decreaseAllowance",
      "outputs": [
        {
          "internalType": "bool",
          "name": "",
          "type": "bool"
        }
      ],
      "stateMutability": "nonpayable",
      "type": "function"
    },
    {
      "inputs": [
        {
          "internalType": "address",
          "name": "spender",
          "type": "address"
        },
        {
          "internalType": "uint256",
          "name": "addedValue",
          "type": "uint256"
        }
      ],
      "name": "increaseAllowance",
      "outputs": [
        {
          "internalType": "bool",
          "name": "",
          "type": "bool"
        }
      ],
      "stateMutability": "nonpayable",
      "type": "function"
    },
    {
      "inputs": [
        {
          "internalType": "address",
          "name": "account",
          "type": "address"
        },
        {
          "internalType": "uint256",
          "name": "amount",
          "type": "uint256"
        }
      ],
      "name": "mint",
      "outputs": [
        {
          "internalType": "bool",
          "name": "status",
          "type": "bool"
        }
      ],
      "stateMutability": "nonpayable",
      "type": "function"
    },
    {
      "inputs": [],
      "name": "name",
      "outputs": [
        {
          "internalType": "string",
          "name": "",
          "type": "string"
        }
      ],
      "stateMutability": "view",
      "type": "function"
    },
    {
      "inputs": [],
      "name": "owner",
      "outputs": [
        {
          "internalType": "address",
          "name": "",
          "type": "address"
        }
      ],
      "stateMutability": "view",
      "type": "function"
    },
    {
      "inputs": [],
      "name": "renounceOwnership",
      "outputs": [],
      "stateMutability": "nonpayable",
      "type": "function"
    },
    {
      "inputs": [],
      "name": "symbol",
      "outputs": [
        {
          "internalType": "string",
          "name": "",
          "type": "string"
        }
      ],
      "stateMutability": "view",
      "type": "function"
    },
    {
      "inputs": [],
      "name": "totalSupply",
      "outputs": [
        {
          "internalType": "uint256",
          "name": "",
          "type": "uint256"
        }
      ],
      "stateMutability": "view",
      "type": "function"
    },
    {
      "inputs": [
        {
          "internalType": "address",
          "name": "to",
          "type": "address"
        },
        {
          "internalType": "uint256",
          "name": "amount",
          "type": "uint256"
        }
      ],
      "name": "transfer",
      "outputs": [
        {
          "internalType": "bool",
          "name": "",
          "type": "bool"
        }
      ],
      "stateMutability": "nonpayable",
      "type": "function"
    },
    {
      "inputs": [
        {
          "internalType": "address",
          "name": "from",
          "type": "address"
        },
        {
          "internalType": "address",
          "name": "to",
          "type": "address"
        },
        {
          "internalType": "uint256",
          "name": "amount",
          "type": "uint256"
        }
      ],
      "name": "transferFrom",
      "outputs": [
        {
          "internalType": "bool",
          "name": "",
          "type": "bool"
        }
      ],
      "stateMutability": "nonpayable",
      "type": "function"
    },
    {
      "inputs": [
        {
          "internalType": "address",
          "name": "newOwner",
          "type": "address"
        }
      ],
      "name": "transferOwnership",
      "outputs": [],
      "stateMutability": "nonpayable",
      "type": "function"
    }
  ],
  "bytecode": "0x60a06040523480156200001157600080fd5b50604051620010d0380380620010d0833981016040819052620000349162000254565b6040518060400160405280600f81526020016e2637b7b5b9a930b932902a37b5b2b760891b815250604051806040016040528060058152602001644c4f4f4b5360d81b81525081600390816200008b91906200033d565b5060046200009a82826200033d565b505050620000b7620000b16200013660201b60201c565b6200013a565b8181116200011e5760405162461bcd60e51b815260206004820152602960248201527f4c4f4f4b533a205072656d696e7420616d6f756e7420697320677265617465726044820152680207468616e206361760bc1b60648201526084015b60405180910390fd5b6200012a83836200018c565b60805250620004319050565b3390565b600580546001600160a01b038381166001600160a01b0319831681179093556040519116919082907f8be0079c531659141344cd1fd0a4f28419497f9722a3daafe3b4186f6b6457e090600090a35050565b6001600160a01b038216620001e45760405162461bcd60e51b815260206004820152601f60248201527f45524332303a206d696e7420746f20746865207a65726f206164647265737300604482015260640162000115565b8060026000828254620001f8919062000409565b90915550506001600160a01b038216600081815260208181526040808320805486019055518481527fddf252ad1be2c89b69c2b068fc378daa952ba7f163c4a11628f55a4df523b3ef910160405180910390a35050565b505050565b6000806000606084860312156200026a57600080fd5b83516001600160a01b03811681146200028257600080fd5b602085015160409095015190969495509392505050565b634e487b7160e01b600052604160045260246000fd5b600181811c90821680620002c457607f821691505b602082108103620002e557634e487b7160e01b600052602260045260246000fd5b50919050565b601f8211156200024f57600081815260208120601f850160051c81016020861015620003145750805b601f850160051c820191505b81811015620003355782815560010162000320565b505050505050565b81516001600160401b0381111562000359576200035962000299565b62000371816200036a8454620002af565b84620002eb565b602080601f831160018114620003a95760008415620003905750858301515b600019600386901b1c1916600185901b17855562000335565b600085815260208120601f198616915b82811015620003da57888601518255948401946001909101908401620003b9565b5085821015620003f95787850151600019600388901b60f8161c191681555b5050505050600190811b01905550565b808201808211156200042b57634e487b7160e01b600052601160045260246000fd5b92915050565b608051610c7c620004546000396000818161014801526103a90152610c7c6000f3fe608060405234801561001057600080fd5b50600436106101005760003560e01c806370a0823111610097578063a457c2d711610066578063a457c2d71461021c578063a9059cbb1461022f578063dd62ed3e14610242578063f2fde38b1461027b57600080fd5b806370a08231146101c6578063715018a6146101ef5780638da5cb5b146101f957806395d89b411461021457600080fd5b806323b872dd116100d357806323b872dd1461017e578063313ce5671461019157806339509351146101a057806340c10f19146101b357600080fd5b806306fdde0314610105578063095ea7b3146101235780630cfccc831461014657806318160ddd14610176575b600080fd5b61010d61028e565b60405161011a9190610ac6565b60405180910390f35b610136610131366004610b30565b610320565b604051901515815260200161011a565b7f00000000000000000000000000000000000000000000000000000000000000005b60405190815260200161011a565b600254610168565b61013661018c366004610b5a565b61033a565b6040516012815260200161011a565b6101366101ae366004610b30565b61035e565b6101366101c1366004610b30565b61039d565b6101686101d4366004610b96565b6001600160a01b031660009081526020819052604090205490565b6101f76103fc565b005b6005546040516001600160a01b03909116815260200161011a565b61010d610410565b61013661022a366004610b30565b61041f565b61013661023d366004610b30565b6104ce565b610168610250366004610bb8565b6001600160a01b03918216600090815260016020908152604080832093909416825291909152205490565b6101f7610289366004610b96565b6104dc565b60606003805461029d90610beb565b80601f01602080910402602001604051908101604052809291908181526020018280546102c990610beb565b80156103165780601f106102eb57610100808354040283529160200191610316565b820191906000526020600020905b8154815290600101906020018083116102f957829003601f168201915b5050505050905090565b60003361032e81858561056c565b60019150505b92915050565b6000336103488582856106c4565b610353858585610756565b506001949350505050565b3360008181526001602090815260408083206001600160a01b038716845290915281205490919061032e9082908690610398908790610c25565b61056c565b60006103a7610943565b7f0000000000000000000000000000000000000000000000000000000000000000826103d260025490565b6103dc9190610c25565b116103f3576103eb838361099d565b506001610334565b50600092915050565b610404610943565b61040e6000610a5c565b565b60606004805461029d90610beb565b3360008181526001602090815260408083206001600160a01b0387168452909152812054909190838110156104c15760405162461bcd60e51b815260206004820152602560248201527f45524332303a2064656372656173656420616c6c6f77616e63652062656c6f7760448201527f207a65726f00000000000000000000000000000000000000000000000000000060648201526084015b60405180910390fd5b610353828686840361056c565b60003361032e818585610756565b6104e4610943565b6001600160a01b0381166105605760405162461bcd60e51b815260206004820152602660248201527f4f776e61626c653a206e6577206f776e657220697320746865207a65726f206160448201527f646472657373000000000000000000000000000000000000000000000000000060648201526084016104b8565b61056981610a5c565b50565b6001600160a01b0383166105e75760405162461bcd60e51b8152602060048201526024808201527f45524332303a20617070726f76652066726f6d20746865207a65726f2061646460448201527f726573730000000000000000000000000000000000000000000000000000000060648201526084016104b8565b6001600160a01b0382166106635760405162461bcd60e51b815260206004820152602260248201527f45524332303a20617070726f766520746f20746865207a65726f20616464726560448201527f737300000000000000000000000000000000000000000000000000000000000060648201526084016104b8565b6001600160a01b0383811660008181526001602090815260408083209487168084529482529182902085905590518481527f8c5be1e5ebec7d5bd14f71427d1e84f3dd0314c0f7b2291e5b200ac8c7c3b925910160405180910390a3505050565b6001600160a01b03838116600090815260016020908152604080832093861683529290522054600019811461075057818110156107435760405162461bcd60e51b815260206004820152601d60248201527f45524332303a20696e73756666696369656e7420616c6c6f77616e636500000060448201526064016104b8565b610750848484840361056c565b50505050565b6001600160a01b0383166107d25760405162461bcd60e51b815260206004820152602560248201527f45524332303a207472616e736665722066726f6d20746865207a65726f20616460448201527f647265737300000000000000000000000000000000000000000000000000000060648201526084016104b8565b6001600160a01b03821661084e5760405162461bcd60e51b815260206004820152602360248201527f45524332303a207472616e7366657220746f20746865207a65726f206164647260448201527f657373000000000000000000000000000000000000000000000000000000000060648201526084016104b8565b6001600160a01b038316600090815260208190526040902054818110156108dd5760405162461bcd60e51b815260206004820152602660248201527f45524332303a207472616e7366657220616d6f756e742065786365656473206260448201527f616c616e6365000000000000000000000000000000000000000000000000000060648201526084016104b8565b6001600160a01b03848116600081815260208181526040808320878703905593871680835291849020805487019055925185815290927fddf252ad1be2c89b69c2b068fc378daa952ba7f163c4a11628f55a4df523b3ef910160405180910390a3610750565b6005546001600160a01b0316331461040e5760405162461bcd60e51b815260206004820181905260248201527f4f776e61626c653a2063616c6c6572206973206e6f7420746865206f776e657260448201526064016104b8565b6001600160a01b0382166109f35760405162461bcd60e51b815260206004820152601f60248201527f45524332303a206d696e7420746f20746865207a65726f20616464726573730060448201526064016104b8565b8060026000828254610a059190610c25565b90915550506001600160a01b038216600081815260208181526040808320805486019055518481527fddf252ad1be2c89b69c2b068fc378daa952ba7f163c4a11628f55a4df523b3ef910160405180910390a35050565b600580546001600160a01b038381167fffffffffffffffffffffffff0000000000000000000000000000000000000000831681179093556040519116919082907f8be0079c531659141344cd1fd0a4f28419497f9722a3daafe3b4186f6b6457e090600090a35050565b600060208083528351808285015260005b81811015610af357858101830151858201604001528201610ad7565b506000604082860101526040601f19601f8301168501019250505092915050565b80356001600160a01b0381168114610b2b57600080fd5b919050565b60008060408385031215610b4357600080fd5b610b4c83610b14565b946020939093013593505050565b600080600060608486031215610b6f57600080fd5b610b7884610b14565b9250610b8660208501610b14565b9150604084013590509250925092565b600060208284031215610ba857600080fd5b610bb182610b14565b9392505050565b60008060408385031215610bcb57600080fd5b610bd483610b14565b9150610be260208401610b14565b90509250929050565b600181811c90821680610bff57607f821691505b602082108103610c1f57634e487b7160e01b600052602260045260246000fd5b50919050565b8082018082111561033457634e487b7160e01b600052601160045260246000fdfea264697066735822122022bd7cea68132441de753cde52a0deef41c21d706957955c6a237d4d5f35792e64736f6c63430008110033",
  "linkReferences": {},
  "deployedLinkReferences": {}
}