{
  "_format": "hh-sol-artifact-1",
  "contractName": "FeeSharingSetter",
  "sourceName": "src/fee/FeeSharingSetter.sol",
  "abi": [
    {
      "inputs": [
        {
          "internalType": "address",
          "name": "_feeSharingSystem",
          "type": "address"
        },
        {
          "internalType": "uint256",
          "name": "_minRewardDurationInBlocks",
          "type": "uint256"
        },
        {
          "internalType": "uint256",
          "name": "_maxRewardDurationInBlocks",
          "type": "uint256"
        },
        {
          "internalType": "uint256",
          "name": "_rewardDurationInBlocks",
          "type": "uint256"
        }
      ],
      "stateMutability": "nonpayable",
      "type": "constructor"
    },
    {
      "anonymous": false,
      "inputs": [
        {
          "indexed": true,
          "internalType": "address",
          "name": "token",
          "type": "address"
        },
        {
          "indexed": false,
          "internalType": "uint256",
          "name": "amountConverted",
          "type": "uint256"
        },
        {
          "indexed": false,
          "internalType": "uint256",
          "name": "amountReceived",
          "type": "uint256"
        }
      ],
      "name": "ConversionToRewardToken",
      "type": "event"
    },
    {
      "anonymous": false,
      "inputs": [
        {
          "indexed": false,
          "internalType": "address[]",
          "name": "feeStakingAddresses",
          "type": "address[]"
        }
      ],
      "name": "FeeStakingAddressesAdded",
      "type": "event"
    },
    {
      "anonymous": false,
      "inputs": [
        {
          "indexed": false,
          "internalType": "address[]",
          "name": "feeStakingAddresses",
          "type": "address[]"
        }
      ],
      "name": "FeeStakingAddressesRemoved",
      "type": "event"
    },
    {
      "anonymous": false,
      "inputs": [
        {
          "indexed": false,
          "internalType": "address",
          "name": "newOwner",
          "type": "address"
        }
      ],
      "name": "NewFeeSharingSystemOwner",
      "type": "event"
    },
    {
      "anonymous": false,
      "inputs": [
        {
          "indexed": false,
          "internalType": "address",
          "name": "rewardConvertor",
          "type": "address"
        }
      ],
      "name": "NewRewardConvertor",
      "type": "event"
    },
    {
      "anonymous": false,
      "inputs": [
        {
          "indexed": false,
          "internalType": "uint256",
          "name": "rewardDurationInBlocks",
          "type": "uint256"
        }
      ],
      "name": "NewRewardDurationInBlocks",
      "type": "event"
    },
    {
      "anonymous": false,
      "inputs": [
        {
          "indexed": true,
          "internalType": "bytes32",
          "name": "role",
          "type": "bytes32"
        },
        {
          "indexed": true,
          "internalType": "bytes32",
          "name": "previousAdminRole",
          "type": "bytes32"
        },
        {
          "indexed": true,
          "internalType": "bytes32",
          "name": "newAdminRole",
          "type": "bytes32"
        }
      ],
      "name": "RoleAdminChanged",
      "type": "event"
    },
    {
      "anonymous": false,
      "inputs": [
        {
          "indexed": true,
          "internalType": "bytes32",
          "name": "role",
          "type": "bytes32"
        },
        {
          "indexed": true,
          "internalType": "address",
          "name": "account",
          "type": "address"
        },
        {
          "indexed": true,
          "internalType": "address",
          "name": "sender",
          "type": "address"
        }
      ],
      "name": "RoleGranted",
      "type": "event"
    },
    {
      "anonymous": false,
      "inputs": [
        {
          "indexed": true,
          "internalType": "bytes32",
          "name": "role",
          "type": "bytes32"
        },
        {
          "indexed": true,
          "internalType": "address",
          "name": "account",
          "type": "address"
        },
        {
          "indexed": true,
          "internalType": "address",
          "name": "sender",
          "type": "address"
        }
      ],
      "name": "RoleRevoked",
      "type": "event"
    },
    {
      "inputs": [],
      "name": "DEFAULT_ADMIN_ROLE",
      "outputs": [
        {
          "internalType": "bytes32",
          "name": "",
          "type": "bytes32"
        }
      ],
      "stateMutability": "view",
      "type": "function"
    },
    {
      "inputs": [],
      "name": "MAX_REWARD_DURATION_IN_BLOCKS",
      "outputs": [
        {
          "internalType": "uint256",
          "name": "",
          "type": "uint256"
        }
      ],
      "stateMutability": "view",
      "type": "function"
    },
    {
      "inputs": [],
      "name": "MIN_REWARD_DURATION_IN_BLOCKS",
      "outputs": [
        {
          "internalType": "uint256",
          "name": "",
          "type": "uint256"
        }
      ],
      "stateMutability": "view",
      "type": "function"
    },
    {
      "inputs": [],
      "name": "OPERATOR_ROLE",
      "outputs": [
        {
          "internalType": "bytes32",
          "name": "",
          "type": "bytes32"
        }
      ],
      "stateMutability": "view",
      "type": "function"
    },
    {
      "inputs": [
        {
          "internalType": "address[]",
          "name": "_stakingAddresses",
          "type": "address[]"
        }
      ],
      "name": "addFeeStakingAddresses",
      "outputs": [],
      "stateMutability": "nonpayable",
      "type": "function"
    },
    {
      "inputs": [
        {
          "internalType": "address",
          "name": "token",
          "type": "address"
        },
        {
          "internalType": "bytes",
          "name": "additionalData",
          "type": "bytes"
        }
      ],
      "name": "convertCurrencyToRewardToken",
      "outputs": [],
      "stateMutability": "nonpayable",
      "type": "function"
    },
    {
      "inputs": [],
      "name": "feeSharingSystem",
      "outputs": [
        {
          "internalType": "contract FeeSharingSystem",
          "name": "",
          "type": "address"
        }
      ],
      "stateMutability": "view",
      "type": "function"
    },
    {
      "inputs": [
        {
          "internalType": "bytes32",
          "name": "role",
          "type": "bytes32"
        }
      ],
      "name": "getRoleAdmin",
      "outputs": [
        {
          "internalType": "bytes32",
          "name": "",
          "type": "bytes32"
        }
      ],
      "stateMutability": "view",
      "type": "function"
    },
    {
      "inputs": [
        {
          "internalType": "bytes32",
          "name": "role",
          "type": "bytes32"
        },
        {
          "internalType": "address",
          "name": "account",
          "type": "address"
        }
      ],
      "name": "grantRole",
      "outputs": [],
      "stateMutability": "nonpayable",
      "type": "function"
    },
    {
      "inputs": [
        {
          "internalType": "bytes32",
          "name": "role",
          "type": "bytes32"
        },
        {
          "internalType": "address",
          "name": "account",
          "type": "address"
        }
      ],
      "name": "hasRole",
      "outputs": [
        {
          "internalType": "bool",
          "name": "",
          "type": "bool"
        }
      ],
      "stateMutability": "view",
      "type": "function"
    },
    {
      "inputs": [],
      "name": "lastRewardDistributionBlock",
      "outputs": [
        {
          "internalType": "uint256",
          "name": "",
          "type": "uint256"
        }
      ],
      "stateMutability": "view",
      "type": "function"
    },
    {
      "inputs": [],
      "name": "looksRareToken",
      "outputs": [
        {
          "internalType": "contract IERC20",
          "name": "",
          "type": "address"
        }
      ],
      "stateMutability": "view",
      "type": "function"
    },
    {
      "inputs": [],
      "name": "nextRewardDurationInBlocks",
      "outputs": [
        {
          "internalType": "uint256",
          "name": "",
          "type": "uint256"
        }
      ],
      "stateMutability": "view",
      "type": "function"
    },
    {
      "inputs": [
        {
          "internalType": "address[]",
          "name": "_stakingAddresses",
          "type": "address[]"
        }
      ],
      "name": "removeFeeStakingAddresses",
      "outputs": [],
      "stateMutability": "nonpayable",
      "type": "function"
    },
    {
      "inputs": [
        {
          "internalType": "bytes32",
          "name": "role",
          "type": "bytes32"
        },
        {
          "internalType": "address",
          "name": "account",
          "type": "address"
        }
      ],
      "name": "renounceRole",
      "outputs": [],
      "stateMutability": "nonpayable",
      "type": "function"
    },
    {
      "inputs": [
        {
          "internalType": "bytes32",
          "name": "role",
          "type": "bytes32"
        },
        {
          "internalType": "address",
          "name": "account",
          "type": "address"
        }
      ],
      "name": "revokeRole",
      "outputs": [],
      "stateMutability": "nonpayable",
      "type": "function"
    },
    {
      "inputs": [],
      "name": "rewardConvertor",
      "outputs": [
        {
          "internalType": "contract IRewardConvertor",
          "name": "",
          "type": "address"
        }
      ],
      "stateMutability": "view",
      "type": "function"
    },
    {
      "inputs": [],
      "name": "rewardDurationInBlocks",
      "outputs": [
        {
          "internalType": "uint256",
          "name": "",
          "type": "uint256"
        }
      ],
      "stateMutability": "view",
      "type": "function"
    },
    {
      "inputs": [],
      "name": "rewardToken",
      "outputs": [
        {
          "internalType": "contract IERC20",
          "name": "",
          "type": "address"
        }
      ],
      "stateMutability": "view",
      "type": "function"
    },
    {
      "inputs": [
        {
          "internalType": "uint256",
          "name": "_newRewardDurationInBlocks",
          "type": "uint256"
        }
      ],
      "name": "setNewRewardDurationInBlocks",
      "outputs": [],
      "stateMutability": "nonpayable",
      "type": "function"
    },
    {
      "inputs": [
        {
          "internalType": "address",
          "name": "_rewardConvertor",
          "type": "address"
        }
      ],
      "name": "setRewardConvertor",
      "outputs": [],
      "stateMutability": "nonpayable",
      "type": "function"
    },
    {
      "inputs": [
        {
          "internalType": "bytes4",
          "name": "interfaceId",
          "type": "bytes4"
        }
      ],
      "name": "supportsInterface",
      "outputs": [
        {
          "internalType": "bool",
          "name": "",
          "type": "bool"
        }
      ],
      "stateMutability": "view",
      "type": "function"
    },
    {
      "inputs": [],
      "name": "tokenDistributor",
      "outputs": [
        {
          "internalType": "contract TokenDistributor",
          "name": "",
          "type": "address"
        }
      ],
      "stateMutability": "view",
      "type": "function"
    },
    {
      "inputs": [
        {
          "internalType": "address",
          "name": "_newOwner",
          "type": "address"
        }
      ],
      "name": "transferOwnershipOfFeeSharingSystem",
      "outputs": [],
      "stateMutability": "nonpayable",
      "type": "function"
    },
    {
      "inputs": [],
      "name": "updateRewards",
      "outputs": [],
      "stateMutability": "nonpayable",
      "type": "function"
    },
    {
      "inputs": [],
      "name": "viewFeeStakingAddresses",
      "outputs": [
        {
          "internalType": "address[]",
          "name": "",
          "type": "address[]"
        }
      ],
      "stateMutability": "view",
      "type": "function"
    }
  ],
  "bytecode": "0x6101206040523480156200001257600080fd5b50604051620025e2380380620025e283398101604081905262000035916200030d565b60016000558181118015906200004b5750828110155b620000b65760405162461bcd60e51b815260206004820152603160248201527f4f776e65723a20526577617264206475726174696f6e20696e20626c6f636b73604482015270206f757473696465206f662072616e676560781b606482015260840160405180910390fd5b608083905260a0829052600280546001600160a01b0319166001600160a01b0386169081179091556040805163f7c618c160e01b8152905163f7c618c1916004808201926020929091908290030181865afa1580156200011a573d6000803e3d6000fd5b505050506040513d601f19601f820116820180604052508101906200014091906200034f565b6001600160a01b0390811660e05260025460408051631b6dcfd960e11b8152905191909216916336db9fb29160048083019260209291908290030181865afa15801562000191573d6000803e3d6000fd5b505050506040513d601f19601f82011682018060405250810190620001b791906200034f565b6001600160a01b0390811660c05260025460408051630c535e1960e11b8152905191909216916318a6bc329160048083019260209291908290030181865afa15801562000208573d6000803e3d6000fd5b505050506040513d601f19601f820116820180604052508101906200022e91906200034f565b6001600160a01b03166101005260068190556005819055620002526000336200025c565b5050505062000376565b6200026882826200026c565b5050565b60008281526001602090815260408083206001600160a01b038516845290915290205460ff16620002685760008281526001602081815260408084206001600160a01b0386168086529252808420805460ff19169093179092559051339285917f2f8788117e7eff1d82e926ec794901d17c78024a50270940304540a733656f0d9190a45050565b6001600160a01b03811681146200030a57600080fd5b50565b600080600080608085870312156200032457600080fd5b84516200033181620002f4565b60208601516040870151606090970151919890975090945092505050565b6000602082840312156200036257600080fd5b81516200036f81620002f4565b9392505050565b60805160a05160c05160e051610100516121e8620003fa600039600081816101e001526108ab0152600081816104390152818161074c01528181610a7901528181610acb01528181610ef001526110b001526000818161028c01526109310152600081816103ba01526104fc0152600081816102d7015261052701526121e86000f3fe608060405234801561001057600080fd5b50600436106101ae5760003560e01c80637f085fd1116100ee578063d547741f11610097578063f2c11ba411610071578063f2c11ba4146103e5578063f2e935bc146103fa578063f5b541a61461040d578063f7c618c11461043457600080fd5b8063d547741f146103a2578063e84d31d8146103b5578063e98db24e146103dc57600080fd5b8063a217fddf116100c8578063a217fddf1461037e578063a3f7cbea14610386578063b5bfc9fa1461038f57600080fd5b80637f085fd11461031f5780638685abe61461033257806391d148541461034557600080fd5b806336db9fb21161015b57806352e1380f1161013557806352e1380f146102bf5780635cdcc7eb146102d257806370e4dea0146102f9578063777b87f91461030c57600080fd5b806336db9fb2146102875780633e158b0c146102ae57806342b3bc57146102b657600080fd5b80632f2ff15d1161018c5780632f2ff15d1461024c57806330ef8afe1461026157806336568abe1461027457600080fd5b806301ffc9a7146101b357806318a6bc32146101db578063248a9ca31461021a575b600080fd5b6101c66101c1366004611ced565b61045b565b60405190151581526020015b60405180910390f35b6102027f000000000000000000000000000000000000000000000000000000000000000081565b6040516001600160a01b0390911681526020016101d2565b61023e610228366004611d17565b6000908152600160208190526040909120015490565b6040519081526020016101d2565b61025f61025a366004611d4c565b6104c4565b005b61025f61026f366004611d17565b6104ef565b61025f610282366004611d4c565b6105fe565b6102027f000000000000000000000000000000000000000000000000000000000000000081565b61025f61068a565b61023e60045481565b61025f6102cd366004611d78565b610b7b565b61023e7f000000000000000000000000000000000000000000000000000000000000000081565b61025f610307366004611ded565b610cba565b61025f61031a366004611ded565b610df3565b600254610202906001600160a01b031681565b61025f610340366004611e08565b610e64565b6101c6610353366004611d4c565b60009182526001602090815260408084206001600160a01b0393909316845291905290205460ff1690565b61023e600081565b61023e60065481565b600354610202906001600160a01b031681565b61025f6103b0366004611d4c565b611175565b61023e7f000000000000000000000000000000000000000000000000000000000000000081565b61023e60055481565b6103ed61119b565b6040516101d29190611e8b565b61025f610408366004611d78565b61124b565b61023e7f97667070c54ef182b0f5858b034beac1b6f3089aa2d3188bb1e8929f4fa9b92981565b6102027f000000000000000000000000000000000000000000000000000000000000000081565b60006001600160e01b031982167f7965db0b0000000000000000000000000000000000000000000000000000000014806104be57507f01ffc9a7000000000000000000000000000000000000000000000000000000006001600160e01b03198316145b92915050565b600082815260016020819052604090912001546104e081611339565b6104ea8383611346565b505050565b60006104fa81611339565b7f0000000000000000000000000000000000000000000000000000000000000000821115801561054a57507f00000000000000000000000000000000000000000000000000000000000000008210155b6105c15760405162461bcd60e51b815260206004820152603560248201527f4f776e65723a204e657720726577617264206475726174696f6e20696e20626c60448201527f6f636b73206f757473696465206f662072616e6765000000000000000000000060648201526084015b60405180910390fd5b60058290556040518281527f3b9897cc635ff659bdd8dfffdc3d570991153cd92bd53b02dc4b5938a719e088906020015b60405180910390a15050565b6001600160a01b038116331461067c5760405162461bcd60e51b815260206004820152602f60248201527f416363657373436f6e74726f6c3a2063616e206f6e6c792072656e6f756e636560448201527f20726f6c657320666f722073656c66000000000000000000000000000000000060648201526084016105b8565b61068682826113cd565b5050565b7f97667070c54ef182b0f5858b034beac1b6f3089aa2d3188bb1e8929f4fa9b9296106b481611339565b6004541561071a576004546006546106cc9190611eee565b431161071a5760405162461bcd60e51b815260206004820152601860248201527f5265776172643a20546f6f206561726c7920746f20616464000000000000000060448201526064016105b8565b6005546006541461072c576005546006555b4360049081556040516370a0823160e01b815230918101919091526000907f00000000000000000000000000000000000000000000000000000000000000006001600160a01b0316906370a0823190602401602060405180830381865afa15801561079b573d6000803e3d6000fd5b505050506040513d601f19601f820116820180604052508101906107bf9190611f01565b9050806000036108115760405162461bcd60e51b815260206004820152601d60248201527f5265776172643a204e6f7468696e6720746f206469737472696275746500000060448201526064016105b8565b600061081d6007611450565b90508015610aba5760008167ffffffffffffffff81111561084057610840611f1a565b604051908082528060200260200182016040528015610869578160200160208202803683370190505b506002546040517f1959a0020000000000000000000000000000000000000000000000000000000081526001600160a01b0391821660048201529192506000917f000000000000000000000000000000000000000000000000000000000000000090911690631959a002906024016040805180830381865afa1580156108f3573d6000803e3d6000fd5b505050506040513d601f19601f820116820180604052508101906109179190611f30565b50905060005b83811015610a085760006001600160a01b037f0000000000000000000000000000000000000000000000000000000000000000166370a0823161096160078561145a565b6040516001600160e01b031960e084901b1681526001600160a01b039091166004820152602401602060405180830381865afa1580156109a5573d6000803e3d6000fd5b505050506040513d601f19601f820116820180604052508101906109c99190611f01565b90506109d58184611eee565b9250808483815181106109ea576109ea611f54565b60209081029190910101525080610a0081611f6a565b91505061091d565b508015610ab7578360005b84811015610ab35760008387868481518110610a3157610a31611f54565b6020026020010151610a439190611f83565b610a4d9190611f9a565b90508015610aa057610a5f8184611fbc565b9250610aa0610a6f60078461145a565b6001600160a01b037f000000000000000000000000000000000000000000000000000000000000000016908361146d565b5080610aab81611f6a565b915050610a13565b5093505b50505b600254610af4906001600160a01b037f0000000000000000000000000000000000000000000000000000000000000000811691168461146d565b6002546006546040517f97e508180000000000000000000000000000000000000000000000000000000081526004810185905260248101919091526001600160a01b03909116906397e5081890604401600060405180830381600087803b158015610b5e57600080fd5b505af1158015610b72573d6000803e3d6000fd5b50505050505050565b6000610b8681611339565b60005b82811015610c7b57610bc3848483818110610ba657610ba6611f54565b9050602002016020810190610bbb9190611ded565b6007906114fe565b15610c365760405162461bcd60e51b815260206004820152602160248201527f4f776e65723a204164647265737320616c72656164792072656769737465726560448201527f640000000000000000000000000000000000000000000000000000000000000060648201526084016105b8565b610c68848483818110610c4b57610c4b611f54565b9050602002016020810190610c609190611ded565b600790611520565b5080610c7381611f6a565b915050610b89565b507fc9bd34de840295bdc587b6f128ba3e50ab8d2a489e21dcb72b8ebdbf02ea87be8383604051610cad929190611fcf565b60405180910390a1505050565b6000610cc581611339565b6001600160a01b038216610d415760405162461bcd60e51b815260206004820152602760248201527f4f776e65723a204e6577206f776e65722063616e6e6f74206265206e756c6c2060448201527f616464726573730000000000000000000000000000000000000000000000000060648201526084016105b8565b6002546040517ff2fde38b0000000000000000000000000000000000000000000000000000000081526001600160a01b0384811660048301529091169063f2fde38b90602401600060405180830381600087803b158015610da157600080fd5b505af1158015610db5573d6000803e3d6000fd5b50506040516001600160a01b03851681527fd8c78f672f7029ed06a7ad5f50e0df1d2b67df1990905aeea2d8feeab190e84e925060200190506105f2565b6000610dfe81611339565b600380547fffffffffffffffffffffffff0000000000000000000000000000000000000000166001600160a01b0384169081179091556040519081527f843194d3997307382584f8f8cc0d58d345812217c12a4e86bc84d25252f630f8906020016105f2565b610e6c611535565b7f97667070c54ef182b0f5858b034beac1b6f3089aa2d3188bb1e8929f4fa9b929610e9681611339565b6003546001600160a01b0316610eee5760405162461bcd60e51b815260206004820181905260248201527f436f6e766572743a20526577617264436f6e766572746f72206e6f742073657460448201526064016105b8565b7f00000000000000000000000000000000000000000000000000000000000000006001600160a01b0316846001600160a01b031603610f6f5760405162461bcd60e51b815260206004820152601f60248201527f436f6e766572743a2043616e6e6f742062652072657761726420746f6b656e0060448201526064016105b8565b6040516370a0823160e01b81523060048201526000906001600160a01b038616906370a0823190602401602060405180830381865afa158015610fb6573d6000803e3d6000fd5b505050506040513d601f19601f82011682018060405250810190610fda9190611f01565b9050806000036110525760405162461bcd60e51b815260206004820152602660248201527f436f6e766572743a20416d6f756e7420746f20636f6e76657274206d7573742060448201527f6265203e2030000000000000000000000000000000000000000000000000000060648201526084016105b8565b60035461106c906001600160a01b0387811691168361158e565b6003546040517f5cba6fd50000000000000000000000000000000000000000000000000000000081526000916001600160a01b031690635cba6fd5906110de9089907f00000000000000000000000000000000000000000000000000000000000000009087908b908b9060040161201b565b6020604051808303816000875af11580156110fd573d6000803e3d6000fd5b505050506040513d601f19601f820116820180604052508101906111219190611f01565b60408051848152602081018390529192506001600160a01b038816917f24892e67485c65bbb3bb87f4887d19b69ba86985b0622709e18200f537e52495910160405180910390a25050506104ea6001600055565b6000828152600160208190526040909120015461119181611339565b6104ea83836113cd565b606060006111a96007611450565b905060008167ffffffffffffffff8111156111c6576111c6611f1a565b6040519080825280602002602001820160405280156111ef578160200160208202803683370190505b50905060005b828110156112445761120860078261145a565b82828151811061121a5761121a611f54565b6001600160a01b03909216602092830291909101909101528061123c81611f6a565b9150506111f5565b5092915050565b600061125681611339565b60005b8281101561130757611276848483818110610ba657610ba6611f54565b6112c25760405162461bcd60e51b815260206004820152601d60248201527f4f776e65723a2041646472657373206e6f74207265676973746572656400000060448201526064016105b8565b6112f48484838181106112d7576112d7611f54565b90506020020160208101906112ec9190611ded565b600790611678565b50806112ff81611f6a565b915050611259565b507f5caa7e688a83777af3ffe5a91375eb382c721b8b0883f600deb43723cdad27a68383604051610cad929190611fcf565b611343813361168d565b50565b60008281526001602090815260408083206001600160a01b038516845290915290205460ff166106865760008281526001602081815260408084206001600160a01b0386168086529252808420805460ff19169093179092559051339285917f2f8788117e7eff1d82e926ec794901d17c78024a50270940304540a733656f0d9190a45050565b60008281526001602090815260408083206001600160a01b038516845290915290205460ff16156106865760008281526001602090815260408083206001600160a01b0385168085529252808320805460ff1916905551339285917ff6391f5c32d9c69d2a47ea670b442974b53935d1edc7fd64eb21e047a839171b9190a45050565b60006104be825490565b60006114668383611702565b9392505050565b6040516001600160a01b0383166024820152604481018290526104ea9084907fa9059cbb00000000000000000000000000000000000000000000000000000000906064015b60408051601f198184030181529190526020810180517bffffffffffffffffffffffffffffffffffffffffffffffffffffffff166001600160e01b03199093169290921790915261172c565b6001600160a01b03811660009081526001830160205260408120541515611466565b6000611466836001600160a01b038416611811565b6002600054036115875760405162461bcd60e51b815260206004820152601f60248201527f5265656e7472616e637947756172643a207265656e7472616e742063616c6c0060448201526064016105b8565b6002600055565b6040517fdd62ed3e0000000000000000000000000000000000000000000000000000000081523060048201526001600160a01b038381166024830152600091839186169063dd62ed3e90604401602060405180830381865afa1580156115f8573d6000803e3d6000fd5b505050506040513d601f19601f8201168201806040525081019061161c9190611f01565b6116269190611eee565b6040516001600160a01b0385166024820152604481018290529091506116729085907f095ea7b300000000000000000000000000000000000000000000000000000000906064016114b2565b50505050565b6000611466836001600160a01b038416611860565b60008281526001602090815260408083206001600160a01b038516845290915290205460ff16610686576116c081611953565b6116cb836020611965565b6040516020016116dc929190612093565b60408051601f198184030181529082905262461bcd60e51b82526105b891600401612114565b600082600001828154811061171957611719611f54565b9060005260206000200154905092915050565b6000611781826040518060400160405280602081526020017f5361666545524332303a206c6f772d6c6576656c2063616c6c206661696c6564815250856001600160a01b0316611b469092919063ffffffff16565b8051909150156104ea578080602001905181019061179f9190612147565b6104ea5760405162461bcd60e51b815260206004820152602a60248201527f5361666545524332303a204552433230206f7065726174696f6e20646964206e60448201527f6f7420737563636565640000000000000000000000000000000000000000000060648201526084016105b8565b6000818152600183016020526040812054611858575081546001818101845560008481526020808220909301849055845484825282860190935260409020919091556104be565b5060006104be565b60008181526001830160205260408120548015611949576000611884600183611fbc565b855490915060009061189890600190611fbc565b90508181146118fd5760008660000182815481106118b8576118b8611f54565b90600052602060002001549050808760000184815481106118db576118db611f54565b6000918252602080832090910192909255918252600188019052604090208390555b855486908061190e5761190e612169565b6001900381819060005260206000200160009055905585600101600086815260200190815260200160002060009055600193505050506104be565b60009150506104be565b60606104be6001600160a01b03831660145b60606000611974836002611f83565b61197f906002611eee565b67ffffffffffffffff81111561199757611997611f1a565b6040519080825280601f01601f1916602001820160405280156119c1576020820181803683370190505b5090507f3000000000000000000000000000000000000000000000000000000000000000816000815181106119f8576119f8611f54565b60200101906001600160f81b031916908160001a9053507f780000000000000000000000000000000000000000000000000000000000000081600181518110611a4357611a43611f54565b60200101906001600160f81b031916908160001a9053506000611a67846002611f83565b611a72906001611eee565b90505b6001811115611af7577f303132333435363738396162636465660000000000000000000000000000000085600f1660108110611ab357611ab3611f54565b1a60f81b828281518110611ac957611ac9611f54565b60200101906001600160f81b031916908160001a90535060049490941c93611af08161217f565b9050611a75565b5083156114665760405162461bcd60e51b815260206004820181905260248201527f537472696e67733a20686578206c656e67746820696e73756666696369656e7460448201526064016105b8565b6060611b558484600085611b5d565b949350505050565b606082471015611bd55760405162461bcd60e51b815260206004820152602660248201527f416464726573733a20696e73756666696369656e742062616c616e636520666f60448201527f722063616c6c000000000000000000000000000000000000000000000000000060648201526084016105b8565b600080866001600160a01b03168587604051611bf19190612196565b60006040518083038185875af1925050503d8060008114611c2e576040519150601f19603f3d011682016040523d82523d6000602084013e611c33565b606091505b5091509150611c4487838387611c4f565b979650505050505050565b60608315611cbe578251600003611cb7576001600160a01b0385163b611cb75760405162461bcd60e51b815260206004820152601d60248201527f416464726573733a2063616c6c20746f206e6f6e2d636f6e747261637400000060448201526064016105b8565b5081611b55565b611b558383815115611cd35781518083602001fd5b8060405162461bcd60e51b81526004016105b89190612114565b600060208284031215611cff57600080fd5b81356001600160e01b03198116811461146657600080fd5b600060208284031215611d2957600080fd5b5035919050565b80356001600160a01b0381168114611d4757600080fd5b919050565b60008060408385031215611d5f57600080fd5b82359150611d6f60208401611d30565b90509250929050565b60008060208385031215611d8b57600080fd5b823567ffffffffffffffff80821115611da357600080fd5b818501915085601f830112611db757600080fd5b813581811115611dc657600080fd5b8660208260051b8501011115611ddb57600080fd5b60209290920196919550909350505050565b600060208284031215611dff57600080fd5b61146682611d30565b600080600060408486031215611e1d57600080fd5b611e2684611d30565b9250602084013567ffffffffffffffff80821115611e4357600080fd5b818601915086601f830112611e5757600080fd5b813581811115611e6657600080fd5b876020828501011115611e7857600080fd5b6020830194508093505050509250925092565b6020808252825182820181905260009190848201906040850190845b81811015611ecc5783516001600160a01b031683529284019291840191600101611ea7565b50909695505050505050565b634e487b7160e01b600052601160045260246000fd5b808201808211156104be576104be611ed8565b600060208284031215611f1357600080fd5b5051919050565b634e487b7160e01b600052604160045260246000fd5b60008060408385031215611f4357600080fd5b505080516020909101519092909150565b634e487b7160e01b600052603260045260246000fd5b600060018201611f7c57611f7c611ed8565b5060010190565b80820281158282048414176104be576104be611ed8565b600082611fb757634e487b7160e01b600052601260045260246000fd5b500490565b818103818111156104be576104be611ed8565b60208082528181018390526000908460408401835b86811015612010576001600160a01b03611ffd84611d30565b1682529183019190830190600101611fe4565b509695505050505050565b60006001600160a01b03808816835280871660208401525084604083015260806060830152826080830152828460a0840137600060a0848401015260a0601f19601f85011683010190509695505050505050565b60005b8381101561208a578181015183820152602001612072565b50506000910152565b7f416363657373436f6e74726f6c3a206163636f756e74200000000000000000008152600083516120cb81601785016020880161206f565b7f206973206d697373696e6720726f6c6520000000000000000000000000000000601791840191820152835161210881602884016020880161206f565b01602801949350505050565b602081526000825180602084015261213381604085016020870161206f565b601f01601f19169190910160400192915050565b60006020828403121561215957600080fd5b8151801515811461146657600080fd5b634e487b7160e01b600052603160045260246000fd5b60008161218e5761218e611ed8565b506000190190565b600082516121a881846020870161206f565b919091019291505056fea26469706673582212205ddcf5d39f944219ff9b25fd3a00393f3775b4ee17d8dc7d631302d7ef8f2ec864736f6c63430008110033",
  "linkReferences": {},
  "deployedLinkReferences": {}
}