{
  "_format": "hh-sol-artifact-1",
  "contractName": "CurrencyManager",
  "sourceName": "src/CurrencyManager.sol",
  "abi": [
    {
      "anonymous": false,
      "inputs": [
        {
          "indexed": true,
          "internalType": "address",
          "name": "currency",
          "type": "address"
        }
      ],
      "name": "CurrencyRemoved",
      "type": "event"
    },
    {
      "anonymous": false,
      "inputs": [
        {
          "indexed": true,
          "internalType": "address",
          "name": "currency",
          "type": "address"
        }
      ],
      "name": "CurrencyWhitelisted",
      "type": "event"
    },
    {
      "anonymous": false,
      "inputs": [
        {
          "indexed": true,
          "internalType": "address",
          "name": "previousOwner",
          "type": "address"
        },
        {
          "indexed": true,
          "internalType": "address",
          "name": "newOwner",
          "type": "address"
        }
      ],
      "name": "OwnershipTransferred",
      "type": "event"
    },
    {
      "inputs": [
        {
          "internalType": "address",
          "name": "currency",
          "type": "address"
        }
      ],
      "name": "addCurrency",
      "outputs": [],
      "stateMutability": "nonpayable",
      "type": "function"
    },
    {
      "inputs": [
        {
          "internalType": "address",
          "name": "currency",
          "type": "address"
        }
      ],
      "name": "isCurrencyWhitelisted",
      "outputs": [
        {
          "internalType": "bool",
          "name": "",
          "type": "bool"
        }
      ],
      "stateMutability": "view",
      "type": "function"
    },
    {
      "inputs": [],
      "name": "owner",
      "outputs": [
        {
          "internalType": "address",
          "name": "",
          "type": "address"
        }
      ],
      "stateMutability": "view",
      "type": "function"
    },
    {
      "inputs": [
        {
          "internalType": "address",
          "name": "currency",
          "type": "address"
        }
      ],
      "name": "removeCurrency",
      "outputs": [],
      "stateMutability": "nonpayable",
      "type": "function"
    },
    {
      "inputs": [],
      "name": "renounceOwnership",
      "outputs": [],
      "stateMutability": "nonpayable",
      "type": "function"
    },
    {
      "inputs": [
        {
          "internalType": "address",
          "name": "newOwner",
          "type": "address"
        }
      ],
      "name": "transferOwnership",
      "outputs": [],
      "stateMutability": "nonpayable",
      "type": "function"
    },
    {
      "inputs": [],
      "name": "viewCountWhitelistedCurrencies",
      "outputs": [
        {
          "internalType": "uint256",
          "name": "",
          "type": "uint256"
        }
      ],
      "stateMutability": "view",
      "type": "function"
    },
    {
      "inputs": [
        {
          "internalType": "uint256",
          "name": "cursor",
          "type": "uint256"
        },
        {
          "internalType": "uint256",
          "name": "size",
          "type": "uint256"
        }
      ],
      "name": "viewWhitelistedCurrencies",
      "outputs": [
        {
          "internalType": "address[]",
          "name": "",
          "type": "address[]"
        },
        {
          "internalType": "uint256",
          "name": "",
          "type": "uint256"
        }
      ],
      "stateMutability": "view",
      "type": "function"
    }
  ],
  "bytecode": "0x608060405234801561001057600080fd5b5061001a3361001f565b61006f565b600080546001600160a01b038381166001600160a01b0319831681178455604051919092169283917f8be0079c531659141344cd1fd0a4f28419497f9722a3daafe3b4186f6b6457e09190a35050565b61084d8061007e6000396000f3fe608060405234801561001057600080fd5b50600436106100885760003560e01c80638ab234b61161005b5780638ab234b6146100f65780638da5cb5b14610109578063c5d3a10714610124578063f2fde38b1461013757600080fd5b80631facfd9c1461008d57806343b938c5146100a8578063715018a6146100cb57806385f39b0a146100d5575b600080fd5b61009561014a565b6040519081526020015b60405180910390f35b6100bb6100b63660046106e4565b61015b565b604051901515815260200161009f565b6100d361016e565b005b6100e86100e336600461070d565b610182565b60405161009f92919061072f565b6100d36101043660046106e4565b610277565b6000546040516001600160a01b03909116815260200161009f565b6100d36101323660046106e4565b61031f565b6100d36101453660046106e4565b6103c1565b60006101566001610451565b905090565b600061016860018361045b565b92915050565b610176610480565b61018060006104da565b565b6060600082846101926001610451565b61019c9190610796565b8111156101bb57846101ae6001610451565b6101b89190610796565b90505b60008167ffffffffffffffff8111156101d6576101d66107a9565b6040519080825280602002602001820160405280156101ff578160200160208202803683370190505b50905060005b8281101561025e5761022261021a82896107bf565b600190610542565b828281518110610234576102346107d2565b6001600160a01b039092166020928302919091019091015280610256816107e8565b915050610205565b508061026a83886107bf565b9350935050509250929050565b61027f610480565b61028a60018261045b565b156102dc5760405162461bcd60e51b815260206004820152601d60248201527f43757272656e63793a20416c72656164792077686974656c697374656400000060448201526064015b60405180910390fd5b6102e760018261054e565b506040516001600160a01b038216907f3cbf62b327efb2d06d36e16c10a2f5c00cf0568e2b805bd56969b15d2736107890600090a250565b610327610480565b61033260018261045b565b61037e5760405162461bcd60e51b815260206004820152601960248201527f43757272656e63793a204e6f742077686974656c69737465640000000000000060448201526064016102d3565b610389600182610563565b506040516001600160a01b038216907fa40d69111be14f29022626d38310e47cc2d7f4cb728961509c2f65a4bee08c5b90600090a250565b6103c9610480565b6001600160a01b0381166104455760405162461bcd60e51b815260206004820152602660248201527f4f776e61626c653a206e6577206f776e657220697320746865207a65726f206160448201527f646472657373000000000000000000000000000000000000000000000000000060648201526084016102d3565b61044e816104da565b50565b6000610168825490565b6001600160a01b038116600090815260018301602052604081205415155b9392505050565b6000546001600160a01b031633146101805760405162461bcd60e51b815260206004820181905260248201527f4f776e61626c653a2063616c6c6572206973206e6f7420746865206f776e657260448201526064016102d3565b600080546001600160a01b038381167fffffffffffffffffffffffff0000000000000000000000000000000000000000831681178455604051919092169283917f8be0079c531659141344cd1fd0a4f28419497f9722a3daafe3b4186f6b6457e09190a35050565b60006104798383610578565b6000610479836001600160a01b0384166105a2565b6000610479836001600160a01b0384166105f1565b600082600001828154811061058f5761058f6107d2565b9060005260206000200154905092915050565b60008181526001830160205260408120546105e957508154600181810184556000848152602080822090930184905584548482528286019093526040902091909155610168565b506000610168565b600081815260018301602052604081205480156106da576000610615600183610796565b855490915060009061062990600190610796565b905081811461068e576000866000018281548110610649576106496107d2565b906000526020600020015490508087600001848154811061066c5761066c6107d2565b6000918252602080832090910192909255918252600188019052604090208390555b855486908061069f5761069f610801565b600190038181906000526020600020016000905590558560010160008681526020019081526020016000206000905560019350505050610168565b6000915050610168565b6000602082840312156106f657600080fd5b81356001600160a01b038116811461047957600080fd5b6000806040838503121561072057600080fd5b50508035926020909101359150565b604080825283519082018190526000906020906060840190828701845b828110156107715781516001600160a01b03168452928401929084019060010161074c565b50505092019290925292915050565b634e487b7160e01b600052601160045260246000fd5b8181038181111561016857610168610780565b634e487b7160e01b600052604160045260246000fd5b8082018082111561016857610168610780565b634e487b7160e01b600052603260045260246000fd5b6000600182016107fa576107fa610780565b5060010190565b634e487b7160e01b600052603160045260246000fdfea2646970667358221220fcaf21bbfbb7e3d5567e986be384d894d5933280d1a998407171d7e4202dac5c64736f6c63430008110033",
  "linkReferences": {},
  "deployedLinkReferences": {}
}