{
  "_format": "hh-sol-artifact-1",
  "contractName": "NetexERC721Factory",
  "sourceName": "src/factory/NetexERC721Factory.sol",
  "abi": [
    {
      "inputs": [
        {
          "internalType": "address",
          "name": "_minter",
          "type": "address"
        }
      ],
      "stateMutability": "nonpayable",
      "type": "constructor"
    },
    {
      "inputs": [],
      "name": "NonexistentTemplate",
      "type": "error"
    },
    {
      "inputs": [],
      "name": "TemplateAlreadyExists",
      "type": "error"
    },
    {
      "inputs": [],
      "name": "TemplateNotFound",
      "type": "error"
    },
    {
      "inputs": [],
      "name": "ZeroAddressTemplate",
      "type": "error"
    },
    {
      "anonymous": false,
      "inputs": [
        {
          "indexed": true,
          "internalType": "address",
          "name": "owner",
          "type": "address"
        },
        {
          "indexed": true,
          "internalType": "address",
          "name": "addr",
          "type": "address"
        },
        {
          "indexed": false,
          "internalType": "address",
          "name": "contractTemplate",
          "type": "address"
        }
      ],
      "name": "ContractCreated",
      "type": "event"
    },
    {
      "anonymous": false,
      "inputs": [
        {
          "indexed": true,
          "internalType": "address",
          "name": "previousOwner",
          "type": "address"
        },
        {
          "indexed": true,
          "internalType": "address",
          "name": "newOwner",
          "type": "address"
        }
      ],
      "name": "OwnershipTransferred",
      "type": "event"
    },
    {
      "inputs": [
        {
          "internalType": "address",
          "name": "_template",
          "type": "address"
        }
      ],
      "name": "addTemplate",
      "outputs": [],
      "stateMutability": "nonpayable",
      "type": "function"
    },
    {
      "inputs": [
        {
          "internalType": "address",
          "name": "_template",
          "type": "address"
        },
        {
          "internalType": "string",
          "name": "_name",
          "type": "string"
        },
        {
          "internalType": "string",
          "name": "_symbol",
          "type": "string"
        },
        {
          "internalType": "bytes",
          "name": "_data",
          "type": "bytes"
        }
      ],
      "name": "createClone",
      "outputs": [
        {
          "internalType": "address",
          "name": "newContract",
          "type": "address"
        }
      ],
      "stateMutability": "payable",
      "type": "function"
    },
    {
      "inputs": [
        {
          "internalType": "address",
          "name": "_template",
          "type": "address"
        },
        {
          "internalType": "string",
          "name": "_name",
          "type": "string"
        },
        {
          "internalType": "string",
          "name": "_symbol",
          "type": "string"
        },
        {
          "internalType": "bytes",
          "name": "_data",
          "type": "bytes"
        },
        {
          "internalType": "bytes32",
          "name": "_salt",
          "type": "bytes32"
        }
      ],
      "name": "createCloneDeterministic",
      "outputs": [
        {
          "internalType": "address",
          "name": "newContract",
          "type": "address"
        }
      ],
      "stateMutability": "payable",
      "type": "function"
    },
    {
      "inputs": [
        {
          "internalType": "address",
          "name": "_template",
          "type": "address"
        }
      ],
      "name": "deleteTemplate",
      "outputs": [],
      "stateMutability": "nonpayable",
      "type": "function"
    },
    {
      "inputs": [],
      "name": "minter",
      "outputs": [
        {
          "internalType": "address",
          "name": "",
          "type": "address"
        }
      ],
      "stateMutability": "view",
      "type": "function"
    },
    {
      "inputs": [],
      "name": "owner",
      "outputs": [
        {
          "internalType": "address",
          "name": "",
          "type": "address"
        }
      ],
      "stateMutability": "view",
      "type": "function"
    },
    {
      "inputs": [],
      "name": "renounceOwnership",
      "outputs": [],
      "stateMutability": "nonpayable",
      "type": "function"
    },
    {
      "inputs": [
        {
          "internalType": "address",
          "name": "",
          "type": "address"
        }
      ],
      "name": "templates",
      "outputs": [
        {
          "internalType": "bool",
          "name": "",
          "type": "bool"
        }
      ],
      "stateMutability": "view",
      "type": "function"
    },
    {
      "inputs": [
        {
          "internalType": "address",
          "name": "newOwner",
          "type": "address"
        }
      ],
      "name": "transferOwnership",
      "outputs": [],
      "stateMutability": "nonpayable",
      "type": "function"
    },
    {
      "inputs": [
        {
          "internalType": "address",
          "name": "_minter",
          "type": "address"
        }
      ],
      "name": "updateMinter",
      "outputs": [],
      "stateMutability": "nonpayable",
      "type": "function"
    }
  ],
  "bytecode": "0x608060405234801561001057600080fd5b50604051610bef380380610bef83398101604081905261002f916100a9565b61003833610059565b600180546001600160a01b0319166001600160a01b038316179055506100d9565b600080546001600160a01b038381166001600160a01b0319831681178455604051919092169283917f8be0079c531659141344cd1fd0a4f28419497f9722a3daafe3b4186f6b6457e09190a35050565b6000602082840312156100bb57600080fd5b81516001600160a01b03811681146100d257600080fd5b9392505050565b610b07806100e86000396000f3fe6080604052600436106100b15760003560e01c80638da5cb5b11610069578063cffd88b21161004e578063cffd88b2146101bb578063e2007a8c146101ce578063f2fde38b146101ee57600080fd5b80638da5cb5b1461018a578063ce219071146101a857600080fd5b80634eb03f6e1161009a5780634eb03f6e1461013357806355b3026614610155578063715018a61461017557600080fd5b806307546172146100b657806320a99bd0146100f3575b600080fd5b3480156100c257600080fd5b506001546100d6906001600160a01b031681565b6040516001600160a01b0390911681526020015b60405180910390f35b3480156100ff57600080fd5b5061012361010e3660046107a8565b60026020526000908152604090205460ff1681565b60405190151581526020016100ea565b34801561013f57600080fd5b5061015361014e3660046107a8565b61020e565b005b34801561016157600080fd5b506101536101703660046107a8565b610244565b34801561018157600080fd5b50610153610304565b34801561019657600080fd5b506000546001600160a01b03166100d6565b6100d66101b63660046108cf565b610318565b6100d66101c936600461096f565b610332565b3480156101da57600080fd5b506101536101e93660046107a8565b61034d565b3480156101fa57600080fd5b506101536102093660046107a8565b6103c8565b61021661045a565b6001805473ffffffffffffffffffffffffffffffffffffffff19166001600160a01b03831617905550565b50565b61024c61045a565b6001600160a01b0381161561028d576040517fb040bbfc00000000000000000000000000000000000000000000000000000000815260040160405180910390fd5b6001600160a01b03811660009081526002602052604090205460ff16156102e0576040517fdeb9da4900000000000000000000000000000000000000000000000000000000815260040160405180910390fd5b6001600160a01b03166000908152600260205260409020805460ff19166001179055565b61030c61045a565b61031660006104b4565b565b6000610328868686868686610511565b9695505050505050565b6000610342878787878787610511565b979650505050505050565b61035561045a565b6001600160a01b03811660009081526002602052604090205460ff166103a7576040517f6a6a31ac00000000000000000000000000000000000000000000000000000000815260040160405180910390fd5b6001600160a01b03166000908152600260205260409020805460ff19169055565b6103d061045a565b6001600160a01b0381166104515760405162461bcd60e51b815260206004820152602660248201527f4f776e61626c653a206e6577206f776e657220697320746865207a65726f206160448201527f646472657373000000000000000000000000000000000000000000000000000060648201526084015b60405180910390fd5b610241816104b4565b6000546001600160a01b031633146103165760405162461bcd60e51b815260206004820181905260248201527f4f776e61626c653a2063616c6c6572206973206e6f7420746865206f776e65726044820152606401610448565b600080546001600160a01b0383811673ffffffffffffffffffffffffffffffffffffffff19831681178455604051919092169283917f8be0079c531659141344cd1fd0a4f28419497f9722a3daafe3b4186f6b6457e09190a35050565b6001600160a01b03861660009081526002602052604081205460ff16610563576040517f2a7e1b7a00000000000000000000000000000000000000000000000000000000815260040160405180910390fd5b81610578576105718761064d565b90506105bd565b6000824340604051602001610597929190918252602082015260400190565b6040516020818303038152906040528051906020012090506105b988826106ee565b9150505b6001546040517feffe0e1c0000000000000000000000000000000000000000000000000000000081526001600160a01b038084169263effe0e1c92610611928b928b9291169033908b908b90600401610a5d565b600060405180830381600087803b15801561062b57600080fd5b505af115801561063f573d6000803e3d6000fd5b505050509695505050505050565b6000763d602d80600a3d3981f3363d3d373d3d3d363d730000008260601b60e81c176000526e5af43d82803e903d91602b57fd5bf38260781b17602052603760096000f090506001600160a01b0381166106e95760405162461bcd60e51b815260206004820152601660248201527f455243313136373a20637265617465206661696c6564000000000000000000006044820152606401610448565b919050565b6000763d602d80600a3d3981f3363d3d373d3d3d363d730000008360601b60e81c176000526e5af43d82803e903d91602b57fd5bf38360781b1760205281603760096000f590506001600160a01b03811661078b5760405162461bcd60e51b815260206004820152601760248201527f455243313136373a2063726561746532206661696c65640000000000000000006044820152606401610448565b92915050565b80356001600160a01b03811681146106e957600080fd5b6000602082840312156107ba57600080fd5b6107c382610791565b9392505050565b7f4e487b7100000000000000000000000000000000000000000000000000000000600052604160045260246000fd5b600082601f83011261080a57600080fd5b813567ffffffffffffffff80821115610825576108256107ca565b604051601f8301601f19908116603f0116810190828211818310171561084d5761084d6107ca565b8160405283815286602085880101111561086657600080fd5b836020870160208301376000602085830101528094505050505092915050565b60008083601f84011261089857600080fd5b50813567ffffffffffffffff8111156108b057600080fd5b6020830191508360208285010111156108c857600080fd5b9250929050565b6000806000806000608086880312156108e757600080fd5b6108f086610791565b9450602086013567ffffffffffffffff8082111561090d57600080fd5b61091989838a016107f9565b9550604088013591508082111561092f57600080fd5b61093b89838a016107f9565b9450606088013591508082111561095157600080fd5b5061095e88828901610886565b969995985093965092949392505050565b60008060008060008060a0878903121561098857600080fd5b61099187610791565b9550602087013567ffffffffffffffff808211156109ae57600080fd5b6109ba8a838b016107f9565b965060408901359150808211156109d057600080fd5b6109dc8a838b016107f9565b955060608901359150808211156109f257600080fd5b506109ff89828a01610886565b979a9699509497949695608090950135949350505050565b6000815180845260005b81811015610a3d57602081850181015186830182015201610a21565b506000602082860101526020601f19601f83011685010191505092915050565b60a081526000610a7060a0830189610a17565b8281036020840152610a828189610a17565b6001600160a01b0388811660408601528716606085015283810360808501528481529050838560208301376000602085830101526020601f19601f86011682010191505097965050505050505056fea26469706673582212203a38f3f3d7cc8316b09577f3eb2c7d6d9f472c91ad37c8a5e20282bbd904db9e64736f6c63430008110033",
  "linkReferences": {},
  "deployedLinkReferences": {}
}