{
  "_format": "hh-sol-artifact-1",
  "contractName": "ERC721Helper",
  "sourceName": "src/helpers/NetexHelper.sol",
  "abi": [
    {
      "inputs": [
        {
          "internalType": "address",
          "name": "tokenAddr",
          "type": "address"
        }
      ],
      "name": "getCollectionBaseInfo",
      "outputs": [
        {
          "components": [
            {
              "internalType": "string",
              "name": "name",
              "type": "string"
            },
            {
              "internalType": "string",
              "name": "symbol",
              "type": "string"
            },
            {
              "internalType": "uint256",
              "name": "totalSupply",
              "type": "uint256"
            }
          ],
          "internalType": "struct ERC721Helper.CollectionInfo",
          "name": "collection",
          "type": "tuple"
        }
      ],
      "stateMutability": "view",
      "type": "function"
    },
    {
      "inputs": [
        {
          "internalType": "address",
          "name": "tokenAddr",
          "type": "address"
        },
        {
          "internalType": "uint256",
          "name": "tokenId",
          "type": "uint256"
        }
      ],
      "name": "getNFTDetail",
      "outputs": [
        {
          "components": [
            {
              "internalType": "string",
              "name": "name",
              "type": "string"
            },
            {
              "internalType": "string",
              "name": "symbol",
              "type": "string"
            },
            {
              "internalType": "uint256",
              "name": "totalSupply",
              "type": "uint256"
            }
          ],
          "internalType": "struct ERC721Helper.CollectionInfo",
          "name": "collectionInfo",
          "type": "tuple"
        },
        {
          "components": [
            {
              "internalType": "uint256",
              "name": "id",
              "type": "uint256"
            },
            {
              "internalType": "address",
              "name": "owner",
              "type": "address"
            },
            {
              "internalType": "string",
              "name": "uri",
              "type": "string"
            }
          ],
          "internalType": "struct ERC721Helper.TokenMetadata",
          "name": "metadata",
          "type": "tuple"
        }
      ],
      "stateMutability": "view",
      "type": "function"
    },
    {
      "inputs": [
        {
          "internalType": "address",
          "name": "tokenAddr",
          "type": "address"
        },
        {
          "internalType": "uint256",
          "name": "from",
          "type": "uint256"
        },
        {
          "internalType": "uint256",
          "name": "to",
          "type": "uint256"
        }
      ],
      "name": "getTokenMetadataList",
      "outputs": [
        {
          "components": [
            {
              "internalType": "uint256",
              "name": "id",
              "type": "uint256"
            },
            {
              "internalType": "address",
              "name": "owner",
              "type": "address"
            },
            {
              "internalType": "string",
              "name": "uri",
              "type": "string"
            }
          ],
          "internalType": "struct ERC721Helper.TokenMetadata[]",
          "name": "",
          "type": "tuple[]"
        }
      ],
      "stateMutability": "view",
      "type": "function"
    },
    {
      "inputs": [
        {
          "internalType": "address",
          "name": "tokenAddr",
          "type": "address"
        },
        {
          "internalType": "uint256[]",
          "name": "ids",
          "type": "uint256[]"
        }
      ],
      "name": "getTokensMetadata",
      "outputs": [
        {
          "components": [
            {
              "internalType": "uint256",
              "name": "id",
              "type": "uint256"
            },
            {
              "internalType": "address",
              "name": "owner",
              "type": "address"
            },
            {
              "internalType": "string",
              "name": "uri",
              "type": "string"
            }
          ],
          "internalType": "struct ERC721Helper.TokenMetadata[]",
          "name": "metadata",
          "type": "tuple[]"
        }
      ],
      "stateMutability": "view",
      "type": "function"
    }
  ],
  "bytecode": "0x608060405234801561001057600080fd5b50610c3b806100206000396000f3fe608060405234801561001057600080fd5b506004361061004c5760003560e01c80632473158914610051578063389ad5a11461007b578063454970ca1461009b57806371640d44146100ae575b600080fd5b61006461005f366004610835565b6100ce565b604051610072929190610930565b60405180910390f35b61008e61008936600461095e565b610350565b6040516100729190610993565b61008e6100a93660046109f5565b610526565b6100c16100bc366004610a7d565b6106a8565b6040516100729190610aa1565b6100f260405180606001604052806060815260200160608152602001600081525090565b604080516060808201835260008083526020830152918101919091526000849050806001600160a01b03166306fdde036040518163ffffffff1660e01b8152600401600060405180830381865afa158015610151573d6000803e3d6000fd5b505050506040513d6000823e601f3d908101601f191682016040526101799190810190610aca565b8360000181905250806001600160a01b03166395d89b416040518163ffffffff1660e01b8152600401600060405180830381865afa1580156101bf573d6000803e3d6000fd5b505050506040513d6000823e601f3d908101601f191682016040526101e79190810190610aca565b8360200181905250806001600160a01b03166318160ddd6040518163ffffffff1660e01b8152600401602060405180830381865afa15801561022d573d6000803e3d6000fd5b505050506040513d601f19601f820116820180604052508101906102519190610b77565b6040848101919091528483525163c87b56dd60e01b8152600481018590526001600160a01b0382169063c87b56dd90602401600060405180830381865afa1580156102a0573d6000803e3d6000fd5b505050506040513d6000823e601f3d908101601f191682016040526102c89190810190610aca565b604083810191909152516331a9108f60e11b8152600481018590526001600160a01b03821690636352211e90602401602060405180830381865afa158015610314573d6000803e3d6000fd5b505050506040513d601f19601f820116820180604052508101906103389190610b90565b6001600160a01b031660208301525090939092509050565b606083600061035f8585610bc3565b905060008167ffffffffffffffff81111561037c5761037c610ab4565b6040519080825280602002602001820160405280156103c957816020015b6040805160608082018352600080835260208301529181019190915281526020019060019003908161039a5790505b50905060005b8281101561051b5760006103e38289610bdc565b905060606000866001600160a01b031663c87b56dd846040518263ffffffff1660e01b815260040161041791815260200190565b600060405180830381865afa92505050801561045557506040513d6000823e601f3d908101601f191682016040526104529190810190610aca565b60015b156104cc576040516331a9108f60e11b81526004810185905290925082906001600160a01b03891690636352211e90602401602060405180830381865afa1580156104a4573d6000803e3d6000fd5b505050506040513d601f19601f820116820180604052508101906104c89190610b90565b9150505b6040518060600160405280848152602001826001600160a01b031681526020018381525085858151811061050257610502610bef565b60200260200101819052508360010193505050506103cf565b509695505050505050565b60608360005b8381101561069f57600085858381811061054857610548610bef565b9050602002013590508084838151811061056457610564610bef565b60209081029190910101515260405163c87b56dd60e01b8152600481018290526001600160a01b0384169063c87b56dd90602401600060405180830381865afa1580156105b5573d6000803e3d6000fd5b505050506040513d6000823e601f3d908101601f191682016040526105dd9190810190610aca565b8483815181106105ef576105ef610bef565b602002602001015160400181905250826001600160a01b0316636352211e826040518263ffffffff1660e01b815260040161062c91815260200190565b602060405180830381865afa158015610649573d6000803e3d6000fd5b505050506040513d601f19601f8201168201806040525081019061066d9190610b90565b84838151811061067f5761067f610bef565b6020908102919091018101516001600160a01b039092169101525061052c565b50509392505050565b6106cc60405180606001604052806060815260200160608152602001600081525090565b60008290506040518060600160405280826001600160a01b03166306fdde036040518163ffffffff1660e01b8152600401600060405180830381865afa15801561071a573d6000803e3d6000fd5b505050506040513d6000823e601f3d908101601f191682016040526107429190810190610aca565b8152602001826001600160a01b03166395d89b416040518163ffffffff1660e01b8152600401600060405180830381865afa158015610785573d6000803e3d6000fd5b505050506040513d6000823e601f3d908101601f191682016040526107ad9190810190610aca565b8152602001826001600160a01b03166318160ddd6040518163ffffffff1660e01b8152600401602060405180830381865afa1580156107f0573d6000803e3d6000fd5b505050506040513d601f19601f820116820180604052508101906108149190610b77565b90529392505050565b6001600160a01b038116811461083257600080fd5b50565b6000806040838503121561084857600080fd5b82356108538161081d565b946020939093013593505050565b60005b8381101561087c578181015183820152602001610864565b50506000910152565b6000815180845261089d816020860160208601610861565b601f01601f19169290920160200192915050565b60008151606084526108c66060850182610885565b9050602083015184820360208601526108df8282610885565b915050604083015160408501528091505092915050565b805182526001600160a01b03602082015116602083015260006040820151606060408501526109286060850182610885565b949350505050565b60408152600061094360408301856108b1565b828103602084015261095581856108f6565b95945050505050565b60008060006060848603121561097357600080fd5b833561097e8161081d565b95602085013595506040909401359392505050565b6000602080830181845280855180835260408601915060408160051b870101925083870160005b828110156109e857603f198886030184526109d68583516108f6565b945092850192908501906001016109ba565b5092979650505050505050565b600080600060408486031215610a0a57600080fd5b8335610a158161081d565b9250602084013567ffffffffffffffff80821115610a3257600080fd5b818601915086601f830112610a4657600080fd5b813581811115610a5557600080fd5b8760208260051b8501011115610a6a57600080fd5b6020830194508093505050509250925092565b600060208284031215610a8f57600080fd5b8135610a9a8161081d565b9392505050565b602081526000610a9a60208301846108b1565b634e487b7160e01b600052604160045260246000fd5b600060208284031215610adc57600080fd5b815167ffffffffffffffff80821115610af457600080fd5b818401915084601f830112610b0857600080fd5b815181811115610b1a57610b1a610ab4565b604051601f8201601f19908116603f01168101908382118183101715610b4257610b42610ab4565b81604052828152876020848701011115610b5b57600080fd5b610b6c836020830160208801610861565b979650505050505050565b600060208284031215610b8957600080fd5b5051919050565b600060208284031215610ba257600080fd5b8151610a9a8161081d565b634e487b7160e01b600052601160045260246000fd5b81810381811115610bd657610bd6610bad565b92915050565b80820180821115610bd657610bd6610bad565b634e487b7160e01b600052603260045260246000fdfea26469706673582212205d910dd9f6ddb4a3a445c23faeaa66732d4034c92a295c012fb8b36aed4c82bb64736f6c63430008110033",
  "linkReferences": {},
  "deployedLinkReferences": {}
}