{
  "_format": "hh-sol-artifact-1",
  "contractName": "StakingPoolForUniswapV2Tokens",
  "sourceName": "src/fee/StakingPoolForUniswapV2Tokens.sol",
  "abi": [
    {
      "inputs": [
        {
          "internalType": "address",
          "name": "_stakedToken",
          "type": "address"
        },
        {
          "internalType": "address",
          "name": "_looksRareToken",
          "type": "address"
        },
        {
          "internalType": "uint256",
          "name": "_rewardPerBlock",
          "type": "uint256"
        },
        {
          "internalType": "uint256",
          "name": "_startBlock",
          "type": "uint256"
        },
        {
          "internalType": "uint256",
          "name": "_endBlock",
          "type": "uint256"
        }
      ],
      "stateMutability": "nonpayable",
      "type": "constructor"
    },
    {
      "anonymous": false,
      "inputs": [
        {
          "indexed": false,
          "internalType": "uint256",
          "name": "amount",
          "type": "uint256"
        }
      ],
      "name": "AdminRewardWithdraw",
      "type": "event"
    },
    {
      "anonymous": false,
      "inputs": [
        {
          "indexed": true,
          "internalType": "address",
          "name": "user",
          "type": "address"
        },
        {
          "indexed": false,
          "internalType": "uint256",
          "name": "amount",
          "type": "uint256"
        },
        {
          "indexed": false,
          "internalType": "uint256",
          "name": "harvestedAmount",
          "type": "uint256"
        }
      ],
      "name": "Deposit",
      "type": "event"
    },
    {
      "anonymous": false,
      "inputs": [
        {
          "indexed": true,
          "internalType": "address",
          "name": "user",
          "type": "address"
        },
        {
          "indexed": false,
          "internalType": "uint256",
          "name": "amount",
          "type": "uint256"
        }
      ],
      "name": "EmergencyWithdraw",
      "type": "event"
    },
    {
      "anonymous": false,
      "inputs": [
        {
          "indexed": true,
          "internalType": "address",
          "name": "user",
          "type": "address"
        },
        {
          "indexed": false,
          "internalType": "uint256",
          "name": "harvestedAmount",
          "type": "uint256"
        }
      ],
      "name": "Harvest",
      "type": "event"
    },
    {
      "anonymous": false,
      "inputs": [
        {
          "indexed": false,
          "internalType": "uint256",
          "name": "rewardPerBlock",
          "type": "uint256"
        },
        {
          "indexed": false,
          "internalType": "uint256",
          "name": "endBlock",
          "type": "uint256"
        }
      ],
      "name": "NewRewardPerBlockAndEndBlock",
      "type": "event"
    },
    {
      "anonymous": false,
      "inputs": [
        {
          "indexed": true,
          "internalType": "address",
          "name": "previousOwner",
          "type": "address"
        },
        {
          "indexed": true,
          "internalType": "address",
          "name": "newOwner",
          "type": "address"
        }
      ],
      "name": "OwnershipTransferred",
      "type": "event"
    },
    {
      "anonymous": false,
      "inputs": [
        {
          "indexed": false,
          "internalType": "address",
          "name": "account",
          "type": "address"
        }
      ],
      "name": "Paused",
      "type": "event"
    },
    {
      "anonymous": false,
      "inputs": [
        {
          "indexed": false,
          "internalType": "address",
          "name": "account",
          "type": "address"
        }
      ],
      "name": "Unpaused",
      "type": "event"
    },
    {
      "anonymous": false,
      "inputs": [
        {
          "indexed": true,
          "internalType": "address",
          "name": "user",
          "type": "address"
        },
        {
          "indexed": false,
          "internalType": "uint256",
          "name": "amount",
          "type": "uint256"
        },
        {
          "indexed": false,
          "internalType": "uint256",
          "name": "harvestedAmount",
          "type": "uint256"
        }
      ],
      "name": "Withdraw",
      "type": "event"
    },
    {
      "inputs": [],
      "name": "PRECISION_FACTOR",
      "outputs": [
        {
          "internalType": "uint256",
          "name": "",
          "type": "uint256"
        }
      ],
      "stateMutability": "view",
      "type": "function"
    },
    {
      "inputs": [],
      "name": "START_BLOCK",
      "outputs": [
        {
          "internalType": "uint256",
          "name": "",
          "type": "uint256"
        }
      ],
      "stateMutability": "view",
      "type": "function"
    },
    {
      "inputs": [],
      "name": "accTokenPerShare",
      "outputs": [
        {
          "internalType": "uint256",
          "name": "",
          "type": "uint256"
        }
      ],
      "stateMutability": "view",
      "type": "function"
    },
    {
      "inputs": [
        {
          "internalType": "uint256",
          "name": "amount",
          "type": "uint256"
        }
      ],
      "name": "adminRewardWithdraw",
      "outputs": [],
      "stateMutability": "nonpayable",
      "type": "function"
    },
    {
      "inputs": [
        {
          "internalType": "address",
          "name": "user",
          "type": "address"
        }
      ],
      "name": "calculatePendingRewards",
      "outputs": [
        {
          "internalType": "uint256",
          "name": "",
          "type": "uint256"
        }
      ],
      "stateMutability": "view",
      "type": "function"
    },
    {
      "inputs": [
        {
          "internalType": "uint256",
          "name": "amount",
          "type": "uint256"
        }
      ],
      "name": "deposit",
      "outputs": [],
      "stateMutability": "nonpayable",
      "type": "function"
    },
    {
      "inputs": [],
      "name": "emergencyWithdraw",
      "outputs": [],
      "stateMutability": "nonpayable",
      "type": "function"
    },
    {
      "inputs": [],
      "name": "endBlock",
      "outputs": [
        {
          "internalType": "uint256",
          "name": "",
          "type": "uint256"
        }
      ],
      "stateMutability": "view",
      "type": "function"
    },
    {
      "inputs": [],
      "name": "harvest",
      "outputs": [],
      "stateMutability": "nonpayable",
      "type": "function"
    },
    {
      "inputs": [],
      "name": "lastRewardBlock",
      "outputs": [
        {
          "internalType": "uint256",
          "name": "",
          "type": "uint256"
        }
      ],
      "stateMutability": "view",
      "type": "function"
    },
    {
      "inputs": [],
      "name": "looksRareToken",
      "outputs": [
        {
          "internalType": "contract IERC20",
          "name": "",
          "type": "address"
        }
      ],
      "stateMutability": "view",
      "type": "function"
    },
    {
      "inputs": [],
      "name": "owner",
      "outputs": [
        {
          "internalType": "address",
          "name": "",
          "type": "address"
        }
      ],
      "stateMutability": "view",
      "type": "function"
    },
    {
      "inputs": [],
      "name": "pause",
      "outputs": [],
      "stateMutability": "nonpayable",
      "type": "function"
    },
    {
      "inputs": [],
      "name": "paused",
      "outputs": [
        {
          "internalType": "bool",
          "name": "",
          "type": "bool"
        }
      ],
      "stateMutability": "view",
      "type": "function"
    },
    {
      "inputs": [],
      "name": "renounceOwnership",
      "outputs": [],
      "stateMutability": "nonpayable",
      "type": "function"
    },
    {
      "inputs": [],
      "name": "rewardPerBlock",
      "outputs": [
        {
          "internalType": "uint256",
          "name": "",
          "type": "uint256"
        }
      ],
      "stateMutability": "view",
      "type": "function"
    },
    {
      "inputs": [],
      "name": "stakedToken",
      "outputs": [
        {
          "internalType": "contract IERC20",
          "name": "",
          "type": "address"
        }
      ],
      "stateMutability": "view",
      "type": "function"
    },
    {
      "inputs": [
        {
          "internalType": "address",
          "name": "newOwner",
          "type": "address"
        }
      ],
      "name": "transferOwnership",
      "outputs": [],
      "stateMutability": "nonpayable",
      "type": "function"
    },
    {
      "inputs": [],
      "name": "unpause",
      "outputs": [],
      "stateMutability": "nonpayable",
      "type": "function"
    },
    {
      "inputs": [
        {
          "internalType": "uint256",
          "name": "newRewardPerBlock",
          "type": "uint256"
        },
        {
          "internalType": "uint256",
          "name": "newEndBlock",
          "type": "uint256"
        }
      ],
      "name": "updateRewardPerBlockAndEndBlock",
      "outputs": [],
      "stateMutability": "nonpayable",
      "type": "function"
    },
    {
      "inputs": [
        {
          "internalType": "address",
          "name": "",
          "type": "address"
        }
      ],
      "name": "userInfo",
      "outputs": [
        {
          "internalType": "uint256",
          "name": "amount",
          "type": "uint256"
        },
        {
          "internalType": "uint256",
          "name": "rewardDebt",
          "type": "uint256"
        }
      ],
      "stateMutability": "view",
      "type": "function"
    },
    {
      "inputs": [
        {
          "internalType": "uint256",
          "name": "amount",
          "type": "uint256"
        }
      ],
      "name": "withdraw",
      "outputs": [],
      "stateMutability": "nonpayable",
      "type": "function"
    }
  ],
  "bytecode": "0x60e06040523480156200001157600080fd5b50604051620018ab380380620018ab8339810160408190526200003491620000e6565b6200003f3362000079565b6000805460ff60a01b19169055600180556001600160a01b0394851660a0529290931660805260055560c082905260035560045562000139565b600080546001600160a01b038381166001600160a01b0319831681178455604051919092169283917f8be0079c531659141344cd1fd0a4f28419497f9722a3daafe3b4186f6b6457e09190a35050565b80516001600160a01b0381168114620000e157600080fd5b919050565b600080600080600060a08688031215620000ff57600080fd5b6200010a86620000c9565b94506200011a60208701620000c9565b6040870151606088015160809098015196999198509695945092505050565b60805160a05160c0516116f5620001b66000396000818161024b01528181610beb0152610c8f0152600081816103010152818161037f0152818161064701528181610a2c01528181610b800152610eb301526000818161020c0152818161068901528181610823015281816108b901526109f801526116f56000f3fe608060405234801561001057600080fd5b50600436106101825760003560e01c80638456cb59116100d8578063b6b55f251161008c578063db2e21bc11610066578063db2e21bc1461032f578063dead81b314610337578063f2fde38b1461034a57600080fd5b8063b6b55f25146102e9578063cc7a262e146102fc578063ccd34cd51461032357600080fd5b80638da5cb5b116100bd5780638da5cb5b146102c65780638f662915146102d7578063a9f8d181146102e057600080fd5b80638456cb59146102b55780638ae39cac146102bd57600080fd5b806339b3e8261161013a5780635c975abb116101145780635c975abb1461027d578063715018a61461029a5780638060bf0c146102a257600080fd5b806339b3e826146102465780633f4ba83a1461026d5780634641257d1461027557600080fd5b80631959a0021161016b5780631959a002146101b65780632e1a7d4d146101f257806336db9fb21461020757600080fd5b8063083c632314610187578063097aad10146101a3575b600080fd5b61019060035481565b6040519081526020015b60405180910390f35b6101906101b1366004611538565b61035d565b6101dd6101c4366004611538565b6006602052600090815260409020805460019091015482565b6040805192835260208301919091520161019a565b610205610200366004611561565b6104ef565b005b61022e7f000000000000000000000000000000000000000000000000000000000000000081565b6040516001600160a01b03909116815260200161019a565b6101907f000000000000000000000000000000000000000000000000000000000000000081565b6102056106f9565b610205610713565b600054600160a01b900460ff16604051901515815260200161019a565b610205610892565b6102056102b0366004611561565b6108a4565b610205610916565b61019060055481565b6000546001600160a01b031661022e565b61019060025481565b61019060045481565b6102056102f7366004611561565b61092e565b61022e7f000000000000000000000000000000000000000000000000000000000000000081565b61019064e8d4a5100081565b610205610af4565b61020561034536600461157a565b610be1565b610205610358366004611538565b610d69565b6040516370a0823160e01b815230600482015260009081906001600160a01b037f000000000000000000000000000000000000000000000000000000000000000016906370a0823190602401602060405180830381865afa1580156103c6573d6000803e3d6000fd5b505050506040513d601f19601f820116820180604052508101906103ea919061159c565b9050600454431180156103fc57508015155b1561049f57600061040f60045443610df6565b905060006005548261042191906115cb565b905060008361043564e8d4a51000846115cb565b61043f91906115e2565b60025461044c9190611604565b6001600160a01b0387166000908152600660205260409020600181015490549192509064e8d4a51000906104819084906115cb565b61048b91906115e2565b6104959190611617565b9695505050505050565b6001600160a01b038316600090815260066020526040902060018101546002549154909164e8d4a51000916104d491906115cb565b6104de91906115e2565b6104e89190611617565b9392505050565b6104f7610e37565b3360009081526006602052604090205481118015906105165750600081115b61058d5760405162461bcd60e51b815260206004820152603760248201527f57697468647261773a20416d6f756e74206d757374206265203e2030206f722060448201527f6c6f776572207468616e20757365722062616c616e636500000000000000000060648201526084015b60405180910390fd5b610595610e90565b33600090815260066020526040812060018101546002549154909164e8d4a51000916105c191906115cb565b6105cb91906115e2565b6105d59190611617565b336000908152600660205260408120805492935084929091906105f9908490611617565b90915550506002543360009081526006602052604090205464e8d4a5100091610621916115cb565b61062b91906115e2565b33600081815260066020526040902060010191909155610676907f00000000000000000000000000000000000000000000000000000000000000006001600160a01b03169084610f9f565b80156106b0576106b06001600160a01b037f0000000000000000000000000000000000000000000000000000000000000000163383610f9f565b604080518381526020810183905233917ff279e6a1f5e320cca91135676d9cb6e44ca8a08c0b88342bcdb1144f6511b56891015b60405180910390a2506106f660018055565b50565b610701611048565b6107096110a2565b6107116110fb565b565b61071b610e37565b610723610e90565b33600090815260066020526040812060018101546002549154909164e8d4a510009161074f91906115cb565b61075991906115e2565b6107639190611617565b9050600081116107da5760405162461bcd60e51b8152602060048201526024808201527f486172766573743a2050656e64696e672072657761726473206d75737420626560448201527f203e2030000000000000000000000000000000000000000000000000000000006064820152608401610584565b6002543360009081526006602052604090205464e8d4a51000916107fd916115cb565b61080791906115e2565b33600081815260066020526040902060010191909155610852907f00000000000000000000000000000000000000000000000000000000000000006001600160a01b03169083610f9f565b60405181815233907fc9695243a805adb74c91f28311176c65b417e842d5699893cef56d18bfa48cba906020015b60405180910390a25061071160018055565b61089a611048565b6107116000611150565b6108ac611048565b6108e06001600160a01b037f0000000000000000000000000000000000000000000000000000000000000000163383610f9f565b6040518181527f133d0bda545cf860a103708256d4e2d06ec7e5705693425765110f52045c47519060200160405180910390a150565b61091e611048565b6109266111b8565b610711611212565b610936610e37565b600081116109865760405162461bcd60e51b815260206004820152601b60248201527f4465706f7369743a20416d6f756e74206d757374206265203e203000000000006044820152606401610584565b61098e610e90565b3360009081526006602052604081205415610a1f5733600090815260066020526040902060018101546002549154909164e8d4a51000916109cf91906115cb565b6109d991906115e2565b6109e39190611617565b90508015610a1f57610a1f6001600160a01b037f0000000000000000000000000000000000000000000000000000000000000000163383610f9f565b610a546001600160a01b037f000000000000000000000000000000000000000000000000000000000000000016333085611255565b3360009081526006602052604081208054849290610a73908490611604565b90915550506002543360009081526006602052604090205464e8d4a5100091610a9b916115cb565b610aa591906115e2565b3360008181526006602090815260409182902060010193909355805185815292830184905290917f90890809c654f11d6e72a28fa60149770a0d11ec6c92319d6ceb2bb0a4ea1a1591016106e4565b610afc610e37565b610b046110a2565b3360009081526006602052604081205490819003610b645760405162461bcd60e51b815260206004820152601c60248201527f57697468647261773a20416d6f756e74206d757374206265203e2030000000006044820152606401610584565b33600081815260066020526040812081815560010155610baf907f00000000000000000000000000000000000000000000000000000000000000006001600160a01b03169083610f9f565b60405181815233907f5fafa99d0643513820be26656b45130b01e1c03062e1266bf36f88cbd3bd969590602001610880565b610be9611048565b7f00000000000000000000000000000000000000000000000000000000000000004310610c1857610c18610e90565b438111610c8d5760405162461bcd60e51b815260206004820152602f60248201527f4f776e65723a204e657720656e64426c6f636b206d757374206265206166746560448201527f722063757272656e7420626c6f636b00000000000000000000000000000000006064820152608401610584565b7f00000000000000000000000000000000000000000000000000000000000000008111610d225760405162461bcd60e51b815260206004820152602d60248201527f4f776e65723a204e657720656e64426c6f636b206d757374206265206166746560448201527f7220737461727420626c6f636b000000000000000000000000000000000000006064820152608401610584565b6003819055600582905560408051838152602081018390527f5fbc8888d6f91664a15735f81cde412b4cc9641ac0ce5440a295439f71768e4b910160405180910390a15050565b610d71611048565b6001600160a01b038116610ded5760405162461bcd60e51b815260206004820152602660248201527f4f776e61626c653a206e6577206f776e657220697320746865207a65726f206160448201527f64647265737300000000000000000000000000000000000000000000000000006064820152608401610584565b6106f681611150565b60006003548211610e1257610e0b8383611617565b9050610e31565b6003548310610e2357506000610e31565b82600354610e0b9190611617565b92915050565b600260015403610e895760405162461bcd60e51b815260206004820152601f60248201527f5265656e7472616e637947756172643a207265656e7472616e742063616c6c006044820152606401610584565b6002600155565b6004544311610e9b57565b6040516370a0823160e01b81523060048201526000907f00000000000000000000000000000000000000000000000000000000000000006001600160a01b0316906370a0823190602401602060405180830381865afa158015610f02573d6000803e3d6000fd5b505050506040513d601f19601f82011682018060405250810190610f26919061159c565b905080600003610f37575043600455565b6000610f4560045443610df6565b9050600060055482610f5791906115cb565b90508015610f8a5782610f6f64e8d4a51000836115cb565b610f7991906115e2565b600254610f869190611604565b6002555b60035460045411610f9a57436004555b505050565b6040516001600160a01b038316602482015260448101829052610f9a9084907fa9059cbb00000000000000000000000000000000000000000000000000000000906064015b60408051601f198184030181529190526020810180517bffffffffffffffffffffffffffffffffffffffffffffffffffffffff167fffffffff00000000000000000000000000000000000000000000000000000000909316929092179091526112ac565b6000546001600160a01b031633146107115760405162461bcd60e51b815260206004820181905260248201527f4f776e61626c653a2063616c6c6572206973206e6f7420746865206f776e65726044820152606401610584565b600054600160a01b900460ff166107115760405162461bcd60e51b815260206004820152601460248201527f5061757361626c653a206e6f74207061757365640000000000000000000000006044820152606401610584565b6111036110a2565b6000805460ff60a01b191690557f5db9ee0a495bf2e6ff9c91a7834c1ba4fdd244a5e8aa4e537bd38aeae4b073aa335b6040516001600160a01b03909116815260200160405180910390a1565b600080546001600160a01b038381167fffffffffffffffffffffffff0000000000000000000000000000000000000000831681178455604051919092169283917f8be0079c531659141344cd1fd0a4f28419497f9722a3daafe3b4186f6b6457e09190a35050565b600054600160a01b900460ff16156107115760405162461bcd60e51b815260206004820152601060248201527f5061757361626c653a20706175736564000000000000000000000000000000006044820152606401610584565b61121a6111b8565b6000805460ff60a01b1916600160a01b1790557f62e78cea01bee320cd4e420270b5ea74000d11b0c9f74754ebdbfc544b05a2586111333390565b6040516001600160a01b03808516602483015283166044820152606481018290526112a69085907f23b872dd0000000000000000000000000000000000000000000000000000000090608401610fe4565b50505050565b6000611301826040518060400160405280602081526020017f5361666545524332303a206c6f772d6c6576656c2063616c6c206661696c6564815250856001600160a01b03166113919092919063ffffffff16565b805190915015610f9a578080602001905181019061131f919061162a565b610f9a5760405162461bcd60e51b815260206004820152602a60248201527f5361666545524332303a204552433230206f7065726174696f6e20646964206e60448201527f6f742073756363656564000000000000000000000000000000000000000000006064820152608401610584565b60606113a084846000856113a8565b949350505050565b6060824710156114205760405162461bcd60e51b815260206004820152602660248201527f416464726573733a20696e73756666696369656e742062616c616e636520666f60448201527f722063616c6c00000000000000000000000000000000000000000000000000006064820152608401610584565b600080866001600160a01b0316858760405161143c9190611670565b60006040518083038185875af1925050503d8060008114611479576040519150601f19603f3d011682016040523d82523d6000602084013e61147e565b606091505b509150915061148f8783838761149a565b979650505050505050565b60608315611509578251600003611502576001600160a01b0385163b6115025760405162461bcd60e51b815260206004820152601d60248201527f416464726573733a2063616c6c20746f206e6f6e2d636f6e74726163740000006044820152606401610584565b50816113a0565b6113a0838381511561151e5781518083602001fd5b8060405162461bcd60e51b8152600401610584919061168c565b60006020828403121561154a57600080fd5b81356001600160a01b03811681146104e857600080fd5b60006020828403121561157357600080fd5b5035919050565b6000806040838503121561158d57600080fd5b50508035926020909101359150565b6000602082840312156115ae57600080fd5b5051919050565b634e487b7160e01b600052601160045260246000fd5b8082028115828204841417610e3157610e316115b5565b6000826115ff57634e487b7160e01b600052601260045260246000fd5b500490565b80820180821115610e3157610e316115b5565b81810381811115610e3157610e316115b5565b60006020828403121561163c57600080fd5b815180151581146104e857600080fd5b60005b8381101561166757818101518382015260200161164f565b50506000910152565b6000825161168281846020870161164c565b9190910192915050565b60208152600082518060208401526116ab81604085016020870161164c565b601f01601f1916919091016040019291505056fea2646970667358221220b7b6b22cd9385956a63f3406b9303ac29104bcf608185eafb6f8e483ef747d8b64736f6c63430008110033",
  "linkReferences": {},
  "deployedLinkReferences": {}
}