{
  "_format": "hh-sol-artifact-1",
  "contractName": "ERC721ContractMetadataCloneable",
  "sourceName": "src/factory/templates/mintable/ERC721ContractMetadataCloneable.sol",
  "abi": [
    {
      "inputs": [],
      "name": "ApprovalCallerNotOwnerNorApproved",
      "type": "error"
    },
    {
      "inputs": [],
      "name": "ApprovalQueryForNonexistentToken",
      "type": "error"
    },
    {
      "inputs": [],
      "name": "BalanceQueryForZeroAddress",
      "type": "error"
    },
    {
      "inputs": [
        {
          "internalType": "uint256",
          "name": "newMaxSupply",
          "type": "uint256"
        }
      ],
      "name": "CannotExceedMaxSupplyOfUint64",
      "type": "error"
    },
    {
      "inputs": [
        {
          "internalType": "uint256",
          "name": "basisPoints",
          "type": "uint256"
        }
      ],
      "name": "InvalidRoyaltyBasisPoints",
      "type": "error"
    },
    {
      "inputs": [],
      "name": "MintERC2309QuantityExceedsLimit",
      "type": "error"
    },
    {
      "inputs": [],
      "name": "MintToZeroAddress",
      "type": "error"
    },
    {
      "inputs": [],
      "name": "MintZeroQuantity",
      "type": "error"
    },
    {
      "inputs": [],
      "name": "OnlyOwner",
      "type": "error"
    },
    {
      "inputs": [],
      "name": "OwnerQueryForNonexistentToken",
      "type": "error"
    },
    {
      "inputs": [],
      "name": "OwnershipNotInitializedForExtraData",
      "type": "error"
    },
    {
      "inputs": [],
      "name": "RoyaltyAddressCannotBeZeroAddress",
      "type": "error"
    },
    {
      "inputs": [],
      "name": "TransferCallerNotOwnerNorApproved",
      "type": "error"
    },
    {
      "inputs": [],
      "name": "TransferFromIncorrectOwner",
      "type": "error"
    },
    {
      "inputs": [],
      "name": "TransferToNonERC721ReceiverImplementer",
      "type": "error"
    },
    {
      "inputs": [],
      "name": "TransferToZeroAddress",
      "type": "error"
    },
    {
      "inputs": [],
      "name": "URIQueryForNonexistentToken",
      "type": "error"
    },
    {
      "anonymous": false,
      "inputs": [
        {
          "indexed": true,
          "internalType": "address",
          "name": "owner",
          "type": "address"
        },
        {
          "indexed": true,
          "internalType": "address",
          "name": "approved",
          "type": "address"
        },
        {
          "indexed": true,
          "internalType": "uint256",
          "name": "tokenId",
          "type": "uint256"
        }
      ],
      "name": "Approval",
      "type": "event"
    },
    {
      "anonymous": false,
      "inputs": [
        {
          "indexed": true,
          "internalType": "address",
          "name": "owner",
          "type": "address"
        },
        {
          "indexed": true,
          "internalType": "address",
          "name": "operator",
          "type": "address"
        },
        {
          "indexed": false,
          "internalType": "bool",
          "name": "approved",
          "type": "bool"
        }
      ],
      "name": "ApprovalForAll",
      "type": "event"
    },
    {
      "anonymous": false,
      "inputs": [
        {
          "indexed": false,
          "internalType": "uint256",
          "name": "_fromTokenId",
          "type": "uint256"
        },
        {
          "indexed": false,
          "internalType": "uint256",
          "name": "_toTokenId",
          "type": "uint256"
        }
      ],
      "name": "BatchMetadataUpdate",
      "type": "event"
    },
    {
      "anonymous": false,
      "inputs": [
        {
          "indexed": true,
          "internalType": "uint256",
          "name": "fromTokenId",
          "type": "uint256"
        },
        {
          "indexed": false,
          "internalType": "uint256",
          "name": "toTokenId",
          "type": "uint256"
        },
        {
          "indexed": true,
          "internalType": "address",
          "name": "from",
          "type": "address"
        },
        {
          "indexed": true,
          "internalType": "address",
          "name": "to",
          "type": "address"
        }
      ],
      "name": "ConsecutiveTransfer",
      "type": "event"
    },
    {
      "anonymous": false,
      "inputs": [
        {
          "indexed": false,
          "internalType": "string",
          "name": "newContractURI",
          "type": "string"
        }
      ],
      "name": "ContractURIUpdated",
      "type": "event"
    },
    {
      "anonymous": false,
      "inputs": [
        {
          "indexed": false,
          "internalType": "uint8",
          "name": "version",
          "type": "uint8"
        }
      ],
      "name": "Initialized",
      "type": "event"
    },
    {
      "anonymous": false,
      "inputs": [
        {
          "indexed": false,
          "internalType": "uint256",
          "name": "newMaxSupply",
          "type": "uint256"
        }
      ],
      "name": "MaxSupplyUpdated",
      "type": "event"
    },
    {
      "anonymous": false,
      "inputs": [
        {
          "indexed": true,
          "internalType": "address",
          "name": "previousOwner",
          "type": "address"
        },
        {
          "indexed": true,
          "internalType": "address",
          "name": "newOwner",
          "type": "address"
        }
      ],
      "name": "OwnershipTransferred",
      "type": "event"
    },
    {
      "anonymous": false,
      "inputs": [
        {
          "indexed": false,
          "internalType": "address",
          "name": "receiver",
          "type": "address"
        },
        {
          "indexed": false,
          "internalType": "uint256",
          "name": "bps",
          "type": "uint256"
        }
      ],
      "name": "RoyaltyInfoUpdated",
      "type": "event"
    },
    {
      "anonymous": false,
      "inputs": [
        {
          "indexed": true,
          "internalType": "address",
          "name": "from",
          "type": "address"
        },
        {
          "indexed": true,
          "internalType": "address",
          "name": "to",
          "type": "address"
        },
        {
          "indexed": true,
          "internalType": "uint256",
          "name": "tokenId",
          "type": "uint256"
        }
      ],
      "name": "Transfer",
      "type": "event"
    },
    {
      "inputs": [
        {
          "internalType": "address",
          "name": "to",
          "type": "address"
        },
        {
          "internalType": "uint256",
          "name": "tokenId",
          "type": "uint256"
        }
      ],
      "name": "approve",
      "outputs": [],
      "stateMutability": "nonpayable",
      "type": "function"
    },
    {
      "inputs": [
        {
          "internalType": "address",
          "name": "owner",
          "type": "address"
        }
      ],
      "name": "balanceOf",
      "outputs": [
        {
          "internalType": "uint256",
          "name": "",
          "type": "uint256"
        }
      ],
      "stateMutability": "view",
      "type": "function"
    },
    {
      "inputs": [],
      "name": "baseURI",
      "outputs": [
        {
          "internalType": "string",
          "name": "",
          "type": "string"
        }
      ],
      "stateMutability": "view",
      "type": "function"
    },
    {
      "inputs": [],
      "name": "contractURI",
      "outputs": [
        {
          "internalType": "string",
          "name": "",
          "type": "string"
        }
      ],
      "stateMutability": "view",
      "type": "function"
    },
    {
      "inputs": [
        {
          "internalType": "uint256",
          "name": "fromTokenId",
          "type": "uint256"
        },
        {
          "internalType": "uint256",
          "name": "toTokenId",
          "type": "uint256"
        }
      ],
      "name": "emitBatchMetadataUpdate",
      "outputs": [],
      "stateMutability": "nonpayable",
      "type": "function"
    },
    {
      "inputs": [
        {
          "internalType": "uint256",
          "name": "tokenId",
          "type": "uint256"
        }
      ],
      "name": "getApproved",
      "outputs": [
        {
          "internalType": "address",
          "name": "",
          "type": "address"
        }
      ],
      "stateMutability": "view",
      "type": "function"
    },
    {
      "inputs": [
        {
          "internalType": "address",
          "name": "owner",
          "type": "address"
        },
        {
          "internalType": "address",
          "name": "operator",
          "type": "address"
        }
      ],
      "name": "isApprovedForAll",
      "outputs": [
        {
          "internalType": "bool",
          "name": "",
          "type": "bool"
        }
      ],
      "stateMutability": "view",
      "type": "function"
    },
    {
      "inputs": [],
      "name": "maxSupply",
      "outputs": [
        {
          "internalType": "uint256",
          "name": "",
          "type": "uint256"
        }
      ],
      "stateMutability": "view",
      "type": "function"
    },
    {
      "inputs": [],
      "name": "name",
      "outputs": [
        {
          "internalType": "string",
          "name": "",
          "type": "string"
        }
      ],
      "stateMutability": "view",
      "type": "function"
    },
    {
      "inputs": [],
      "name": "owner",
      "outputs": [
        {
          "internalType": "address",
          "name": "",
          "type": "address"
        }
      ],
      "stateMutability": "view",
      "type": "function"
    },
    {
      "inputs": [
        {
          "internalType": "uint256",
          "name": "tokenId",
          "type": "uint256"
        }
      ],
      "name": "ownerOf",
      "outputs": [
        {
          "internalType": "address",
          "name": "",
          "type": "address"
        }
      ],
      "stateMutability": "view",
      "type": "function"
    },
    {
      "inputs": [],
      "name": "renounceOwnership",
      "outputs": [],
      "stateMutability": "nonpayable",
      "type": "function"
    },
    {
      "inputs": [],
      "name": "royaltyAddress",
      "outputs": [
        {
          "internalType": "address",
          "name": "",
          "type": "address"
        }
      ],
      "stateMutability": "view",
      "type": "function"
    },
    {
      "inputs": [],
      "name": "royaltyBasisPoints",
      "outputs": [
        {
          "internalType": "uint256",
          "name": "",
          "type": "uint256"
        }
      ],
      "stateMutability": "view",
      "type": "function"
    },
    {
      "inputs": [
        {
          "internalType": "uint256",
          "name": "",
          "type": "uint256"
        },
        {
          "internalType": "uint256",
          "name": "_salePrice",
          "type": "uint256"
        }
      ],
      "name": "royaltyInfo",
      "outputs": [
        {
          "internalType": "address",
          "name": "receiver",
          "type": "address"
        },
        {
          "internalType": "uint256",
          "name": "royaltyAmount",
          "type": "uint256"
        }
      ],
      "stateMutability": "view",
      "type": "function"
    },
    {
      "inputs": [
        {
          "internalType": "address",
          "name": "from",
          "type": "address"
        },
        {
          "internalType": "address",
          "name": "to",
          "type": "address"
        },
        {
          "internalType": "uint256",
          "name": "tokenId",
          "type": "uint256"
        }
      ],
      "name": "safeTransferFrom",
      "outputs": [],
      "stateMutability": "nonpayable",
      "type": "function"
    },
    {
      "inputs": [
        {
          "internalType": "address",
          "name": "from",
          "type": "address"
        },
        {
          "internalType": "address",
          "name": "to",
          "type": "address"
        },
        {
          "internalType": "uint256",
          "name": "tokenId",
          "type": "uint256"
        },
        {
          "internalType": "bytes",
          "name": "_data",
          "type": "bytes"
        }
      ],
      "name": "safeTransferFrom",
      "outputs": [],
      "stateMutability": "nonpayable",
      "type": "function"
    },
    {
      "inputs": [
        {
          "internalType": "address",
          "name": "operator",
          "type": "address"
        },
        {
          "internalType": "bool",
          "name": "approved",
          "type": "bool"
        }
      ],
      "name": "setApprovalForAll",
      "outputs": [],
      "stateMutability": "nonpayable",
      "type": "function"
    },
    {
      "inputs": [
        {
          "internalType": "string",
          "name": "newBaseURI",
          "type": "string"
        }
      ],
      "name": "setBaseURI",
      "outputs": [],
      "stateMutability": "nonpayable",
      "type": "function"
    },
    {
      "inputs": [
        {
          "internalType": "string",
          "name": "newContractURI",
          "type": "string"
        }
      ],
      "name": "setContractURI",
      "outputs": [],
      "stateMutability": "nonpayable",
      "type": "function"
    },
    {
      "inputs": [
        {
          "internalType": "uint256",
          "name": "newMaxSupply",
          "type": "uint256"
        }
      ],
      "name": "setMaxSupply",
      "outputs": [],
      "stateMutability": "nonpayable",
      "type": "function"
    },
    {
      "inputs": [
        {
          "components": [
            {
              "internalType": "address",
              "name": "royaltyAddress",
              "type": "address"
            },
            {
              "internalType": "uint96",
              "name": "royaltyBps",
              "type": "uint96"
            }
          ],
          "internalType": "struct ISeaDropTokenContractMetadata.RoyaltyInfo",
          "name": "newInfo",
          "type": "tuple"
        }
      ],
      "name": "setRoyaltyInfo",
      "outputs": [],
      "stateMutability": "nonpayable",
      "type": "function"
    },
    {
      "inputs": [
        {
          "internalType": "bytes4",
          "name": "interfaceId",
          "type": "bytes4"
        }
      ],
      "name": "supportsInterface",
      "outputs": [
        {
          "internalType": "bool",
          "name": "",
          "type": "bool"
        }
      ],
      "stateMutability": "view",
      "type": "function"
    },
    {
      "inputs": [],
      "name": "symbol",
      "outputs": [
        {
          "internalType": "string",
          "name": "",
          "type": "string"
        }
      ],
      "stateMutability": "view",
      "type": "function"
    },
    {
      "inputs": [
        {
          "internalType": "uint256",
          "name": "tokenId",
          "type": "uint256"
        }
      ],
      "name": "tokenURI",
      "outputs": [
        {
          "internalType": "string",
          "name": "",
          "type": "string"
        }
      ],
      "stateMutability": "view",
      "type": "function"
    },
    {
      "inputs": [],
      "name": "totalSupply",
      "outputs": [
        {
          "internalType": "uint256",
          "name": "",
          "type": "uint256"
        }
      ],
      "stateMutability": "view",
      "type": "function"
    },
    {
      "inputs": [
        {
          "internalType": "address",
          "name": "from",
          "type": "address"
        },
        {
          "internalType": "address",
          "name": "to",
          "type": "address"
        },
        {
          "internalType": "uint256",
          "name": "tokenId",
          "type": "uint256"
        }
      ],
      "name": "transferFrom",
      "outputs": [],
      "stateMutability": "nonpayable",
      "type": "function"
    },
    {
      "inputs": [
        {
          "internalType": "address",
          "name": "newOwner",
          "type": "address"
        }
      ],
      "name": "transferOwnership",
      "outputs": [],
      "stateMutability": "nonpayable",
      "type": "function"
    }
  ],
  "bytecode": "0x608060405234801561001057600080fd5b5061001a3361001f565b610071565b600980546001600160a01b038381166001600160a01b0319831681179093556040519116919082907f8be0079c531659141344cd1fd0a4f28419497f9722a3daafe3b4186f6b6457e090600090a35050565b611855806100806000396000f3fe608060405234801561001057600080fd5b50600436106101c45760003560e01c806370a08231116100f9578063ad2f852a11610097578063d5abeb0111610071578063d5abeb01146103c9578063e8a3d485146103d1578063e985e9c5146103d9578063f2fde38b1461041557600080fd5b8063ad2f852a14610392578063b88d4fde146103a3578063c87b56dd146103b657600080fd5b8063938e3d7b116100d3578063938e3d7b1461035157806395d89b4114610364578063a22cb4651461036c578063a48301141461037f57600080fd5b806370a0823114610325578063715018a6146103385780638da5cb5b1461034057600080fd5b806342260b5d1161016657806355f804b31161014057806355f804b3146102e45780636352211e146102f75780636c0360eb1461030a5780636f8b44b01461031257600080fd5b806342260b5d146102a157806342842e0e146102be57806344dae42c146102d157600080fd5b8063095ea7b3116101a2578063095ea7b31461023157806318160ddd1461024657806323b872dd1461025c5780632a55205a1461026f57600080fd5b806301ffc9a7146101c957806306fdde03146101f1578063081812fc14610206575b600080fd5b6101dc6101d7366004611201565b610428565b60405190151581526020015b60405180910390f35b6101f96104a0565b6040516101e8919061126e565b610219610214366004611281565b610532565b6040516001600160a01b0390911681526020016101e8565b61024461023f3660046112af565b61058f565b005b600254600154035b6040519081526020016101e8565b61024461026a3660046112db565b610672565b61028261027d36600461131c565b610874565b604080516001600160a01b0390931683526020830191909152016101e8565b600d54600160a01b90046bffffffffffffffffffffffff1661024e565b6102446102cc3660046112db565b6108bf565b6102446102df36600461133e565b6108df565b6102446102f2366004611356565b610a36565b610219610305366004611281565b610aac565b6101f9610ab7565b610244610320366004611281565b610ac6565b61024e6103333660046113c8565b610b48565b610244610bb0565b6009546001600160a01b0316610219565b61024461035f366004611356565b610bc4565b6101f9610c0b565b61024461037a3660046113e5565b610c1a565b61024461038d36600461131c565b610c86565b600d546001600160a01b0316610219565b6102446103b1366004611439565b610cc4565b6101f96103c4366004611281565b610d0e565b600a5461024e565b6101f9610dab565b6101dc6103e7366004611519565b6001600160a01b03918216600090815260086020908152604080832093909416825291909152205460ff1690565b6102446104233660046113c8565b610dba565b60006001600160e01b031982167f2a55205a00000000000000000000000000000000000000000000000000000000148061048b57507f49064906000000000000000000000000000000000000000000000000000000006001600160e01b03198316145b8061049a575061049a82610e4a565b92915050565b6060600380546104af90611547565b80601f01602080910402602001604051908101604052809291908181526020018280546104db90611547565b80156105285780601f106104fd57610100808354040283529160200191610528565b820191906000526020600020905b81548152906001019060200180831161050b57829003601f168201915b5050505050905090565b600061053d82610ee3565b610573576040517fcf4700e400000000000000000000000000000000000000000000000000000000815260040160405180910390fd5b506000908152600760205260409020546001600160a01b031690565b600061059a82610aac565b9050336001600160a01b03821614610609576001600160a01b038116600090815260086020908152604080832033845290915290205460ff16610609576040517fcfb3b94200000000000000000000000000000000000000000000000000000000815260040160405180910390fd5b600082815260076020526040808220805473ffffffffffffffffffffffffffffffffffffffff19166001600160a01b0387811691821790925591518593918516917f8c5be1e5ebec7d5bd14f71427d1e84f3dd0314c0f7b2291e5b200ac8c7c3b92591a4505050565b600061067d82610f0b565b9050836001600160a01b0316816001600160a01b0316146106ca576040517fa114810000000000000000000000000000000000000000000000000000000000815260040160405180910390fd5b60008281526007602052604090208054338082146001600160a01b0388169091141761074d576001600160a01b038616600090815260086020908152604080832033845290915290205460ff1661074d576040517f59c896be00000000000000000000000000000000000000000000000000000000815260040160405180910390fd5b6001600160a01b03851661078d576040517fea553b3400000000000000000000000000000000000000000000000000000000815260040160405180910390fd5b801561079857600082555b6001600160a01b038681166000908152600660205260408082208054600019019055918716808252919020805460010190554260a01b17600160e11b17600085815260056020526040812091909155600160e11b8416900361082a576001840160008181526005602052604081205490036108285760015481146108285760008181526005602052604090208490555b505b83856001600160a01b0316876001600160a01b03167fddf252ad1be2c89b69c2b068fc378daa952ba7f163c4a11628f55a4df523b3ef60405160405180910390a45b505050505050565b600d80546000918291612710906108a090600160a01b90046bffffffffffffffffffffffff1686611591565b6108aa91906115a8565b90546001600160a01b03169590945092505050565b6108da83838360405180602001604052806000815250610cc4565b505050565b6108e7610f8b565b60006108f660208301836113c8565b6001600160a01b031603610936576040517f1cc0baef00000000000000000000000000000000000000000000000000000000815260040160405180910390fd5b61271061094960408301602084016115e4565b6bffffffffffffffffffffffff1611156109b55761096d60408201602083016115e4565b6040517f3cadbafb0000000000000000000000000000000000000000000000000000000081526bffffffffffffffffffffffff90911660048201526024015b60405180910390fd5b80600d6109c28282611601565b507ff21fccf4d64d86d532c4e4eb86c007b6ad57a460c27d724188625e755ec6cf6d90506109f360208301836113c8565b610a0360408401602085016115e4565b604080516001600160a01b0390931683526bffffffffffffffffffffffff9091166020830152015b60405180910390a150565b610a3e610f8b565b600b610a4b828483611694565b5060025460015414610aa8577f6bd5c950a8d8df17f772f5af37cb3655737899cbf903264b9795592da439661c600180610a8460015490565b610a8e9190611755565b604080519283526020830191909152015b60405180910390a15b5050565b600061049a82610f0b565b6060610ac1610ff4565b905090565b610ace610f8b565b67ffffffffffffffff811115610b13576040517fb43e9137000000000000000000000000000000000000000000000000000000008152600481018290526024016109ac565b600a8190556040518181527f7810bd47de260c3e9ee10061cf438099dd12256c79485f12f94dbccc981e806c90602001610a2b565b60006001600160a01b038216610b8a576040517f8f4eb60400000000000000000000000000000000000000000000000000000000815260040160405180910390fd5b506001600160a01b031660009081526006602052604090205467ffffffffffffffff1690565b610bb8611003565b610bc2600061105d565b565b610bcc610f8b565b600c610bd9828483611694565b507f905d981207a7d0b6c62cc46ab0be2a076d0298e4a86d0ab79882dbd01ac373788282604051610a9f929190611768565b6060600480546104af90611547565b3360008181526008602090815260408083206001600160a01b03871680855290835292819020805460ff191686151590811790915590519081529192917f17307eab39ab6107e8899845ad3d59bd9653f200f220920489ca2b5937696c31910160405180910390a35050565b610c8e610f8b565b60408051838152602081018390527f6bd5c950a8d8df17f772f5af37cb3655737899cbf903264b9795592da439661c9101610a9f565b610ccf848484610672565b6001600160a01b0383163b15610d0857610ceb848484846110bc565b610d08576040516368d2bf6b60e11b815260040160405180910390fd5b50505050565b6060610d1982610ee3565b610d4f576040517fa14c4b5000000000000000000000000000000000000000000000000000000000815260040160405180910390fd5b6000610d59610ff4565b90508051600003610d795760405180602001604052806000815250610da4565b80610d83846111a7565b604051602001610d94929190611797565b6040516020818303038152906040525b9392505050565b6060600c80546104af90611547565b610dc2611003565b6001600160a01b038116610e3e5760405162461bcd60e51b815260206004820152602660248201527f4f776e61626c653a206e6577206f776e657220697320746865207a65726f206160448201527f646472657373000000000000000000000000000000000000000000000000000060648201526084016109ac565b610e478161105d565b50565b60007f01ffc9a7000000000000000000000000000000000000000000000000000000006001600160e01b031983161480610ead57507f80ac58cd000000000000000000000000000000000000000000000000000000006001600160e01b03198316145b8061049a5750506001600160e01b0319167f5b5e139f000000000000000000000000000000000000000000000000000000001490565b60006001548210801561049a575050600090815260056020526040902054600160e01b161590565b600081600154811015610f595760008181526005602052604081205490600160e01b82169003610f57575b80600003610da4575060001901600081815260056020526040902054610f36565b505b6040517fdf2d9b4200000000000000000000000000000000000000000000000000000000815260040160405180910390fd5b303314610fba610fa36009546001600160a01b031690565b6001600160a01b0316336001600160a01b03161490565b17600003610bc2576040517f5fc483c500000000000000000000000000000000000000000000000000000000815260040160405180910390fd5b6060600b80546104af90611547565b6009546001600160a01b03163314610bc25760405162461bcd60e51b815260206004820181905260248201527f4f776e61626c653a2063616c6c6572206973206e6f7420746865206f776e657260448201526064016109ac565b600980546001600160a01b0383811673ffffffffffffffffffffffffffffffffffffffff19831681179093556040519116919082907f8be0079c531659141344cd1fd0a4f28419497f9722a3daafe3b4186f6b6457e090600090a35050565b604051630a85bd0160e11b81526000906001600160a01b0385169063150b7a02906110f19033908990889088906004016117c6565b6020604051808303816000875af192505050801561112c575060408051601f3d908101601f1916820190925261112991810190611802565b60015b61118a573d80801561115a576040519150601f19603f3d011682016040523d82523d6000602084013e61115f565b606091505b508051600003611182576040516368d2bf6b60e11b815260040160405180910390fd5b805181602001fd5b6001600160e01b031916630a85bd0160e11b149050949350505050565b606060a06040510180604052602081039150506000815280825b600183039250600a81066030018353600a9004806111c15750819003601f19909101908152919050565b6001600160e01b031981168114610e4757600080fd5b60006020828403121561121357600080fd5b8135610da4816111eb565b60005b83811015611239578181015183820152602001611221565b50506000910152565b6000815180845261125a81602086016020860161121e565b601f01601f19169290920160200192915050565b602081526000610da46020830184611242565b60006020828403121561129357600080fd5b5035919050565b6001600160a01b0381168114610e4757600080fd5b600080604083850312156112c257600080fd5b82356112cd8161129a565b946020939093013593505050565b6000806000606084860312156112f057600080fd5b83356112fb8161129a565b9250602084013561130b8161129a565b929592945050506040919091013590565b6000806040838503121561132f57600080fd5b50508035926020909101359150565b60006040828403121561135057600080fd5b50919050565b6000806020838503121561136957600080fd5b823567ffffffffffffffff8082111561138157600080fd5b818501915085601f83011261139557600080fd5b8135818111156113a457600080fd5b8660208285010111156113b657600080fd5b60209290920196919550909350505050565b6000602082840312156113da57600080fd5b8135610da48161129a565b600080604083850312156113f857600080fd5b82356114038161129a565b91506020830135801515811461141857600080fd5b809150509250929050565b634e487b7160e01b600052604160045260246000fd5b6000806000806080858703121561144f57600080fd5b843561145a8161129a565b9350602085013561146a8161129a565b925060408501359150606085013567ffffffffffffffff8082111561148e57600080fd5b818701915087601f8301126114a257600080fd5b8135818111156114b4576114b4611423565b604051601f8201601f19908116603f011681019083821181831017156114dc576114dc611423565b816040528281528a60208487010111156114f557600080fd5b82602086016020830137600060208483010152809550505050505092959194509250565b6000806040838503121561152c57600080fd5b82356115378161129a565b915060208301356114188161129a565b600181811c9082168061155b57607f821691505b60208210810361135057634e487b7160e01b600052602260045260246000fd5b634e487b7160e01b600052601160045260246000fd5b808202811582820484141761049a5761049a61157b565b6000826115c557634e487b7160e01b600052601260045260246000fd5b500490565b6bffffffffffffffffffffffff81168114610e4757600080fd5b6000602082840312156115f657600080fd5b8135610da4816115ca565b813561160c8161129a565b6001600160a01b038116905073ffffffffffffffffffffffffffffffffffffffff1981818454161783556020840135611644816115ca565b60a01b1617905550565b601f8211156108da57600081815260208120601f850160051c810160208610156116755750805b601f850160051c820191505b8181101561086c57828155600101611681565b67ffffffffffffffff8311156116ac576116ac611423565b6116c0836116ba8354611547565b8361164e565b6000601f8411600181146116f457600085156116dc5750838201355b600019600387901b1c1916600186901b17835561174e565b600083815260209020601f19861690835b828110156117255786850135825560209485019460019092019101611705565b50868210156117425760001960f88860031b161c19848701351681555b505060018560011b0183555b5050505050565b8181038181111561049a5761049a61157b565b60208152816020820152818360408301376000818301604090810191909152601f909201601f19160101919050565b600083516117a981846020880161121e565b8351908301906117bd81836020880161121e565b01949350505050565b60006001600160a01b038087168352808616602084015250836040830152608060608301526117f86080830184611242565b9695505050505050565b60006020828403121561181457600080fd5b8151610da4816111eb56fea2646970667358221220b8ff6c2cdbbea6ea607c918d1b441c2edf15a00bad46556927e35a3ef8c3263364736f6c63430008110033",
  "linkReferences": {},
  "deployedLinkReferences": {}
}