{
  "_format": "hh-sol-artifact-1",
  "contractName": "RoyaltyFeeManager",
  "sourceName": "src/RoyaltyFeeManager.sol",
  "abi": [
    {
      "inputs": [
        {
          "internalType": "address",
          "name": "_royaltyFeeRegistry",
          "type": "address"
        }
      ],
      "stateMutability": "nonpayable",
      "type": "constructor"
    },
    {
      "inputs": [],
      "name": "INTERFACE_ID_ERC2981",
      "outputs": [
        {
          "internalType": "bytes4",
          "name": "",
          "type": "bytes4"
        }
      ],
      "stateMutability": "view",
      "type": "function"
    },
    {
      "inputs": [],
      "name": "STANDARD_ROYALTY_FEE",
      "outputs": [
        {
          "internalType": "uint256",
          "name": "",
          "type": "uint256"
        }
      ],
      "stateMutability": "view",
      "type": "function"
    },
    {
      "inputs": [
        {
          "internalType": "address",
          "name": "collection",
          "type": "address"
        },
        {
          "internalType": "uint256",
          "name": "tokenId",
          "type": "uint256"
        },
        {
          "internalType": "uint256",
          "name": "amount",
          "type": "uint256"
        }
      ],
      "name": "calculateRoyaltyFeeAndGetRecipient",
      "outputs": [
        {
          "internalType": "address",
          "name": "receiver",
          "type": "address"
        },
        {
          "internalType": "uint256",
          "name": "royaltyAmount",
          "type": "uint256"
        }
      ],
      "stateMutability": "view",
      "type": "function"
    },
    {
      "inputs": [],
      "name": "royaltyFeeRegistry",
      "outputs": [
        {
          "internalType": "contract IRoyaltyFeeRegistry",
          "name": "",
          "type": "address"
        }
      ],
      "stateMutability": "view",
      "type": "function"
    }
  ],
  "bytecode": "0x60a060405234801561001057600080fd5b5060405161055538038061055583398101604081905261002f91610040565b6001600160a01b0316608052610070565b60006020828403121561005257600080fd5b81516001600160a01b038116811461006957600080fd5b9392505050565b6080516104c46100916000396000818160b0015261016001526104c46000f3fe608060405234801561001057600080fd5b506004361061004c5760003560e01c806323e0998b14610051578063b060dd861461006c578063c16f5156146100ab578063f4f635fa146100ea575b600080fd5b610059603281565b6040519081526020015b60405180910390f35b61007a63152a902d60e11b81565b6040517fffffffff000000000000000000000000000000000000000000000000000000009091168152602001610063565b6100d27f000000000000000000000000000000000000000000000000000000000000000081565b6040516001600160a01b039091168152602001610063565b6100fd6100f8366004610386565b61011c565b604080516001600160a01b039093168352602083019190915201610063565b6040517f2782d6c70000000000000000000000000000000000000000000000000000000081526001600160a01b0384811660048301526024820183905260009182917f00000000000000000000000000000000000000000000000000000000000000001690632782d6c7906044016040805180830381865afa1580156101a6573d6000803e3d6000fd5b505050506040513d601f19601f820116820180604052508101906101ca91906103bb565b5091506001600160a01b03821661033c576040517f01ffc9a700000000000000000000000000000000000000000000000000000000815263152a902d60e11b60048201526001600160a01b038616906301ffc9a790602401602060405180830381865afa15801561023f573d6000803e3d6000fd5b505050506040513d601f19601f8201168201806040525081019061026391906103e9565b1561033c576040805160248101869052604480820186905282518083039091018152606490910182526020810180517bffffffffffffffffffffffffffffffffffffffffffffffffffffffff1663152a902d60e11b179052905160009182916001600160a01b038916916102d691610412565b600060405180830381855afa9150503d8060008114610311576040519150601f19603f3d011682016040523d82523d6000602084013e610316565b606091505b50915091508115610339578080602001905181019061033591906103bb565b5093505b50505b6001600160a01b0382161561036657612710610359846032610441565b610363919061046c565b90505b935093915050565b6001600160a01b038116811461038357600080fd5b50565b60008060006060848603121561039b57600080fd5b83356103a68161036e565b95602085013595506040909401359392505050565b600080604083850312156103ce57600080fd5b82516103d98161036e565b6020939093015192949293505050565b6000602082840312156103fb57600080fd5b8151801515811461040b57600080fd5b9392505050565b6000825160005b818110156104335760208186018101518583015201610419565b506000920191825250919050565b808202811582820484141761046657634e487b7160e01b600052601160045260246000fd5b92915050565b60008261048957634e487b7160e01b600052601260045260246000fd5b50049056fea26469706673582212205dd2d92f78cd440085c18d6fbba749e8ef7c529179444ecaaeada2586fed8ede64736f6c63430008110033",
  "linkReferences": {},
  "deployedLinkReferences": {}
}