{
  "_format": "hh-sol-artifact-1",
  "contractName": "TransferManagerERC1155",
  "sourceName": "src/utils/TransferManagerERC1155.sol",
  "abi": [
    {
      "inputs": [
        {
          "internalType": "address",
          "name": "_netexExchange",
          "type": "address"
        }
      ],
      "stateMutability": "nonpayable",
      "type": "constructor"
    },
    {
      "inputs": [],
      "name": "NETEX_EXCHANGE",
      "outputs": [
        {
          "internalType": "address",
          "name": "",
          "type": "address"
        }
      ],
      "stateMutability": "view",
      "type": "function"
    },
    {
      "inputs": [
        {
          "internalType": "address",
          "name": "collection",
          "type": "address"
        },
        {
          "internalType": "address",
          "name": "from",
          "type": "address"
        },
        {
          "internalType": "address",
          "name": "to",
          "type": "address"
        },
        {
          "internalType": "uint256",
          "name": "tokenId",
          "type": "uint256"
        },
        {
          "internalType": "uint256",
          "name": "amount",
          "type": "uint256"
        }
      ],
      "name": "transferNonFungibleToken",
      "outputs": [],
      "stateMutability": "nonpayable",
      "type": "function"
    },
    {
      "inputs": [
        {
          "internalType": "address",
          "name": "collection",
          "type": "address"
        },
        {
          "internalType": "address",
          "name": "from",
          "type": "address"
        },
        {
          "internalType": "address",
          "name": "to",
          "type": "address"
        },
        {
          "internalType": "uint256",
          "name": "tokenId",
          "type": "uint256"
        },
        {
          "internalType": "uint256",
          "name": "",
          "type": "uint256"
        },
        {
          "internalType": "bytes",
          "name": "data",
          "type": "bytes"
        }
      ],
      "name": "transferNonFungibleToken",
      "outputs": [],
      "stateMutability": "nonpayable",
      "type": "function"
    }
  ],
  "bytecode": "0x60a060405234801561001057600080fd5b5060405161040d38038061040d83398101604081905261002f91610040565b6001600160a01b0316608052610070565b60006020828403121561005257600080fd5b81516001600160a01b038116811461006957600080fd5b9392505050565b60805161037d61009060003960008181604b015260da015261037d6000f3fe608060405234801561001057600080fd5b50600436106100415760003560e01c8063168aba701461004657806333f2fa9f14610096578063849b95a7146100ab575b600080fd5b61006d7f000000000000000000000000000000000000000000000000000000000000000081565b60405173ffffffffffffffffffffffffffffffffffffffff909116815260200160405180910390f35b6100a96100a436600461023a565b6100c2565b005b6100a96100b936600461028f565b50505050505050565b3373ffffffffffffffffffffffffffffffffffffffff7f00000000000000000000000000000000000000000000000000000000000000001614610165576040517f08c379a000000000000000000000000000000000000000000000000000000000815260206004820152601d60248201527f5472616e736665723a204f6e6c79204e657465782045786368616e6765000000604482015260640160405180910390fd5b6040517ff242432a00000000000000000000000000000000000000000000000000000000815273ffffffffffffffffffffffffffffffffffffffff85811660048301528481166024830152604482018490526064820183905260a06084830152600060a483015286169063f242432a9060c401600060405180830381600087803b1580156101f257600080fd5b505af1158015610206573d6000803e3d6000fd5b505050505050505050565b803573ffffffffffffffffffffffffffffffffffffffff8116811461023557600080fd5b919050565b600080600080600060a0868803121561025257600080fd5b61025b86610211565b945061026960208701610211565b935061027760408701610211565b94979396509394606081013594506080013592915050565b600080600080600080600060c0888a0312156102aa57600080fd5b6102b388610211565b96506102c160208901610211565b95506102cf60408901610211565b9450606088013593506080880135925060a088013567ffffffffffffffff808211156102fa57600080fd5b818a0191508a601f83011261030e57600080fd5b81358181111561031d57600080fd5b8b602082850101111561032f57600080fd5b6020830194508093505050509295989194975092955056fea2646970667358221220be7ee543db77fd556857b9567a8ecbc54a779b1a27b3a60e674767253767cb2d64736f6c63430008110033",
  "linkReferences": {},
  "deployedLinkReferences": {}
}