{
  "_format": "hh-sol-artifact-1",
  "contractName": "ExecutionManager",
  "sourceName": "src/ExecutionManager.sol",
  "abi": [
    {
      "anonymous": false,
      "inputs": [
        {
          "indexed": true,
          "internalType": "address",
          "name": "previousOwner",
          "type": "address"
        },
        {
          "indexed": true,
          "internalType": "address",
          "name": "newOwner",
          "type": "address"
        }
      ],
      "name": "OwnershipTransferred",
      "type": "event"
    },
    {
      "anonymous": false,
      "inputs": [
        {
          "indexed": true,
          "internalType": "address",
          "name": "strategy",
          "type": "address"
        }
      ],
      "name": "StrategyRemoved",
      "type": "event"
    },
    {
      "anonymous": false,
      "inputs": [
        {
          "indexed": true,
          "internalType": "address",
          "name": "strategy",
          "type": "address"
        }
      ],
      "name": "StrategyWhitelisted",
      "type": "event"
    },
    {
      "inputs": [
        {
          "internalType": "address",
          "name": "strategy",
          "type": "address"
        }
      ],
      "name": "addStrategy",
      "outputs": [],
      "stateMutability": "nonpayable",
      "type": "function"
    },
    {
      "inputs": [
        {
          "internalType": "address",
          "name": "strategy",
          "type": "address"
        }
      ],
      "name": "isStrategyWhitelisted",
      "outputs": [
        {
          "internalType": "bool",
          "name": "",
          "type": "bool"
        }
      ],
      "stateMutability": "view",
      "type": "function"
    },
    {
      "inputs": [],
      "name": "owner",
      "outputs": [
        {
          "internalType": "address",
          "name": "",
          "type": "address"
        }
      ],
      "stateMutability": "view",
      "type": "function"
    },
    {
      "inputs": [
        {
          "internalType": "address",
          "name": "strategy",
          "type": "address"
        }
      ],
      "name": "removeStrategy",
      "outputs": [],
      "stateMutability": "nonpayable",
      "type": "function"
    },
    {
      "inputs": [],
      "name": "renounceOwnership",
      "outputs": [],
      "stateMutability": "nonpayable",
      "type": "function"
    },
    {
      "inputs": [
        {
          "internalType": "address",
          "name": "newOwner",
          "type": "address"
        }
      ],
      "name": "transferOwnership",
      "outputs": [],
      "stateMutability": "nonpayable",
      "type": "function"
    },
    {
      "inputs": [],
      "name": "viewCountWhitelistedStrategies",
      "outputs": [
        {
          "internalType": "uint256",
          "name": "",
          "type": "uint256"
        }
      ],
      "stateMutability": "view",
      "type": "function"
    },
    {
      "inputs": [
        {
          "internalType": "uint256",
          "name": "cursor",
          "type": "uint256"
        },
        {
          "internalType": "uint256",
          "name": "size",
          "type": "uint256"
        }
      ],
      "name": "viewWhitelistedStrategies",
      "outputs": [
        {
          "internalType": "address[]",
          "name": "",
          "type": "address[]"
        },
        {
          "internalType": "uint256",
          "name": "",
          "type": "uint256"
        }
      ],
      "stateMutability": "view",
      "type": "function"
    }
  ],
  "bytecode": "0x608060405234801561001057600080fd5b5061001a3361001f565b61006f565b600080546001600160a01b038381166001600160a01b0319831681178455604051919092169283917f8be0079c531659141344cd1fd0a4f28419497f9722a3daafe3b4186f6b6457e09190a35050565b6108518061007e6000396000f3fe608060405234801561001057600080fd5b50600436106100885760003560e01c80638da5cb5b1161005b5780638da5cb5b146100e7578063985e3a2f14610102578063999ba27c14610118578063f2fde38b1461013b57600080fd5b8063175188e81461008d578063223e5479146100a257806331fb5b1f146100b5578063715018a6146100df575b600080fd5b6100a061009b3660046106e8565b61014e565b005b6100a06100b03660046106e8565b6101f5565b6100c86100c3366004610711565b610298565b6040516100d6929190610733565b60405180910390f35b6100a061038d565b6000546040516001600160a01b0390911681526020016100d6565b61010a6103a1565b6040519081526020016100d6565b61012b6101263660046106e8565b6103b2565b60405190151581526020016100d6565b6100a06101493660046106e8565b6103c5565b610156610455565b6101616001826104af565b6101b25760405162461bcd60e51b815260206004820152601960248201527f53747261746567793a204e6f742077686974656c69737465640000000000000060448201526064015b60405180910390fd5b6101bd6001826104d4565b506040516001600160a01b038216907f09a1db4b80c32706328728508c941a6b954f31eb5affd32f236c1fd405f8fea490600090a250565b6101fd610455565b6102086001826104af565b156102555760405162461bcd60e51b815260206004820152601d60248201527f53747261746567793a20416c72656164792077686974656c697374656400000060448201526064016101a9565b6102606001826104e9565b506040516001600160a01b038216907f6b583e2e3ad2e182671d77905fee57b1ffd8ce2aa5c0b652ca029317919751a490600090a250565b6060600082846102a860016104fe565b6102b2919061079a565b8111156102d157846102c460016104fe565b6102ce919061079a565b90505b60008167ffffffffffffffff8111156102ec576102ec6107ad565b604051908082528060200260200182016040528015610315578160200160208202803683370190505b50905060005b828110156103745761033861033082896107c3565b600190610508565b82828151811061034a5761034a6107d6565b6001600160a01b03909216602092830291909101909101528061036c816107ec565b91505061031b565b508061038083886107c3565b9350935050509250929050565b610395610455565b61039f6000610514565b565b60006103ad60016104fe565b905090565b60006103bf6001836104af565b92915050565b6103cd610455565b6001600160a01b0381166104495760405162461bcd60e51b815260206004820152602660248201527f4f776e61626c653a206e6577206f776e657220697320746865207a65726f206160448201527f646472657373000000000000000000000000000000000000000000000000000060648201526084016101a9565b61045281610514565b50565b6000546001600160a01b0316331461039f5760405162461bcd60e51b815260206004820181905260248201527f4f776e61626c653a2063616c6c6572206973206e6f7420746865206f776e657260448201526064016101a9565b6001600160a01b038116600090815260018301602052604081205415155b9392505050565b60006104cd836001600160a01b03841661057c565b60006104cd836001600160a01b03841661066f565b60006103bf825490565b60006104cd83836106be565b600080546001600160a01b038381167fffffffffffffffffffffffff0000000000000000000000000000000000000000831681178455604051919092169283917f8be0079c531659141344cd1fd0a4f28419497f9722a3daafe3b4186f6b6457e09190a35050565b600081815260018301602052604081205480156106655760006105a060018361079a565b85549091506000906105b49060019061079a565b90508181146106195760008660000182815481106105d4576105d46107d6565b90600052602060002001549050808760000184815481106105f7576105f76107d6565b6000918252602080832090910192909255918252600188019052604090208390555b855486908061062a5761062a610805565b6001900381819060005260206000200160009055905585600101600086815260200190815260200160002060009055600193505050506103bf565b60009150506103bf565b60008181526001830160205260408120546106b6575081546001818101845560008481526020808220909301849055845484825282860190935260409020919091556103bf565b5060006103bf565b60008260000182815481106106d5576106d56107d6565b9060005260206000200154905092915050565b6000602082840312156106fa57600080fd5b81356001600160a01b03811681146104cd57600080fd5b6000806040838503121561072457600080fd5b50508035926020909101359150565b604080825283519082018190526000906020906060840190828701845b828110156107755781516001600160a01b031684529284019290840190600101610750565b50505092019290925292915050565b634e487b7160e01b600052601160045260246000fd5b818103818111156103bf576103bf610784565b634e487b7160e01b600052604160045260246000fd5b808201808211156103bf576103bf610784565b634e487b7160e01b600052603260045260246000fd5b6000600182016107fe576107fe610784565b5060010190565b634e487b7160e01b600052603160045260246000fdfea26469706673582212206e8d29557657697164384fdff6bc01d913942a8c89505065bc59816e2971b6e864736f6c63430008110033",
  "linkReferences": {},
  "deployedLinkReferences": {}
}