{
  "_format": "hh-sol-artifact-1",
  "contractName": "LibERC721LazyMint",
  "sourceName": "src/libraries/LibERC721LazyMint.sol",
  "abi": [
    {
      "inputs": [],
      "name": "MINT_AND_TRANSFER_TYPEHASH",
      "outputs": [
        {
          "internalType": "bytes32",
          "name": "",
          "type": "bytes32"
        }
      ],
      "stateMutability": "view",
      "type": "function"
    }
  ],
  "bytecode": "0x60a6610038600b82828239805160001a607314602b57634e487b7160e01b600052600060045260246000fd5b30600052607381538281f3fe730000000000000000000000000000000000000000301460806040526004361060335760003560e01c80637987105f146038575b600080fd5b605e7f7dfe7309bd6ebf2dbc72c68f822ce0f70f2be4d551babbb69de8929c861b636281565b60405190815260200160405180910390f3fea2646970667358221220787a4c38a42517f01fea7909ea4dd890bec0a141372125574740f49df0153b9564736f6c63430008110033",
  "linkReferences": {},
  "deployedLinkReferences": {}
}